:100000000C94EF060C940C070C940C070C944434DD
:100010000C940C070C940C070C940C070C940C0714
:100020000C940C070C940C070C94E2130C94921A89
:100030000C946A290C940C070C940C070C940C0774
:100040000C940C070C940C070C940C070C940C07E4
:100050000C940C070C94BB140C940C070C940C0718
:100060000C940C070C940C070C940C070C940C07C4
:100070000C940C070C940C070C940C070C940C07B4
:100080000C940C070C940C070C940C070C940C07A4
:100090000C940C070C940C070C940C070C940C0794
:1000A0000C940C070C940C070C940C070501090226
:1000B000A10185020901A100050919012905150001
:1000C00025019505750181029501750381010501E1
:1000D000093009311581257F950275088106093897
:1000E0001581257F950175088106050C0A380215D2
:1000F00081257F950175088106C0C005010980A191
:1001000001850319012AB700150126B7009501756D
:10011000108100C0050C0901A101850419012AA064
:1001200002150126A002950175108100C00660FF2E
:100130000961A1010962150026FF0095207508815B
:10014000020963150026FF00952075089102C0057D
:10015000010906A101050719E029E7150025019508
:1001600008750181029501750881010507190029AB
:10017000FF150026FF009506750881000508190186
:100180002905950575019102950175039101C0013D
:10019000000005010502050305040505050006012B
:1001A0000602060306040605060007010702070308
:1001B00007040705070008010802080308040805EA
:1001C00008000901090209030904090509000001E1
:1001D0000002000300040005000001010102010308
:1001E00001040105010002010202020302040205EA
:1001F00002000301030203030304030503000401D7
:1002000004020403040404050400DA0281FFD9F1A6
:10021000DB20A4A62EAF00A0C000A1C800AED580F0
:10022000A81FD300408D1420004350534C4B000AAC
:100230000A00556E646566004C6F77657200526106
:1002400069736500426173650A004C41594552006B
:100250000A0A004D6F640A00436C6D6B005177729F
:1002600074000A0A00808182838485868788898A4F
:100270008B8C8D8E8F9091929394A0A1A2A3A4A514
:10028000A6A7A8A9AAABACADAEAFB0B1B2B3B4C08B
:10029000C1C2C3C4C5C6C7C8C9CACBCCCDCECFD0D6
:1002A000D1D2D3D400FD377A585A000004E6D6B430
:1002B000460200210116000000742FE5A3E008E2C9
:1002C000024C5D003D8889C65436C3174FE4E62BC7
:1002D00087DC61F128B5AEA0A33C3CF45F7424B583
:1002E0002C3D20C7689B3A8E08CE16E28FDD74FF46
:1002F000A04F08D43D201DD0558F11BBB13287319E
:100300008A341491884A492E35E0342D0C400E9AD7
:100310003CEAF71ADE8FB7A230CF5983F223EF20E1
:10032000330CC056779F9CED4D7DAF3FD6C289956B
:100330006075A12F2E891DDC43DF675F81D38DC5DA
:10034000C3D81411649D6290F38B2C365D0B6F74CF
:10035000C04E46B3DED00F56EE8AE2DAB7FB9EFD02
:100360000D52C588DC45FF874E8E61CF38B2488478
:10037000655A4D7476CD19495E5DD5F1A4BAB0B019
:1003800017AFD23C9471A8793419EDC7367C4DB8BB
:100390006CFF0F9FC4D682F61E028C6E040164DCD3
:1003A00013F769236B5C1B173425A3AACCB1CE1BB2
:1003B0006458512974EBCF67BC05AF6801AB1F9D32
:1003C000BAF8424C73DA53FA234F3ED1FCDE9F3227
:1003D000459070FE604F3037942A16C7A89A52BADB
:1003E0008BD32488E60234B33230E25B02F96739FA
:1003F000FB000ED8394232BA69E6C7B6B4B11094E0
:1004000060026B794FB8BDC9E9DA587632299FB6D8
:1004100053855DFDDEF3B603CD39B7DC4DA942242B
:100420009A5411D726B6B55B33ADEBADF5D7D4846E
:1004300045A32FAECFE7FD52418C7535D1ED6688CF
:10044000C5C3B66ED8A73473063DC8E06EBAE46380
:10045000C7C59C31D05BE096CC2FBE1F53F74A88AE
:100460005C950AFE0A7AB34C3248230B57D3C22E4E
:10047000FF6C14DF96681887B113771788D21F2E88
:10048000F65EF6EA81BD9E780C99ADFBAE8ACB3F55
:10049000227CC2541095BA3303810447A8821B9E64
:1004A000BE3EE2CEBBBFD790D6CCA1CDDE15224B4F
:1004B000703556F3C0AEF2CA6FB306516C76335640
:1004C000767F419828CEB0EB9E5CBB68AC9CF7C2AF
:1004D0001DFD6BEB2C49B7166F54BB2852D4BC22C0
:1004E0002279F621D7640A4DFF6E6B661140C16B0D
:1004F0004059A09581608C237F04137E9770EC2374
:10050000369BC1F35CD589B57D7896442D57F1A40F
:1005100000522FF7134D662E810001E804E311000D
:100520000063CCEC15B1C467FB0200000000045965
:100530005A01000100010001000100010001000159
:1005400000010001000100010001000100010001A3
:100550000035001E001F0020002100220029001489
:10056000001A000800150017002B000400160007F1
:100570000009000A00E1001D001B0006001900052B
:1005800000E300E200E00002512800A80035002747
:100590000026002500240023002A00130012000C6E
:1005A0000018001C00340033000F000E000D000B7B
:1005B00000E50038003700360010001100E700E6C3
:1005C00000E40003512C00000035001E001F002035
:1005D0000021002200290014001A00090013000A5B
:1005E000002B0004001500160017000700E1001D95
:1005F000001B00060019000500E300E200E0000116
:10060000002800A80035002700260025002400232C
:10061000002A0033001C0018000F000D00340012E7
:10062000000C00080011000B00E500380037003610
:100630000010000E00E700E600E40001002C0000BE
:100640000001003A003B003C003D003E0035001E2A
:10065000001F0020002100220001001E021F0220B6
:10066000022102220201002E002D002E022F023054
:1006700002010001000100010001000100440043EB
:10068000004200410040003F0045002700260025B1
:10069000002400230031022702260225022402231F
:1006A00002010031003302330030002F000100014D
:1006B0000001000100010001000100010001000132
:1006C0000001000100010049004600650000000033
:1006D000000100E200E000E1000000390001007AC2
:1006E000007B007C007D0000000100010001000192
:1006F00000010001000100010001000100010001F2
:10070000002A0001000100520001004B002A004CA9
:10071000004F00510050004E000100000001000099
:1007200000010000000100010001000100010001C2
:100730000007087F0807003E5B4F5B3E003E6B4FA3
:100740006B3E001C3E7C3E1C00183C7E3C18001C8E
:10075000577D571C001C5E7F5E1C0000183C180073
:1007600000FFE7C3E7FF00001824180000FFE7DBE5
:10077000E7FF0030483A060E002629792926004076
:100780007F05050700407F05253F005A3CE73C5A9E
:10079000007F3E1C1C0800081C1C3E7F0014227FAA
:1007A0002214005F5F005F5F0006097F017F000089
:1007B0006689956A0060606060600094A2FFA29400
:1007C0000008047E04080010207E20100008082A7B
:1007D0001C0800081C2A0808001E10101010000C2D
:1007E0001E0C1E0C0030383E383000060E3E0E0641
:1007F0000000000000000000005F00000000070093
:10080000070000147F147F1400242A7F2A1200237B
:1008100013086462003649562050000008070300A0
:1008200000001C224100000041221C00002A1C7F05
:100830001C2A0008083E08080000807030000008EC
:10084000080808080000006060000020100804028A
:10085000003E5149453E0000427F40000072494938
:100860004946002141494D33001814127F100027DA
:1008700045454539003C4A494931004121110907A4
:1008800000364949493600464949291E00000014EE
:100890000000000040340000000008142241001451
:1008A000141414140000412214080002015909060E
:1008B000003E415D594E007C1211127C007F494977
:1008C0004936003E41414122007F4141413E007F87
:1008D00049494941007F09090901003E41415173DD
:1008E000007F0808087F0000417F41000020404150
:1008F0003F01007F08142241007F40404040007FBC
:10090000021C027F007F0408107F003E4141413EEF
:10091000007F09090906003E4151215E007F091947
:1009200029460026494949320003017F0103003F5F
:100930004040403F001F2040201F003F4038403FC4
:100940000063140814630003047804030061594928
:100950004D4300007F414141000204081020000087
:100960004141417F000402010204004040404040F8
:10097000000003070800002054547840007F2844FA
:10098000443800384444442800384444287F003820
:10099000545454180000087E09020018A4A49C783E
:1009A000007F080404780000447D4000002040409F
:1009B0003D00007F102844000000417F4000007C83
:1009C00004780478007C08040478003844444438EF
:1009D00000FC182424180018242418FC007C0804A7
:1009E00004080048545454240004043F4424003CA8
:1009F0004040207C001C2040201C003C4030403CFB
:100A0000004428102844004C9090907C004464548A
:100A10004C44000008364100000000770000000050
:100A200041360800000201020402003C2623263C55
:100A300000000000000000404040F0F8F8FF38FFE0
:100A4000F8F83FF8F8FF38FFF8F8F04040400000B1
:100A50000000000080C0C0C0800000C0C080000056
:100A60000080C0C000C0C0000080C0C00000000006
:100A700000C0C0C0C0C000C0C00000000000000036
:100A80000000000000000000000000000000000066
:100A90000000000000000000000000000000000056
:100AA0000000000000000000000000000000000046
:100AB000C0F0F8FC3E1E06010000007F4141417F6E
:100AC000007F4141417F000080C0E07E5B4F5BFEC4
:100AD000C00000C000DCD7DEDEDED7DC00C00000D6
:100AE0000000000000000000000000000000000006
:100AF00000000000000000494949FFFFFFFFE0DF60
:100B0000BFBF00BFBFDFE0FFFFFFFF494949000053
:100B10000000001F3F6060E0BF1F007F7F071E389E
:100B20001E077F7F007F7F0E1F3B7160000000006B
:100B3000007F7F0C0C0C007E7E007F7E0303007F15
:100B40007E03037E7E03037F7E000F3E703C063CE7
:100B5000703E0F00327B49493F7E007F7E030300D9
:100B60001E3F69696F2600000000000000000000C1
:100B7000030F1F3F3C7870600000007F4141417FC0
:100B8000007F4141417F00307B7F783020203078EA
:100B90007F3B0003000F7F0F0F0F7F0F000300004C
:100BA0000000000000000000000000000000000045
:100BB00000000000000000010101070F0F7F0F7F00
:100BC0000F0F7E0F0F7F0F7F0F0F07010101000036
:100BD0000000000000000000010100000000000013
:100BE0000000000000000000000000000000000005
:100BF00000000000000000000000000000000000F5
:100C000000000000000000000000000000000000E4
:100C100000000000000000000000000000000000D4
:100C200000000000000000000000000000000000C4
:100C300000000000000000000000000000000000B4
:100C400000000000000000000000000000000000A4
:100C50000000000000000000000000000000000094
:100C60000000000000000000000000000000000084
:100C70000000AF00AE000000000000000000000017
:100C80000000000000000000000000000000000064
:100C90000000000000000000007E0F00D4FFFFFFF6
:100CA000C70000007800000000000000002A2B2888
:100CB0000000000000000000000000000000000034
:100CC00029000000002C1E34202122243426272550
:100CD0002E362D3738271E1F202122232425263388
:100CE00033362E37381F0405060708090A0B0C0D8A
:100CF0000E0F101112131415161718191A1B1C1D9C
:100D00002F3130232D350405060708090A0B0C0D79
:100D10000E0F101112131415161718191A1B1C1D7B
:100D20002F3130354C09025B00030100A0FA0904A1
:100D3000000001030101000921110100012240000E
:100D400007058103080001090401000203000000F7
:100D50000921110100012222000705820320000160
:100D6000070503032000010904020001030000003D
:100D700009211101000122810007058403200001DF
:100D8000120100020000000832FC8702010001028B
:100D900003011C037600690061006C003A006600E4
:100DA000360034006300320062003300630000004C
:100DB0000C0353006F0066006C00650000001A030E
:100DC0004A006F0073006500660041006400610026
:100DD0006D00630069006B00000004030904112426
:100DE0001FBECFEFDAE0DEBFCDBF11E0A0E0B1E083
:100DF000EAE0FDE602C005900D92A43BB107D9F7E9
:100E000025E0A4EBB1E001C01D92AA38B207E1F7DA
:100E10000E9491290C9458360C940000E8EDF0E003
:100E200080818E7F80831092E2001092DA0010920F
:100E3000E100A0EEB0E08C9181608C9380818F778F
:100E4000808319BCA7EDB0E08C918E7F8C9380815C
:100E50008F7E80831092720508952091E400309176
:100E6000E50095E6A9012091EC00822F817020FF1A
:100E700006C08091E80080FF06C080E008952091C0
:100E8000E80022FD1AC080918805882389F085300A
:100E900089F08091EB0085FD0FC02091E400309136
:100EA000E50042175307F9F29150E1F684E0089506
:100EB00082E0089583E0089581E00895EF92FF9223
:100EC0000F931F93CF937C018B010E942D07C82F96
:100ED000811117C08091E80085FD0BC08091E8006A
:100EE0008E778093E8000E942D07882399F3C82FFE
:100EF00008C0F70181917F018093F1000150110931
:100F000049F78C2FCF911F910F91FF90EF9008958B
:100F1000CF93FC0180918805843001F5C091E900F0
:100F2000CF702091EC00922F917020FD90E8C92B9A
:100F300082E08093E9008091E80080FF0CC050E0DF
:100F400040E060E270E0CF010E945E078091E8001F
:100F50008E778093E800CF70C093E900CF91089519
:100F60008091800587FF13C08091E80082FF06C052
:100F70008091E8008B778093E80004C08091880519
:100F80008111F2CF0895809188058823D9F380914B
:100F9000E80080FFF8CF8091E8008E77ECCF982FA3
:100FA0009093E900242F762F50E0891731F070914B
:100FB000EC002091ED005091F00021FD07C09F5FF3
:100FC000973071F78093E90081E008953091EB004C
:100FD0003E7F3093EB003091ED003D7F3093ED008C
:100FE0003091EB0031603093EB007093EC00209374
:100FF000ED005093F0002091EE0027FDE0CF80E05F
:101000000895B0E0A0E0E7E0F8E00C947E35C8ED8C
:10101000D0E088818F7E8883E7EDF0E08081816079
:10102000808384E082BF81E08093720588818E7F17
:10103000888302EE10E0F80110821092DA0081EE4F
:10104000C82ED12CF601108288818F778883888101
:101050008068888388818F7D888319BC1092880579
:1010600010927F0510927E0510927D0590EEE92E7C
:10107000F12CF70180818B7F808388818160888358
:1010800042E060E080E00E94CF07F60180818E7F21
:101090008083F80180818160808380818860808383
:1010A000F70180818E7F8083888180618883CDB7BE
:1010B000DEB7E8E00C949A35FC01809186059091AA
:1010C000870586179707A0F06115710529F490919F
:1010D000E8009E779093E80090E06115710551F467
:1010E000911108C08091E80082FF34C080E008952B
:1010F000BC01F2CF809188058823C1F18530C1F110
:101100008091E80083FD30C08091E80082FDEACF45
:101110008091E80080FFE1CF8091F3002091F20000
:10112000382F6115710519F02830310558F091E01C
:101130002830310509F090E02091E8002E772093C7
:10114000E800CBCF81918093F100615071092F5F4E
:101150003F4FE7CF80918805882341F0853041F0EB
:101160008091E80083FFBECF81E0089582E008957A
:1011700083E00895089580917405089587E797E7BF
:10118000909301088093000888E19AE00FB6F894E4
:10119000A895809360000FBE90936000FFCF2FB79B
:1011A000F89460916B0570916C0580916D0590913C
:1011B0006E052FBF08959C01FC0132969FEF80E0E1
:1011C0004191461751F09F3F19F4411101C0982FEA
:1011D0008F5F8630A9F79F3F09F40895290F311DCD
:1011E00097FD3A95F9016283089520916805309141
:1011F00069052817390771F0909369058093680590
:10120000E0916605F0916705309721F00084F18543
:10121000E02D099508952091640530916505281702
:10122000390771F09093650580936405E091660538
:10123000F0916705309721F00680F781E02D099540
:101240000895FC01680F791F8FEF91E321918227A8
:1012500028E030E087FF09C0880F89272150310935
:10126000C9F7E617F70791F70895880FF7CFE6ED6E
:10127000F2E090E080E06EE87FE145EB5FE120EF97
:101280003EE177836683518740873387228795873E
:10129000848701963E968830910599F708958115C7
:1012A0002CE5920741F42091460330914703232B0C
:1012B00011F490E080E008959091C002803F59F4CD
:1012C0008091C10287FF0DC01092C10291110BC025
:1012D0001092B80208C0813F81F48091C1021816B3
:1012E0009CF3992381F08091C2029091C302892BD3
:1012F00009F064C01092B7020895823F49F497FF45
:10130000F0CF1092C0028091C1028111ECCFE0CFEA
:10131000833F19F41916ACF3E4CF2091C202893F40
:1013200029F41216F4F61092C202DBCF8A3F19F4A8
:1013300027FFD7CFF8CF2091C3028B3F29F427FF97
:10134000D0CF1092C302CDCF8C3F19F41216CCF33C
:10135000C8CF843F31F48091BF028E7F8093BF025B
:10136000C0CF853F21F48091BF028D7FF7CF863FAC
:1013700021F48091BF028B7FF1CF873F21F48091D0
:10138000BF02877FEBCF883F21F48091BF028F7E21
:10139000E5CF8D3F31F48091B9028E7F8093B90201
:1013A000A0CF8E3F21F48091B9028D7FF7CF8F3F80
:1013B00009F097CF8091B9028B7FF0CF089580918B
:1013C000B90280FD16C081FD16C082FD16C0809155
:1013D000B7028823A1F0883280F428E0829FC00100
:1013E000112468E270E00E94B735862F672B39F030
:1013F000089582E0089584E0089588E0089581E0EA
:1014000008958091B90280FD14C081FD14C082FD51
:1014100016C08091B802882381F08E3180F420E5D7
:10142000829FC00111246EE170E00E94B735862FC3
:10143000089584E1089588E2089588E0089580E59C
:101440000895803F31F40E94010A81958093C10282
:101450000895813F19F40E94010AF8CF823F31F4C8
:101460000E94010A81958093C0020895833F19F478
:101470000E94010AF8CF893F29F40E94DF09809376
:10148000C20208958A3F21F40E94DF098195F7CFB7
:101490008B3F31F40E94DF0981958093C302089548
:1014A0008C3F19F40E94DF09F8CF843F31F480911A
:1014B000BF0281608093BF020895853F21F480912F
:1014C000BF028260F7CF863F21F48091BF02846023
:1014D000F1CF873F21F48091BF028860EBCF883F36
:1014E00021F48091BF028061E5CF8D3F31F480917E
:1014F000B90281608093B90208958E3F21F48091F2
:10150000B9028260F7CF8F3FB9F78091B90284604A
:10151000F1CF80E00895F894E82FE295EF70F0E0C5
:1015200031A1282F2F7081E090E001C0880F2A950B
:10153000EAF7982F9095932391A392A1892B82A3E8
:10154000789408959091690292FF06C0282F28711F
:101550002830F9F4877F846093FF06C0282F287114
:101560002831F1F4877E846120916A0220FF06C051
:10157000382F38713830D9F4877F816021FF06C059
:10158000282F28712831D1F4877E816194FD877ED0
:101590000895282F24712430F9F68B7F8860DCCFE2
:1015A000282F2471243101F78B7E8861DDCF382FFD
:1015B0003171313019F78E7F8860E0CF282F21718B
:1015C000213121F78E7E8861E1CFCF93DF93EC014B
:1015D00082389105B1F108F040C08133910509F4DA
:1015E0009DC048F58932910509F48DC08A9709F4A8
:1015F0009CC0C11522E5D20708F0C8C0C11531E56D
:10160000D30708F030C1C83ED10508F0A3C0C13EE1
:10161000D10588F5C83AD10508F08EC0C53AD10584
:1016200008F004C1C130D10531F1209721F1C43057
:10163000D10508F545C08533910509F45FC0C99708
:10164000C1F680916902837009F047C180916A02F6
:1016500083FF11C0C9E2D0E00EC0833E910599F12D
:1016600070F4803E910501F1823E910511F6809162
:10167000690282FD21C0CE01DF91CF910895863E9F
:10168000910561F1873E910571F1843E910509F064
:10169000B0CF80916A0281FFEECF80916902C7EEE0
:1016A000D0E084FD0DC0E7CF8091690280FD33C09A
:1016B00090916A0290FFDFCFC3EED0E084FFDBCFD2
:1016C000D0E0C0E0D8CF8091690282FD03C1909143
:1016D0006A0290FD02C184FFCECFF2CF80916902F1
:1016E00083FDDDCFC8CF8091690283FDF9C0909161
:1016F0006A0291FFF0CFC4EED0E0BDCF80916902C5
:1017000085FFB9CFA7CF8091690285FDECC080919C
:101710006A0283FFB0CFC9E3D0E0ADCF8091690208
:1017200086FFA9CFCAE2D0E0A6CF8091690286FFEA
:10173000A2CFC1E3D0E09FCFCF3BD10508F6C85A76
:10174000D0E0CC0FDD1FC65BDE4F0990D881C02DE5
:10175000D46491CFC11540E2D40758F4C11581E09B
:10176000D80708F088CFC03FD10508F4A9CFD065CD
:1017700082CFC11520E4D20708F4A2CFC11530E50D
:10178000D30708F05BC0DF70D06A75CFC11546E59E
:10179000D40718F5C11585E5D80708F07DC0C11537
:1017A00024E5D20708F073C09C2F969596959E016C
:1017B00023703327C115D34508F45AC0C1E0D0E0E7
:1017C00002C0CC0FDD1F2A95E2F730E2939FC001E3
:1017D0001124C82BD92BDA684ECFC11589E5D8075B
:1017E00068F4C11528E5D20708F061C0C11537E5D6
:1017F000D30708F065CFDD27D0663DCFC1154AE598
:10180000D40708F459C0CE0190568115904208F0D3
:1018100057CF8D2F8F710E94A20A90E0982F8827B2
:1018200088279F719C012C2BE9013FC0C55AD0E04D
:10183000C95BDE4FC881D0E0D0641DCF2C2F269528
:101840002695237040E2249F900111248C2F8370F1
:10185000C1E0D0E002C0CC0FDD1F8A95E2F7C22BB9
:10186000D32BDD6808CFDC2FCC27C16FD06A03CF24
:10187000C1E0D0E002C0CC0FDD1F2A95E2F720E2E4
:10188000929FC0011124C82BD92BDC68F4CEDC2F29
:10189000CC27C46FD06AEFCE8C2F0E94A20AC82F2B
:1018A000D0E0DC2FCC27CC27DF71D062E4CEDC2F58
:1018B000CC27C06FD06ADFCE8C2F8F700E94A20A17
:1018C00034E0D695C7953A95E1F7CF709C2FEC019F
:1018D000D069D1CEC2EED0E0CECEC0EED0E0CBCE3D
:1018E000C6EED0E0C8CEC5E3D0E0C5CE0E94CF089A
:1018F000089580912E02882331F010922E021092CA
:101900002D0210922C0208958095909160059823E5
:101910009093600508958095909161059823909328
:101920006105089510922302109222021092210262
:101930000895452B39F0682381E06F3F09F080E07E
:101940008170089581E0FCCF809120029091EF0199
:10195000981301C008958F5F8770FACFA82FA770E2
:1019600023E0969587952A95E1F7FC01EE0FFF1F7E
:10197000E80FF91FE60FF71F50E040E080E02191EB
:1019800030E00A2E02C0369527950A94E2F72170BE
:101990003327042E01C0220F0A94EAF7822B4F5FEF
:1019A0005F4F4330510559F70895903FC9F09A3081
:1019B00080F48630A8F4282F30E06FEC71E0A901A4
:1019C000E6E09E9F400D511D1124CA010E94AE0CFD
:1019D00008959C5F923020F46CEC71E090E0F6CFBB
:1019E00080E00895262F277091E001C0990F2A9575
:1019F000EAF723E0769567952A95E1F7FB01EE0F6C
:101A0000FF1FE60FF71FE40FF51F50E040E0682FBF
:101A100070E08191DF0111979B01042E02C0369581
:101A200027950A94E2F72170219528272923282752
:101A30002C934F5F5F4F4330510559F70895282F7E
:101A4000862F903F79F09A3070F4263058F4622F48
:101A500070E026E0929F600D711D11244FEC51E063
:101A60000E94F20C08959C5F9230E0F7622F70E0C4
:101A70004CEC51E0F5CF982F92959F7011F0892F83
:101A800094E0282F2695269511F09E5F822F86954B
:101A900009F09F5F892F08959C013A9521153F41D8
:101AA00050F5FC01EE27F170BC0166277270AC01A5
:101AB000442754709C012227387094FF0EC080E1A7
:101AC000EF2B09F480E0672B09F08062452B09F0C9
:101AD0008064232B89F08068089581E0EF2B09F45E
:101AE00080E0672B09F08260452B09F08460232B8E
:101AF00019F08860089580E00895B0E0A0E0E3E880
:101B0000FDE00C947E356C017B0164E670E088E7B3
:101B10000E94BE32EC0197FD12C010E000E0F60119
:101B2000E00FF11F849164E670E00E942A33EC011B
:101B3000892B29F40F5F1F4F0E151F0581F70E9497
:101B4000A033CE01CDB7DEB7E8E00C949A35809192
:101B50005B0590915C05911103C091E08927089580
:101B6000882369F062E070E083E79CE00E947D0DCD
:101B7000892B19F080915B05089510925B05809187
:101B80005B05EBCFCF93C0915B0580915C0588230B
:101B9000D1F00E94CF08605A75418F4F9F4F6093DC
:101BA0005705709358058093590590935A05C111B4
:101BB00008C062E070E081E79CE00E947D0D892B07
:101BC00029F0C0915B058C2FCF91089581E080931F
:101BD0005B05F7CF80936F05709371056093700577
:101BE000809188058430F9F48093E9008FEF90911B
:101BF000E800815095FD06C095ED9A95F1F700003B
:101C00008111F5CF8091E80085FF0DC050E040E0E4
:101C100063E070E08FE695E00E945E078091E80047
:101C20008E778093E8000895BC0184E00E94EA0D5D
:101C30000895BC0183E00E94EA0D08959C0184E0B0
:101C40008093E9009FEF8091E800915085FD06C0E8
:101C500085ED8A95F1F700009111F5CF8091E800AC
:101C600085FF0CC050E040E066E070E0C9010E94D2
:101C70005E078091E8008E778093E8000895CF9307
:101C8000DF93EC0181E08093E9008FEF9091E80011
:101C9000815095FD06C095ED9A95F1F700008111F0
:101CA000F5CF8091E80085FF14C050E040E068E087
:101CB00070E0CE010E945E078091E8008E778093ED
:101CC000E80088E0FE01A5E7B5E001900D928A9555
:101CD000E1F7DF91CF910895B0E0A0E0E2E7FEE008
:101CE0000C947C357C015B016A018091580201E013
:101CF00010E08A3010F40AE010E0C1E0D0E0B50155
:101D0000C701F6010995811104C021960C171D0722
:101D10002CF4CDB7DEB7EAE00C949835CC9F900157
:101D2000CD9F300D300D112490E080E045E34A95C1
:101D3000F1F70000019682179307C1F7E0CF809179
:101D40003A02811110C08091D80080618093D80040
:101D50008AE18A95F1F700C08091D90080FF0AC01E
:101D600081E080933A0281E090913A02913009F04B
:101D700080E0089582E080933A020E940E0710925C
:101D80008805F1CF0E949F0E882359F0E0916605E7
:101D9000F0916705309729F00190F081E02D0995C9
:101DA000089580E008951F93CF93DF93162F8A3014
:101DB00039F481E00E94760FDF91CF911F91089551
:101DC0008D3011F480E0F6CFC0915505D0915605C5
:101DD00096E0FE01AFE4B5E001900D929A95E1F72F
:101DE000803E90F186E0FE0111928A95E9F7C0915C
:101DF0005505D0915605111133C046E050E0BE01A3
:101E00008FE495E00E94E1359E012F543340892BE9
:101E100091F52A5F3F4F40914C03642F70E0C90158
:101E20000E946035481B463010F4240F311D2115E7
:101E300072E0370710F030E020E0215B3C4F309338
:101E4000560520935505B8CFF6E08F9FB0011124B9
:101E50006F5C784F46E050E0CE010E94D835C7CF86
:101E60009E012A5F3F4FFE012E173F0731F280810E
:101E700080958193F9CFC90145E0969587954A955C
:101E8000E1F741E050E0BA0102C0660F771F8A9582
:101E9000E2F7CB0160914D0370914E03862B972B97
:101EA000B9016B5F7F4FE5E076956795EA95E1F7BD
:101EB00002C0440F551F6A95E2F7842B952B90932F
:101EC0004E0380934D03A5CF1F93CF93DF93EC0177
:101ED000162FFE018491811104C0DF91CF911F91D3
:101EE0000895612F0E94D30E2196F3CFCF93382F00
:101EF000E0915505F0915605EF54F34020914C03C5
:101F0000622F70E0CF010E946035281B822F33239F
:101F100069F066E00E94AB35C82FC15010F4CF9134
:101F2000089560E080E20E94D30EF7CF9F01280F52
:101F3000311D2115324018F080E0F0E0E0E08E0F16
:101F40009F2F911D815B9C4F909356058093550563
:101F5000E6CF0E94640F81E00E94760F0895CF9330
:101F6000DF93C7E7D2E060E0CE010E941C362196E5
:101F7000C11584E0D807B9F7DF91CF9108950F9389
:101F80001F93CF93DF93142F022F843020F56230FC
:101F900010F598E0899FE001112484E0689FB0016A
:101FA0001124C60FD71FC95FDD4F82E090E04423A4
:101FB00011F090E080E0632F8C0F9D1F0E941C3673
:101FC00083E090E0112311F081E090E0602F8C0F0E
:101FD0009D1F0E941C36DF91CF911F910F91089594
:101FE0001F93CF93DF93122F8430E0F46A30D0F444
:101FF0004630C0F4C42FD0E0CC0FDD1F9CE0699FB9
:10200000C00DD11D112498E7899FC00DD11D112449
:10201000632FCE0187960E941C36612FCE018896D1
:102020000E941C36DF91CF911F910895CF93C82F46
:102030006FEF811165E583E290E00E941C366FEF3F
:10204000C11162EF84E290E00E941C366FEFC11173
:1020500063E885E290E00E941C36CF910895AAE0E3
:10206000B0E0E5E3F0E10C94773580904603909082
:10207000470381E090E0909347038093460381E318
:10208000A82E85E0B82E91E5C92E95E0D92E10E056
:10209000760100E015C0F30125913491452D602FA4
:1020A000812F0E94F00F82E0680E711C539486E02D
:1020B0005812F1CF8CE0E80EF11C0F5F0A3019F0D6
:1020C0003701512CE8CF750100E0F70125913491DB
:1020D00041E0602F812F0E94BF0FF70132962591BA
:1020E000349140E0602F812F0E94BF0F84E0E80E02
:1020F000F11C013069F588E0A80EB11C1F5F88E76C
:10210000C80ED11C143009F0C3CF1A8219821C8268
:102110001B821E821D8218861F8288EC90E09A879F
:10212000898707E212E04AE050E0B801CE0101964B
:102130000E944036065F1F4F073782E0180799F765
:1021400090924703809246032A96EFE00C949335D1
:1021500001E0BBCF80E00E94161060E086E290E0D4
:102160000E941C360E942F100E94AF0F81E00E9437
:10217000161008959B01883070F49AE0899FB00191
:102180001124695D7D4F4AE050E0C9010E94FE358F
:1021900090E080E008958FEF9FEF0895AAE0B0E00F
:1021A000E4EDF0E10C9484359C0137552F3F310567
:1021B00009F068F4BE016F5F7F4F0E94BA10892B4F
:1021C00031F489859A852A96E2E00C94A03588EC52
:1021D00090E0F9CFFF920F931F93CF93DF93F42EEC
:1021E000843070F5623060F528E0829F8001112410
:1021F00034E0639FB0011124060F171F095F1D4FC4
:1022000082E090E0442311F090E080E0800F911F85
:102210000E940E36C82FD0E0DC2FCC2783E090E060
:10222000FF2011F081E090E0800F911F0E940E3698
:102230009E01282BC901CDB7DEB7E5E00C949D3592
:1022400090E080E0F8CF0F931F93CF93DF9384301B
:1022500030F56A3020F5463010F5C42FD0E0CC0FB1
:10226000DD1F2CE0629FC00DD11D112438E7839F34
:10227000C00DD11D1124CE0187960E940E36082F65
:1022800010E0102F0027CE0188960E940E3698018C
:10229000282BC901DF91CF911F910F91089590E0F4
:1022A00080E0F8CF20914A0330914B03232BC9F4EF
:1022B000703F39F4603FA9F480914803909149033D
:1022C0000895843070F47A3038F4663050F4462F34
:1022D000672F0E94231108957D3F31F441E0623061
:1022E00040F090E080E008957C3FD9F76230C8F775
:1022F00040E00E94EA100895CF92DF92FF920F9380
:102300001F93CF93DF936C010091890580912F0279
:10231000082BC7E0D0E010E0FC2EC8010C2E02C054
:10232000959587950A94E2F780FD0CC02197A0F758
:10233000F12C8F2DDF91CF911F910F91FF90DF90A6
:10234000CF900895B6018C2F0E9452110E94E50A89
:10235000019761F3EECFCF93DF93EC010E947C11E4
:10236000BE010E9452110E94E50ADF91CF910895AB
:102370000F931F93CF938C01FC01438154816181A2
:1023800080810E94990CC82F811123C0F80180819F
:1023900091810E94AB1192959F709630A9F058F4EC
:1023A000925F9F70923058F4803F19F030F4883E6D
:1023B00030F4C1E004C09A5FF4CF843FD1F38C2F96
:1023C000CF911F910F910895883E98F3813FB9F7FF
:1023D000F0CFC0E0F4CFA5E0B0E0E1EFF1E10C9484
:1023E000833525E0FC01DE01119601900D922A95BE
:1023F000E1F7FC01228189819A81222399F06623E9
:1024000089F00E947C11182F682F89819A810E947F
:102410001F0D69817A81812F0E9452112596E3E078
:102420000C949F350E94D50C182FF3CF83E290E0D7
:102430000E940E36853589F484E290E00E940E36C3
:10244000823F59F485E290E00E940E3691E0833895
:1024500009F090E0892F8170089580E0FCCFCF9340
:1024600084E090E00E940E36C82F82E290E00E9445
:102470000E36982F8C2FCF910895A4E0B0E0E3E4BE
:10248000F2E10C94823540915402509155026091D2
:102490005602709157022FB7F89480916B05909176
:1024A0006C05A0916D05B0916E052FBF841B950B37
:1024B000A60BB70B11E084369105A105B10590F18B
:1024C0000E949F0E882399F10E94CF086E5F7F4F74
:1024D0008F4F9F4F69837A838B839C8380912101E7
:1024E00090912201885B9D4F4091200150E0453042
:1024F000510510F044E050E0BE016F5F7F4F0E9435
:10250000EE3584E090E00E94EA34182F882351F0E1
:102510000E94CF0860935402709355028093560234
:1025200090935702812F2496E4E00C949E350E94EC
:10253000CF080091590210915A0220915B0230910C
:102540005C02600F711F821F931FC0CF4F925F927A
:102550007F928F929F92AF92BF92CF92DF92EF9233
:10256000FF920F931F93CF93DF930F92CDB7DEB7F8
:10257000C62E4A015901482E880F5508C2010E94F3
:10258000EA34782E882309F480C0C20133E0880F32
:10259000991F3A95E1F7FC01E050FF4F438150E06D
:1025A0004115510511F041E050E080509F4FFC0172
:1025B00064817581685B7D4FCE0101960E94EE3586
:1025C000F40140815181628173812FB7F894809129
:1025D0006B0590916C05A0916D05B0916E052FBFB4
:1025E000841B950BA60BB70B84369105A105B1058D
:1025F00040F4B701C8010E9421099981891709F4A3
:1026000044C00C2C000CDD08C6010E94EA34782E70
:10261000811113C0712C872D0F90DF91CF911F91E5
:102620000F91FF90EF90DF90CF90BF90AF909F9071
:102630008F907F905F904F900895C60123E0880FA0
:10264000991F2A95E1F7FC01E050FF4F438150E0CC
:10265000E416F50608F4A70180509F4FFC01648141
:102660007581685B7D4FC5010E94EE35B701C801D9
:102670000E94210999818913CDCF0E94CF08F401CE
:102680006083718382839383C6CFA701B801C5019C
:102690000E94EE35C0CFA5E0B0E0E1E5F3E10C9497
:1026A0007E356B0185E0E82EF12C09E412E09E01F5
:1026B0002F5F3F4F40E452E061E080E00E94A612AD
:1026C000882349F095E0FE013196ABE3B2E001903A
:1026D0000D929A95E1F795E0EBE3F2E0D6010190D7
:1026E0000D929A95E1F72596E8E00C949A3568EEFC
:1026F0007EEF90E080E00E943A3660E082E090E079
:102700000E941C3660E083E090E00E941C3610922C
:102710002F0260E084E090E00E941C3664E082E2D8
:1027200090E00E941C3660E085E090E00E941C363C
:1027300060E086E090E00E941C366FEF87E090E05A
:102740000E941C3640E050E0BA0188E090E00E9410
:102750002E3660E08DE090E00E941C3640E050E0B4
:10276000BA0188E190E00E942E3660E087E190E0B7
:102770000E941C3640E050E0BA018CE190E00E94DB
:102780002E3670E060E080E290E00E943A3640E051
:1027900050E0BA0188E190E00E942E3680E00E946D
:1027A00016100E94AA1040E050E0BA018FE090E0BD
:1027B0000E942E3640E050E0BA0183E190E00E9492
:1027C0002E3608951F920F920FB60F9211242F9359
:1027D0003F934F935F936F937F938F939F93AF93A9
:1027E000BF93EF93FF938091E10082FF09C0809136
:1027F000E20082FF05C08091E1008B7F8093E100C1
:102800008091DA0080FF24C08091D80080FF20C032
:102810008091DA008E7F8093DA008091D90080FF6A
:102820009DC080E189BD82E189BD09B400FEFDCF74
:1028300081E08093880580917205811109C00E9412
:102840000E070E9401088091E20084608093E200FC
:102850008091E10080FF17C08091E20080FF13C0EB
:102860008091E2008E7F8093E2008091E20080619F
:102870008093E2008091D80080628093D80019BCD8
:1028800085E0809388058091E10084FF2BC08091D2
:10289000E20084FF27C080E189BD82E189BD89B55E
:1028A000982F917080FFFBCF8091D8008F7D80930F
:1028B000D8008091E1008F7E8093E1008091E2005A
:1028C0008F7E8093E2008091E20081608093E2003D
:1028D00080917F05882309F447C084E080938805B0
:1028E000809188058091E10083FF27C08091E200FC
:1028F00083FF23C08091E100877F8093E10082E025
:102900008093880510927F058091E1008E7F8093EF
:10291000E1008091E2008E7F8093E2008091E200EE
:1029200080618093E20042E060E080E00E94CF0797
:102930008091F00088608093F000FF91EF91BF914B
:10294000AF919F918F917F916F915F914F913F9147
:102950002F910F900FBE0F901F90189519BC1092D9
:1029600088051092720574CF8091E30087FD93E093
:1029700090938805B5CF78941F921FB61F921124AB
:102980008F939F93AF93BF9380916B0590916C054C
:10299000A0916D05B0916E050196A11DB11D8093AA
:1029A0006B0590936C05A0936D05B0936E05BF9178
:1029B000AF919F918F911F901FBE1F9018959C0102
:1029C0004FB7F89480916B0590916C05A0916D05BF
:1029D000B0916E054FBF821B930B08952FB7F894EB
:1029E00080916B0590916C05A0916D05B0916E057D
:1029F0002FBF08950E94EE149C019091C002809117
:102A0000C102982B21F03093BD022093BC0290911B
:102A1000C2028091C302982B21F03093BB02209315
:102A2000BA02E0916605F0916705309749F082E0BF
:102A30008093BE020480F581E02D8EEB92E0099533
:102A40000895AFE0B0E0E7E2F5E10C9479358E014E
:102A50000F5F1F4F8AE0D8011D928A95E9F78AE738
:102A6000C82E81E0D82EF12CE12CAA24A394B12CFD
:102A700025E8822E21E0922EF60181916F018F3F91
:102A800009F442C0F894E82FE295EF70F0E021A13C
:102A90008F70A50102C0440F551F8A95E2F7CA0145
:102AA000922F982B91A392A18095892382A3789449
:102AB00000C0EFE7F1E0712C31E021912F3F09F4E4
:102AC0006BC0A22FA295AF70B0E090968C9190E071
:102AD0002F7002C0959587952A95E2F780FD5CC01E
:102AE000832F782A330F8E169F0639F7F601319718
:102AF00080818F3F11F00E948B0A50EA5A95F1F7BE
:102B0000F801EE0DFF1D70828FEFE81AF80A95E0CC
:102B1000E916F10409F0B0CF4AE050E0B8018DE5C4
:102B200092E00E94E135009741F02AE0F801ADE51E
:102B3000B2E001900D922A95E1F700916802892B8D
:102B400069F181E0809332020E94EE149093310289
:102B50008093300280913002909131020E94DF1404
:102B6000059700F110E003551D4F45E050E06DE57D
:102B700072E0C8010E94E135C12C892B51F085E03B
:102B8000EDE5F2E0D80101900D928A95E1F7CC24B1
:102B9000C3941092320207C080E0A3CF809132022A
:102BA0008111D8CFC12C0E949F0ED82EE0916802CF
:102BB000DE011B967D01882309F470C085E01D921B
:102BC0008A95E9F70E2F10E003551D4F80915802AA
:102BD0008A3068F54BE453E1B701C8010E946C0EDE
:102BE000882309F44AC04FE55EE1B701C8010E949D
:102BF0006C0E882309F441C04DE352E1B701C801CE
:102C00000E946C0E8823C9F11092580280916702CD
:102C100090E045E050E0B70183559D4F0E94E135BB
:102C200021E020933902892BB1F4D12C20C080916E
:102C30003302909134020E94DF14843F914050F699
:102C400080913902882389F385E0F70111928A95F2
:102C5000E9F710923902A0916702B0E0A355BD4F89
:102C600085E0FE013B9601900D928A95E1F78D2D4E
:102C70008C292F96EDE00C949535809158028F3F6A
:102C800031F08F5F809358028A3008F4BFCF0E94E2
:102C9000EE149093340280933302D2CFF0E0E355E8
:102CA000FD4F85E0A9E4B2E001900D928A95E1F72D
:102CB00065E070E089E492E00E9421098093480277
:102CC0004091810250E06091800270E064587D4F35
:102CD000C7010E94EE358B8580934F0261E070E062
:102CE000C7010E94210980934E028090500290906B
:102CF0005102A0905202B0905302809135029091FF
:102D00003602A0913702B091380288169906AA06B9
:102D1000BB0609F48ACF8092350290923602A092C7
:102D20003702B09238020E949F0ED82E81117DCFBB
:102D30000E94CF08861A970AA80AB90A80925902F7
:102D400090925A02A0925B02B0925C0290CF809166
:102D5000610590916005892B8093B60180912E02C8
:102D6000882319F10E94EE1420912C0230912D023B
:102D7000821B930B8838934110F00E94790C80914C
:102D8000B60190912E02892B8093B60120E088EB4A
:102D900091E0FC013191CF0131112F5FF1E08E3BC9
:102DA0009F07B9F721110E94790C48E050E064E2D6
:102DB00072E086EB91E00E94E135892BA9F088E072
:102DC000E6EBF1E0A4E2B2E001900D928A95E1F722
:102DD000E0916605F0916705309731F00280F3814C
:102DE000E02D86EB91E009950895CF93DF93EC01F8
:102DF000EA85FB85309719F06C857D8509958B8177
:102E00000E94840C8C810E948B0C0E94A71686E085
:102E1000FE0111928A95E9F7DF91CF910895CF9342
:102E2000DF93EC018D8181FD18C082608D838091DC
:102E300060059B81892B80936005809161059C8151
:102E4000892B809361050E94A716E885F985309744
:102E500021F06C857D85CE01099510926305109255
:102E600062058D8180FD03C0CE010E94F516DF91C1
:102E7000CF91089590E080E00E940B0990E080E0FF
:102E80000E94F508109260050E94A71686E0EEEBFE
:102E9000F2E0DF011D928A95E9F71092B8021092D4
:102EA000B7021092B9020E94FA140895809389051E
:102EB0000E943A17089580918905982F9670963050
:102EC00021F488600E9456170895877FFBCF21E088
:102ED00030E001C0220F8A95EAF72095809189059C
:102EE00082230E945617089590912302809589238A
:102EF00080932302282F277091F4282F082E000C8E
:102F0000330B9217130659F090916A0292FF07C093
:102F10008595859585950E9467170E94920C089566
:102F2000CF93C0916A02C2FB992790F9981791F04C
:102F300080FBC2F9C0936A026091690284E090E06C
:102F40000E941C366C2F82E290E00E941C3682E0C8
:102F50000E947417CF91089521E030E001C0220F44
:102F60008A95EAF780918905822B0E945617089569
:102F700080932F020E943A17089510926105E8EBA2
:102F8000F1E086E0DF011D928A95E9F70E943A1789
:102F90000895AAE2B0E0EFECF7E10C94833580E805
:102FA00095E02091F100DC012D93CD01B5E088384A
:102FB0009B07B9F780918105833009F472C0B8F49A
:102FC000813009F449C0823009F4B3C08091E8002F
:102FD00083FF96C280918005909181059A3008F018
:102FE0008FC2E92FF0E0E65AF94C0C94CB358A30C9
:102FF00009F48EC08B3009F471C0893039F78091A3
:103000008005813219F7809184059091850500979C
:1030100011F00297D9F68091E800877F8093E8004D
:103020008091E80082FF38C09091F3008091F20017
:10303000029731F48091F100813011F0863021F453
:103040008091F100809374058091E8008B778093E4
:10305000E8000E94B007BACF80918005813A09F05C
:10306000B5CF8091E800877F8093E8008091840548
:1030700090918505892B61F468E085E795E070E023
:103080000E945C088091E8008B778093E8009ECFD7
:1030900060E090E080E0F3CF809188058111C0CF9F
:1030A00095CF80918005813A09F090CF8091840579
:1030B00090918505892B09F089CF8091E800877F61
:1030C0008093E8008091E80080FFFCCF80913E0172
:1030D0008093F1008091E8008E77B9CF80918005D0
:1030E000813209F073CF8091840590918505892BF9
:1030F00009F06CCF8091E800877F8093E8000E9400
:10310000B0078091820580933E010E94BD175ECF7B
:1031100080918005813209F059CF8091E800877F46
:103120008093E8000E94B007809183058093730527
:103130004DCF80918005813A09F048CF8091E80019
:10314000877F8093E8008091E80080FFFCCF80912A
:103150007305BECF803899F0823809F0D1C18091D3
:1031600084058F70873008F0CBC18093E90080918F
:10317000EB0085FB882780F91092E90006C080915A
:103180007D0590917E05911182609091E800977F76
:103190009093E8008093F1001092F1008091E80094
:1031A0008E77AAC1882309F498C1823009F0A8C19A
:1031B0008091820581119BC1809184058F702FEFD2
:1031C000280F263008F09CC18093E9002091EB0085
:1031D00020FF8DC1933031F48091EB0080628093A9
:1031E000EB0085C19091EB0090619093EB0021E0A2
:1031F00030E001C0220F8A95EAF72093EA0010928E
:10320000EA008091EB008860EACF811179C11091CA
:1032100082051F778091E3008078812B8093E30003
:103220008091E800877F8093E8000E94B00780913A
:10323000E80080FFFCCF8091E30080688093E3008A
:1032400082E0111183E0809388055AC18058823052
:1032500008F056C120918205309183052C3DE3E0B2
:103260003E07A1F583E08A838AE289834FB7F89409
:10327000DE01139620E03EE051E2E32FF0E05093B0
:103280005700E49120FF03C0E295EF703F5FEF70BD
:103290008E2F90E0EA30C0F0C7968D939D932F5FFC
:1032A000243159F74FBF8091E800877F8093E80071
:1032B0006AE270E0CE0101960E945C088091E8000D
:1032C0008B778093E8001CC1C096E7CF809184057E
:1032D00090918505432F55274330510509F44AC085
:1032E00078F54130510509F485C08BE590E0E5E2C1
:1032F000FDE04230510509F003C12091E800277F2D
:103300002093E80020918605309187058217930766
:1033100008F49C0140E02115310509F070C041110D
:103320006EC08091E80082FDC9CF80918805882316
:1033300029F2853019F28091E80083FFF2CFBECFE9
:103340004132510509F447C04232510509F0D8C055
:103350008330910508F0D4C0FC01EE0FFF1FE85543
:10336000FE4F0190F081E02D8B559E4FDC018C913A
:1033700090E01DC0332721303105E9F021153105DA
:1033800079F022303105F9F02330310509F0B8C069
:10339000E2E9FDE0E4918E2F90E0E2E9FDE007C074
:1033A000EAEDFDE0E4918E2F90E0EAEDFDE000977C
:1033B00009F4A6C0A2CFEEEBFDE0E4918E2F90E0E1
:1033C000EEEBFDE0F4CFE0EBFDE0E4918E2F90E03A
:1033D000E0EBFDE0ECCF8330910508F091C0880F61
:1033E000991FFC01E255FE4F0190F081E02D89E02C
:1033F00090E083CF82E190E0E0E8FDE07ECF809135
:103400008805882309F45ACF853009F457CF809175
:10341000E80083FD53CF8091E80082FD82CF809148
:10342000E80080FF78CF9091F3008091F2002115A1
:10343000310519F08830910550F041E0089709F006
:1034400040E08091E8008E778093E80064CF44915B
:103450004093F1003196215031090196E8CF803830
:1034600009F04EC08091E800877F8093E80080914A
:103470007F058093F10092CE811142C010918205A8
:103480001230F0F58091E800877F8093E800109378
:103490007F050E94B007112311F084E005C08091E0
:1034A000E30087FDFACF81E08093880542E061EC7C
:1034B00081E00E94CF0742E261EC84E00E94CF07E6
:1034C00042E261EC82E00E94CF0742E260EC83E0DE
:1034D0000E94CF078091880513C0809182058130BA
:1034E00079F481E0933009F080E080937E051092BA
:1034F000E9008091E800877F8093E8000E94B00790
:103500008091E80083FF0AC08091E800877F809364
:10351000E8008091EB0080628093EB00AA96E3E0E4
:103520000C949F351F920F920FB60F9211242F9378
:103530003F934F935F936F937F938F939F93AF933B
:10354000BF93CF93DF93EF93FF93D091E900DF70A8
:103550008091EC00C82FC17080FDC0E81092E90096
:103560008091F000877F8093F00078940E94C917C3
:103570001092E9008091F00088608093F000CD2BDC
:10358000CF70C093E900FF91EF91DF91CF91BF9190
:10359000AF919F918F917F916F915F914F913F91EB
:1035A0002F910F900FBE0F901F9018950E94BD177E
:1035B0002FEF84E39CE0215080409040E1F700C071
:1035C000000088E19AE00FB6F894A8958093600017
:1035D0000FBE90936000FFCF882321F00E94840CDF
:1035E0000E94A7160895882339F090916005982BC2
:1035F000909360050E94A7160895882321F00E94E9
:103600008B0C0E94A7160895882339F090916105CC
:10361000982B909361050E94A71608958823C9F1FD
:103620009CEF980F913A78F4E8EBF1E091918913CF
:1036300003C0DF0111971C9291E0EE3BF907B1F74F
:103640000E94A716089590E2980F983050F4877062
:1036500091E001C0990F8A95EAF7892F0E948B0C9F
:10366000EFCF9BE5980F933028F490E080E00E9424
:103670000B09089598E5980F973128F490E080E0C1
:103680000E94F5080895803F20F00E945C090E9486
:10369000FA140895CF93C82F8823B1F08CEF8C0FC4
:1036A000813A00F5E8EBF1E08EEB91E0DF012D913E
:1036B000C21761F08A179B07D1F76C2F86EB91E058
:1036C0000E94DB080E94A716CF9108952191C21392
:1036D00003C0DF0111971C928E179F07B9F70E9454
:1036E000A716EBCF80E28C0F883068F4C77021E01A
:1036F00030E001C0220FCA95EAF780916105822B64
:1037000080936105DFCFEBE5EC0FE33040F4F0E0B0
:10371000E95BFE4F808190E00E940B09D5CFE8E580
:10372000EC0FE73150F4F0E0EE0FFF1FE65BFE4FC9
:10373000808191810E94F508C7CFC03F28F28C2F6D
:103740000E94210A0E94FA14BFCF1F93CF93DF93E8
:10375000182FCAE0D0E0893311F4C0E5D0E0812F02
:103760000E944A1B8FE99FE00197F1F700C000001B
:103770002197C1F7812F0E940E1BDF91CF911F91DE
:103780000895B0E0A0E0E7ECFBE10C947E356B011E
:10379000C42FD22FFC0182818823A9F040935F05BA
:1037A0000E94EE1490935E0580935D05C77081E0E2
:1037B00001C0880FCA95EAF70E94041BCDB7DEB797
:1037C000E8E00C949A3510915F05141337C080918E
:1037D0005D0590915E050E94DF147C01C6010E9488
:1037E000CE10E816F90650F5C0E2CD0F1D17C1F056
:1037F00080E2810F883048F4177081E0012E01C00B
:10380000880F0A94EAF70E94FD1AC83048F481E054
:103810009D2F977001C0880F9A95EAF70E94041BAC
:10382000802F0E94A51BC83048F6D77081E001C0E8
:10383000880FDA95EAF70E94FD1AC0CFC77081E0C1
:1038400001C0880FCA95EAF7F6CFB0E0A0E0EBE23E
:10385000FCE10C947B35EC01A62E8AE0982E2881A1
:10386000222309F4A4C0213009F04BC089818130A2
:1038700091F48E010E5F1F4F8A810E94A51BE80103
:1038800021968A2D815058F3EFE9FFE03197F1F747
:1038900000C00000F7CF823039F48E010E5F1F4F59
:1038A0008A810E944A1BEBCF833039F48E010E5F70
:1038B0001F4F8A810E940E1BE2CF843011F02196A7
:1038C000DFCF2A81229690E080E0AE014F5F5F4F0C
:1038D0002053330B2A30310548F0019788F2EFE985
:1038E000FFE03197F1F700C00000F7CF989EB001DC
:1038F000999E700D1124C901860F971F2981EA0135
:10390000E4CFE22FF0E0EB55F34FB490822F869591
:103910008695869590E0FC01EB56F34FE490277076
:10392000F12C022E02C0F594E7940A94E2F731E0FC
:10393000E322FF24FC01EB57F34FC490D12C022E5D
:1039400002C0D594C7940A94E2F7E1E0CE22DD24C8
:10395000FC01EB58F34F049110E002C01595079558
:103960002A95E2F701701127E114F10419F081EEB4
:103970000E944A1BC114D10419F086EE0E944A1B12
:103980008B2D0E94A51BC114D10419F086EE0E9454
:103990000E1BE114F10419F081EE0E940E1B0115BB
:1039A000110509F46DCF8CE20E94A51B69CFCDB73C
:1039B000DEB7EBE00C94973590916A0292FF10C04D
:1039C00098E0899F90011124622B609323020E944A
:1039D000AC170E94EE149093220280932102089566
:1039E0000E94AC170895A7E1B0E0E9EFFCE10C9468
:1039F0008135F62E6D8B7E8B8F8B8A016111109233
:103A000060054E895F89612F802F0E94990C81117A
:103A100034C01A3008F099C0063078F5E02FF0E095
:103A200026E0129FE00DF11D11249F01277033271E
:103A300081E090E001C0880F2A95EAF7DF0143E0BA
:103A4000B695A7954A95E1F7A154BE4F2C913091B8
:103A5000E801F11002C0322F3823332309F498C053
:103A6000AF01440F551FFA01EE56FE4F1491FA01B3
:103A7000EF56FE4F0491822B8C931A8A198A0B8B76
:103A80001C8B85E0FE017396DE011D9601900D9260
:103A90008A95E1F780916A0282FF2CC00E94EE14A1
:103AA0002091210230912202821B930B883893418E
:103AB00020F08091230282FFB7C00E94EE14209173
:103AC0002C0230912D02821B930B8838934110F009
:103AD0000E94790C0E94EE142091C9013091CA0114
:103AE000821B930B8838934128F08091CB01813061
:103AF00009F491C086E0FE013D96DE011796019023
:103B00000D928A95E1F7CE0107960E94B0278111A8
:103B100011C086E0FE013796DE01119601900D92EC
:103B20008A95E1F74A855B8568858F810E94990CAB
:103B3000882389F116E0809120029091EF0189138A
:103B400057C06796E5E00C949D3584E0810F823084
:103B500008F093CFE02FF0E0202F277081E090E075
:103B600001C0880F2A95EAF7DF0193E0B695A79583
:103B70009A95E1F7A254BE4F2C913091E801F110D3
:103B800002C0322F3823332319F0E157FE4F72CF92
:103B90008095822371CF2091EF0130E0C901019619
:103BA00087709927409120024817190699F096E0EE
:103BB000929FD001939FB00D1124A051BE4FFE01E2
:103BC000319601900D929A95E1F78093EF010E9452
:103BD000A40CB0CF0E94BD171092EF0110922002EA
:103BE00086E0E9EEF1E0DF011D928A95E9F7A2CFC8
:103BF000819FC001112480519E4F0E94B0278823CD
:103C000009F49FCF8091200290E001968770992758
:103C10008093200290CF1092CB011092E801109275
:103C2000CA011092C90166CF82E00E94741745CF85
:103C3000AAE0B0E0EEE1FEE10C948235182F062FE9
:103C4000662399F10E94EE141E832DEF2F8321E04D
:103C5000288781609A8789874E815F816885798509
:103C60008A850E94F31C8FE39FE10197F1F700C062
:103C700000000023F9F00E94EE1419832DEF2A832F
:103C80001B8281609D838C8349815A816B817C81F9
:103C90008D810E94F31C8FE39FE10197F1F700C033
:103CA00000002A96E4E00C949E350E94EE141E83D8
:103CB0002CEFCCCF0E94EE1419832CEFE0CFA1E0C3
:103CC000B0E0E5E6FEE10C947D35EE24E394F12CC2
:103CD0000FE412E09E012F5F3F4F44E452E063E0A7
:103CE00082E00E94A612C82E882339F100E080E00D
:103CF0001DC0D0906C02D00E2D2D30E0A90144588B
:103D00005D4F7A01E1E0F0E0EC0FFD1FE00FF11DE7
:103D10001081FA019081191BB12E1B149CF0912F78
:103D200017FD90E0191B111118C00F5F90916B02E5
:103D30000917F8F281110E94760C8C2D2196E9E08A
:103D40000C949935BA94F70180818F5F808360E08D
:103D50008D2D0E94181E8C2DE0CF1F5FF7018081F2
:103D60008150808361E08D2D0E94181E8C2DDBCF49
:103D7000A5E0B0E0EEEBFEE10C9482358C0190936F
:103D8000490380934803011580E21807C0F4802F8F
:103D90000E940E1BC8010E944C0D9801205E310943
:103DA0002830310518F00115110531F40E94FD1A73
:103DB0002596E4E00C949E350E94EC1AF9CF80EF32
:103DC00089838A831B820E94EE148160782F9D83F1
:103DD0008C8349815A816B818D810E94F31CE8CFCD
:103DE0000F931F93CF93DF938C01EB016CEC72E088
:103DF0008C2F0E94BA10892BA1F48FE39CE90197C4
:103E0000F1F700C00000DD27CC53DD4F8881F801B9
:103E1000128218828330F1F048F4813059F08230F8
:103E200081F0DF91CF911F910F9108958430B9F007
:103E30008530B9F78091CC029091CD02009789F33B
:103E400006C08091CE029091CF02009799F30E9414
:103E5000B81EE7CF8091D0029091D102F6CF809129
:103E6000D2029091D302009791F72091CC02309129
:103E7000CD028091CE029091CF0221153105F1F251
:103E8000009729F7C901E3CFA5E0B0E0EAE4FFE13C
:103E90000C9482358C01909349038093480301155B
:103EA00080E21807C0F4C8010E944C0D9801205E02
:103EB00031092830310518F00115110549F40E9427
:103EC000041B802F0E944A1B2596E4E00C949E352B
:103ED0000E94F31AF6CF80EF89838A8381E08B8377
:103EE0000E94EE148160782F9D838C8349815A81D2
:103EF0006B818D810E94F31CE7CFCF93DF93EC01A0
:103F00000E94441F8FE39CE90197F1F700C0000075
:103F1000CE010E94B81EDF91CF9108950F931F9399
:103F2000CF93DF938C01862F6CEC72E00E94BA1065
:103F3000892BB1F4C091CC02D091CD02209781F0B1
:103F4000F8018281833051F4CE010E947D1FCE01A1
:103F50000E947D1FCE010E947D1F02C08430D0F7D9
:103F6000DF91CF911F910F9108950F931F93CF93DE
:103F7000DF938C01EB016CEC72E08C2F0E94BA1085
:103F8000892B09F05CC0FE01FF27D80112968C91A5
:103F90001297EC53FD4F8130B9F415969C9192FF26
:103FA00002C080830AC090FFFCCF82E080838091B2
:103FB000CE029091CF020097B9F48091CC029091FB
:103FC000CD020097E1F110C08230B9F515968C91C1
:103FD00082FD28C080FD0BC083E080838091D002E9
:103FE0009091D102009701F10E94441F28C084E003
:103FF00080838091D2029091D3020097A9F780919B
:10400000CC029091CD020097F9F00E947D1F809123
:10401000CE029091CF02009739F78091CC02909117
:10402000CD02E2CF85E080838091CC029091CD02D9
:10403000009729F00E947D1FF0CF86E08083DF91FA
:10404000CF911F910F9108958091CE029091CF0250
:10405000B8CFA4E0B0E0EFE2F0E20C947A356C0166
:10406000DC0113964D915C91149711966C91119708
:104070008C910E94990C8111EEC061E0C6010E94F2
:10408000EB118C01F60182818823E1F080916205B9
:10409000909163050097B1F00817190799F0FEE0B9
:1040A0008F9FC0011124FC01E552FD4F2081246047
:1040B00020838A529D4FDC010D931C930E940F17A1
:1040C00010926005F6018281882309F4A4C6980144
:1040D00022513F452031310508F0BFC58FEF93E0F5
:1040E0000E940E368111A8C05EEEF52EF00E07E795
:1040F00012E0F11037C019821A821B821C829924A7
:104100009A9478012FEFE21AF20AC8010E940E3643
:1041100089831A82882309F48FC0813009F080C016
:10412000580132E0A30EB11CC7010E940E36E82EE2
:104130008A83882309F480C0C5010E940E36F82EB8
:104140008FEF8E0D8330E0F4580143E0A40EB11CD4
:10415000FB82FF2029F060E0CE0101960E94251C21
:104160008501CFCF0115F4E01F0709F465C0C80130
:104170000E940E36811101C0FA940F5F1F4FB9CF14
:104180008BEF8E0D833030F5C8010396FB825C0106
:10419000FF2031F3580154E0A50EB11C0E940E36E9
:1041A0008C838823E9F28B819C818130AFEF9A0761
:1041B00010F0982F8827B6E0EB1631F0E7E0EE1606
:1041C00031F00E947D1FCCCF0E94441FC9CF0E94B6
:1041D000B81EC6CFF4E0EF12C3CF580124E0A20E00
:1041E000B11CC80103960E940E36FF2029F18823D6
:1041F00019F18150990B989E9001999E300D1124D0
:104200004F2D4150550BCA01820F931F019708F49F
:10421000A7CFAFE9BFE01197F1F700C00000F6CFDC
:104220006AE0CE0101960E94251C570199CF81E0DA
:104230000E94AC170E945B1780912302877059F08F
:10424000F6018281882339F080916A0282FF03C0DF
:1042500082E00E9474172496ECE00C94963581E07D
:104260000E946717E7CF82E0E3CF823009F036C5BE
:104270008091D0029091D102892B09F42FC52EE0B4
:104280002E9DC0012F9D900D1124FC01E552FD4F84
:1042900020812E7F20838A529D4F0E940F171EC5BA
:1042A0002FEFE216F10409F008F418C5033FFCE50E
:1042B0001F07C9F110F5083D3CE5130771F1093DF1
:1042C0004CE5140709F441C0073D5CE5150709F00A
:1042D00052C506E221EE41EE67ED7CE5C6010E9483
:1042E000C11BAACF902F812F42C5F701858181FF85
:1042F00042C5C7010E94F5163EC5053F8CE518076B
:10430000F1F0B8F0063FACE51A0709F034C507E252
:1043100025EE46EE66EF7CE5E1CF07E225EE45EEC1
:1043200068ED7CE5DBCF06E221EE40EE63EF7CE555
:10433000D5CF07E225EE44EE64EF7CE5CFCF06E271
:1043400021EE42EE65EF7CE5C9CF08E221E045EEC3
:1043500069ED7CE5C3CF053A3DE5130709F421C5B6
:10436000E0F401365DE5150709F41BC506318CE55F
:10437000180709F074C5809161058A7A91E009F403
:1043800090E09093C70169E2811165E386EB91E0CB
:104390000E94DB080E94A7164FCFC8018D5A9D4589
:1043A000039720F7FEC480916902806207305CE5C4
:1043B000150791F108F4BFC08091690280642CC098
:1043C0000D309CE5190709F4C4C090F4809169028E
:1043D0008E7F0B30BCE51B07F9F0809169028C6081
:1043E0000C30ECE51E07C0F0809169028D7F14C08F
:1043F0000F30FCE51F0709F4BCC008F4AEC0003163
:104400003CE5130709F4B9C0809169028F7B013143
:104410004CE5140709F0EFC480936902ECC40F3F28
:104420005CE5150709F4B7C0A8F50A3F9CE5190734
:1044300009F479C0C0F40431BCE51B0709F4B9C024
:1044400008F4A5C00531FCE51F0709F0D4C480912C
:10445000690282FB992790F921E0922790FB82F96B
:1044600090FB83F9D9CF0C3F2CE5120709F479C0F2
:1044700008F45DC00D3F4CE5140709F476C0809147
:104480006A0283600E3F5CE5150709F0B4C48093AF
:104490006A02B1C401368DE5180709F495C090F49D
:1044A0000130ADE51A0709F48DC008F478C060E06A
:1044B0000230EDE51E0709F09EC48EE090E00E94F8
:1044C0001C3699C40D3AFDE51F07E9F060F49091A0
:1044D0006902892F8E7F90FF8160053A3DE51307C1
:1044E00009F49ACF88C40E3A4DE5140771F10F3ADA
:1044F0005DE5150709F07FC490916A02892F877FD7
:1045000093FF8860C4CF80916A028860C0CF809199
:104510006902826081CF8091690284607DCF809141
:104520006902886079CF80916A028160B0CF809102
:104530006A028260ACCF8091690280616DCF0E9477
:10454000BD1780916902806867CF80916A02877F7A
:104550009ECF809169028B7F5FCF80916902877FB8
:104560005BCF80916A028E7F92CF80916A028D7FAD
:104570008ECF809169028F7E4FCF809169028F7DAF
:104580004BCF0E94BD17809169028F7745CF8091F4
:104590006902837F41CF80916A028C7F78CF8091BE
:1045A0006A02982F909591708E7F892B90FB81F9EC
:1045B0006ECF0E94BD1790916902892F97FB87F9F2
:1045C00080582ACF61E079CF90916902892F8F7E40
:1045D00094FF806121CF85E334C40E94BD179FEF13
:1045E000A4E3BCE09150A040B040E1F700C000005F
:1045F0000E94BE0880916A0282FB882780F991E0C0
:1046000089270E949017D60112968C9112970D91CE
:104610001C91882309F44BC0C8010E947C11F82E1C
:10462000682FC8010E941F0DB8018F2D0E945211E2
:104630000E94E50A082FF92EA82EF6011281B580F6
:10464000B2943FE0B322809123028770E9F0912E6B
:104650001123D9F0892F807F803449F090E2900FA8
:10466000983090F0803619F4F6EF0F1769F08091CA
:104670006A0282FF09C082E00E94741780912302BF
:104680008770992493948111912C8F2C82942FE020
:1046900082222BE0281508F46EC0E82DF0E0EC59DA
:1046A000F94C0C94CB3581E0ACCF80E0AACFC801A7
:1046B0000E94D50CF82EB8CF3F2D3F70E32E8F2DE2
:1046C000807F19F0E29490EFE9221123B9F0EE20F7
:1046D00069F080E2800F883010F0A11009C080914D
:1046E0006105E82AE09261050E94A716802F41C06B
:1046F00080916005E82AE0926005F6CF802F0E9445
:104700000E1BEE20C1F1005E8E2D083010F0A110BE
:1047100003C00E948B0C02C00E94840C0E94A7164A
:104720002AC04F2D4F70E42E8F2D807F803219F0DC
:10473000E29480EFE822AA2059F051E0A51609F48E
:10474000A3C0112309F4ACC0BB2009F47BC0CECFB9
:1047500080916A0282FD4CC0112309F442C0EE2010
:1047600039F080916105E82AE09261050E94A71660
:1047700080E00E944A1B282D2850330B243031053D
:1047800010F40E94C20E112379F08F2D807F8036A5
:1047900019F436EFA31641F08091CB01823009F075
:1047A00050C283E08093CB019920B1F08091230225
:1047B00080FD12C0D60112961C928595859585952F
:1047C0000E94AC17C6010E94292080912302859582
:1047D000859585950E94671760E0C6010E94EB11E0
:1047E0003ACD80E00E940E1BEE2029F28E2D91CF53
:1047F000112351F1B11006C080912E028E290E9422
:10480000041BB9CF91E0B91211C082FFB4CF8091DF
:104810002E02E82AE81609F4AECF0E94EE14909317
:104820002D0280932C02E0922E02A5CFA5E0BA12B1
:10483000E3CF0E94790C9091C8018E2D892B8913AA
:104840008093C8018E2DDBCFB11003C00E94790C7C
:1048500012C0B1E0BB1213C0809161058E2109F432
:104860008ACF0E94790C9091C8018E2D8095892362
:1048700089138093C8018E2D0E94FD1A7CCFE5E03C
:10488000BE1609F478CFE2CF112329F0F5E0FB152D
:1048900008F471CFD7CF24E02B1508F46CCFEBCF01
:1048A000BB2049F339E3A3120DC04FEF57EE83E06D
:1048B000415050408040E1F700C00000802F0E942E
:1048C0000E1B59CFAFE3BCE91197F1F7F5CF8F2D50
:1048D00086958695837069F0813009F04CCF802FE2
:1048E0009F2D9370111102C090E080E00E94F508A6
:1048F00042CF802F9F2D9370111102C090E080E075
:104900000E940B0938CF802F112329F00E94210A21
:104910000E94FA1430CF0E945C09FACF8F2D837069
:1049200091F5111128CF402F429546954770440FBD
:10493000440F802F8F70042E01C0880F0A94EAF76D
:10494000202F207104FF07C02FE030E001C0220FAC
:104950004A95EAF720953F2D3695369533703230DB
:1049600069F050F440912F02313029F0822B8423DA
:104970000E94B81700CF842B822BFACF282B80916E
:104980002F028227F5CF8695112311F08F2D81708C
:10499000882309F4F0CE402F429546954770440F86
:1049A000440F802F8F70042E01C0880F0A94EAF7FD
:1049B000202F207104FF07C02FE030E001C0220F3C
:1049C0004A95EAF720953F2D36953695337032306B
:1049D00069F050F440918905313029F0822B84230D
:1049E0000E945617C8CE842B822BFACF282B809199
:1049F00089058227F5CFBF2DBF70EB2E112329F03B
:104A00008B2F0E94AC17802FFACE802F0E94FD1AA8
:104A10008E2D0E946717AFCE802FE2EFAE16B1F158
:104A2000EA1570F0F0EFAF16D1F021EFA21691F079
:104A3000112309F467C0B11059CE8F2D8F712AC090
:104A400033EFA31651F144EFA412F2CF80916A0222
:104A500082FD2FC08F2D8F711123D9F21BC011231E
:104A600081F054E05B1508F486CE2F2D2F7181E084
:104A700090E001C0880F2A95EAF79091890589276F
:104A8000AFCF85E08B1508F476CEEFCF8F2D8F71E9
:104A90001111BFCF0E94AC176ECE80E0112309F434
:104AA0009FCF81E09F2D9F7101C0880F9A95EAF7F3
:104AB00097CF1123D1F0809123028770843041F485
:104AC0000E94920C8F2D8F710E946717912C53CEEC
:104AD00094E09B15D8F30F2D0F71802F0E94AC1717
:104AE00063E0802F0E94DC1CF1CFA4E0AB1530F412
:104AF0000E94920C64E08F2D8F71F4CF81E00E94B0
:104B00007417E4CFBB2079F0893341F4BFEFE7EEAF
:104B1000F3E0B150E040F040E1F7CECE8FE39CE906
:104B20000197F1F7C9CE8F2D8F7173CFE0E1E00FC0
:104B3000E73008F05BC0F0E0E059F94C0C94CB355D
:104B4000112309F418CE8091E80191E0892705C06E
:104B50001093E80110CE81E081278093E8010BCE0D
:104B600081E01123D1F307CE111105CE1092E80197
:104B700002CE1123C1F082E08093CB0181E08093CB
:104B8000E8010E94EE149093CA018093C90120911C
:104B9000210230912202232B09F4EDCD90932202C1
:104BA00080932102E8CD8091CB01823021F481E015
:104BB0008093CB01E0CD833009F0DDCD1092CB01A5
:104BC0001092E8011092CA011092C901D4CD1123AC
:104BD00041F08091E701882309F4B5CF1092E701F5
:104BE000CACD94E09B1508F4C6CDADCF8091E70106
:104BF000BB20D9F0882341F08091E80191E089271A
:104C00008093E8011092E701111170CDAFE3BCE988
:104C10001197F1F700C00000802F0E940E1B86E064
:104C2000F60111928A95E9F7A6CD882309F4A3CD60
:104C30001111A1CD8091E80191E089278093E801CD
:104C4000CDCF813009F0B0CD1092CB011092E801A8
:104C50001092CA011092C901A7CD0031BFE51B0710
:104C600009F4E5CA0131EFE51E0709F4FCCA780131
:104C7000E7E5FE1A811114CBFFEFEF16F10411F0F6
:104C800008F014CB6CEC72E08E2D0E94BA10892BC8
:104C900029F58EE08E9DF0018F9DF00D1124EA52D2
:104CA000FD4F8281813009F0E0CA8091CC02909161
:104CB000CD02892B99F08091CE029091CF02892B61
:104CC00069F08091D0029091D1022091D20230916E
:104CD000D302822B932B892B09F4D1CA5801BB2410
:104CE0003EE0039FF0011124AF014A525D4F7A016B
:104CF000D60112968C91E552FD4F908180FB90F980
:104D00009083882309F4F1CA0E94EE1490937B02E9
:104D100080937A02D70112968C9112978F5F129628
:104D20008C9312978091600590916105892B139661
:104D30008C93139780912E0214968C931497169649
:104D4000ED91FC911797309729F01C966D917C910D
:104D5000C70109958EE08A9DF0018B9DF00D11240D
:104D6000EA52FD4F858181FFBDCA90E080E09093BB
:104D7000620580936305F6018281882309F457C098
:104D800010925F050330FDE51F0708F0E4CA0A3FF3
:104D90002CE5120730F4C80182509C45449708F076
:104DA000E5CA0E942F1290936A0280936902023131
:104DB0008CE5180709F4E5CB08F031CB0930ACE5F8
:104DC0001A0709F4BCCB08F0FBCA0530ECE51E0756
:104DD00009F4A5CB08F0E7CA03302CE5120709F463
:104DE00096CB08F098CB80916902816002304CE547
:104DF000140709F411CB6091690210916A0284E0F2
:104E000090E00E941C36612F82E290E00E941C36E6
:104E10000E94BD1711CA0031FFE51F0709F41FCA20
:104E200001312FE5120709F022CF82E019CA0631BD
:104E3000BCE51B0709F0E7CB8091C7018111CBCB03
:104E400089E2E8EBF1E02EEB31E09191891303C0A8
:104E5000DF0111971C922E173F07B9F79BCA0A353D
:104E6000EDE51E0709F41FCC68F401152CE51207C7
:104E700009F4B3CB0E3D1C4509F0C5CB0E94771356
:104E80000E94D61A0C354DE5140709F4B3CB08F48B
:104E90000CCC073A1D45A1F3B6CBB0E0A0E0E3E5AA
:104EA000F7E20C947D358091EE01807F09F050C0CF
:104EB0008091EB01882309F44BC0C091200286E069
:104EC000B82E8091EF018C1709F442C0F090E901EF
:104ED000E090EA01C090EC01D090ED01A6016E2DAA
:104EE0008F2D0E94990CD0E0811137C0BC9E8001AB
:104EF000BD9E100D1124F801E051FE4F81818E11ED
:104F00002CC080818F1129C08281811126C0E3804D
:104F1000F480EC18FD0860E089EE91E00E94EB114E
:104F20000E94CE10E816F906C0F48091EE018F7051
:104F300080618093EE01F801EB50FE4F80818F700D
:104F40008061808389EE91E00E9429200E94A40C58
:104F5000CDB7DEB7E9E00C9499352196C770B1CF93
:104F6000A1E1B0E0E6EBF7E20C9476358C0185E048
:104F7000F801DE011D9601900D928A95E1F7F80186
:104F8000E28089EEA82E81E0B82E8090EC0190900E
:104F9000ED01A4016091EA018091E9010E94990C60
:104FA000682E81116EC1F801C380D480F090EB01AE
:104FB000C601881999094C01FF2009F41EC14080DF
:104FC000518060E0C5010E94EB110E94CE107090EC
:104FD000EE018816990608F0C9C04091EC01509185
:104FE000ED01B090E901A090EA01872D807F6A2D44
:104FF00009F077C08B2D0E94990CFE2C81111BC0EB
:10500000F80181818A1117C080818B1114C0E110D1
:1050100012C0872D8F7080618093EE0189EE91E040
:105020000E9429208091EE01F80185838F2D6196E1
:10503000E0E10C949235A601652D842D0E94990C17
:10504000811123C081E08E25F82FF170DF2E80FFC3
:105050003EC0809120022091EF0136E0821317C0FC
:105060004D865E868D859E850E94AB11292F2295E7
:105070002F70223000F1243028F59F7001F1F801E3
:105080009581907FE1F4F62CD1CF80E0DDCF90E0E8
:10509000389FF001399FF00D1124E051FE4F4181FE
:1050A000541206C04081441203C04281E4120FC072
:1050B00001968770D3CF9F7011F0882321F3805E13
:1050C000883008F3C8010E9429206D2CDCCFEE2027
:1050D00009F4ACCF8091EE0181608093EE01F12C58
:1050E000A5CF8B2D0E94990C811116C0F8018181EA
:1050F0008A1112C080818B110FC0E1100DC0758222
:10510000C8010E94292086E0F801A9EEB1E00190D3
:105110000D928A95E1F78ACFC8010E94B8118823C1
:1051200009F1EE20F9F08091EE01803270F02091CB
:10513000E9013091EA0138872F831986DB86CA8618
:105140008C87CE0107960E94292086E0F801A9EEFF
:10515000B1E001900D928A95E1F70E944D27FF245E
:10516000F39464CFC8010E942920F9CF872D807F56
:1051700051F489EE91E00E94292086E0F501119218
:105180008A95E9F7ACCF9090E9018090EA014091CF
:10519000EC015091ED01682D892D0E94990C81112F
:1051A00013C0F801818188110FC0808189110CC062
:1051B000E1100AC07582C8010E94292086E0F5012D
:1051C00011928A95E9F732CFC8010E94B81188235D
:1051D00049F2EE2039F28091EE01803208F4B5CF29
:1051E0002091E9013091EA013A8329831B82DD8213
:1051F000CC828E83CE010196A6CF60E089EE91E04D
:105200000E94EB110E94CE1088169906B8F6FE2C6B
:10521000EE2009F4A7CFE090E901D090EA01409197
:10522000EC015091ED016D2D8E2D0E94990C811194
:105230001AC0F80181818D1116C080818E1113C0B2
:105240008091EE0180FD5FCF982F907F09F45BCFB6
:105250008583903F09F454CF982F907F905F8F7093
:10526000892B85834DCFC8010E94B81181116DCF64
:105270008091EE0181608093EE01C8010E94292097
:10528000D5CEEE2009F46ECFC8010E94B811F82ED9
:10529000882309F467CF86E0F801A9EEB1E0019018
:1052A0000D928A95E1F78091E9019091EA010E94BF
:1052B000AB1192959F70963051F4863F41F08091EA
:1052C000E80191E089278093E8019093E7010E942B
:1052D0004D27ACCE1F921FB61F9211248F939F9320
:1052E000AF93BF9380916A05811113C080916B05C4
:1052F00090916C05A0916D05B0916E054196A11D30
:10530000B11D80936B0590936C05A0936D05B093D0
:105310006E05BF91AF919F918F911F901FBE1F90FF
:105320001895CDB7DEB7E9970FB6F894DEBF0FBE7C
:10533000CDBF85B7806885BF85B7806885BF84B7D6
:10534000877F84BF0FB6F894A8958091600088612C
:1053500080936000109260000FBE80E890E00FB66E
:10536000F89480936100909361000FBE89E89AE001
:105370009093B5018093B4010E9437090E940E07F3
:105380000E9401088091E20084608093E20078949A
:10539000809188058823A1F01091E9001F709091F9
:1053A000EC00892F817090FD80E8182B1092E900A5
:1053B0008091E80083FD0E94C9171F701093E900D7
:1053C00082E084BD93E095BD9AEF97BD80936E0017
:1053D0001092590210925A0210925B0210925C02D3
:1053E0000E941612811102C00E94AA100E949F0EF4
:1053F000809328010E949F0E81110E94FE338091AC
:1054000028018091280195E0811190E09093680235
:1054100085E0891B809367020AE711E09FE7E92E88
:1054200091E0F92ED8018D918D018F3F11F00E94EE
:105430008B0AE016F106B1F70FE711E0F801819150
:105440008F018F3F11F00E948B0AF1E005381F0792
:10545000A9F78AE0EDEAF2E0DF01282F1D922A95F4
:10546000E9F7EDE5F2E0DF011D928A95E9F790E0BA
:1054700080E00E941636883E9E4F21F40E9416124C
:10548000811102C00E94771382E090E00E940E36E4
:1054900080936F020E942F1290936A028093690298
:1054A0000E942115EFE3FCE93197F1F700C00000FD
:1054B0000E9421158091AD0280FF08C06FEF7FEF41
:1054C00090E080E00E943A360E94BE0883E090E0BF
:1054D0000E940E360E94B8170E949F0E882309F47E
:1054E000A6C083E08093A40280FDA3C080E88093DF
:1054F0004C030E94B8326DE070E08CE192E00E94B3
:105500007D0D892BE9F58091A40263E070E081FDB7
:1055100092C089E192E00E947D0D892B89F56DE0B2
:1055200070E089E092E00E947D0D892B49F50E9490
:10553000CF08605A75418F4F9F4F60935705709306
:1055400058058093590590935A05EFE4F3E080E005
:1055500092E0DF019C011D9221503040E1F7F09371
:105560005605E09355058FEF9FEF90934E03809380
:105570004D0381E080935C0580935B051092A5024A
:105580009091280181E0982790938002382F391B51
:1055900030936C02909128018093810290912801B0
:1055A00080936B0280912801811106C084EF809363
:1055B000360185EF8093350120913601E22FE29587
:1055C000EF70F0E061A12F7081E090E0AC0101C0CC
:1055D000440F2A95EAF7342F3095362331A322A1C0
:1055E000242B22A320913501E22FE295EF70F0E009
:1055F00031A12F7001C0880F2A95EAF7982F909556
:10560000932391A392A1892B82A38FE891E0019724
:10561000F1F700C000001091810262E872E046E3F9
:1056200051E085E3E82E81E0F82EFB012FC080E0F9
:1056300059CF80E25CCF86E192E06DCFDA012D9107
:10564000AD01822F82958F7090E0DC0190968C9155
:1056500090E02F7002C0959587952A95E2F78170AA
:10566000D7019D917D01292F22952F7030E0D9011E
:1056700090962C9130E09F7002C0359527959A95B1
:10568000E2F790E020FD92E0892B81938E2F861B1C
:105690008117A0F20E949F0E811102C00E94013466
:1056A00089E291E090936705809366058DEA92E028
:1056B000BAE0B80FBFAB80918805853069F480E40B
:1056C000F82E00E112E180918805853009F457C079
:1056D0000E94BD170E94C20E0E94211510E7E12E04
:1056E00012E0F12E0DEA202E02E0302E2AE732E001
:1056F000D101F70191918D912E173F0709F478C0E0
:105700009817C1F30E949F0E882EBDEACB2EB2E0FF
:10571000DB2E10E0D6010D916D01F70191907F0114
:10572000901629F19026B12CAA24A394892D8A21C0
:10573000B1F08820A1F0B8AA19AB91E0802F8A219E
:1057400009F490E09AAB0E94EE148160782F9CAB34
:105750008BAB48A959A96AA98CA90E94F31CB394E0
:10576000AA0CF6E0BF12E2CFF701319700831F5F6A
:105770001A3081F60E94CF08EE24E3945AC080913B
:105780008805843029F10E94A70D10926A05E8E18E
:10579000F0E00FB6F894A895E09360000FBEF09289
:1057A000600083B7817F846083BF83B7816083BFDC
:1057B0007894889583B78E7F83BF0FB6F894A895A9
:1057C00080916000886180936000109260000FBE3D
:1057D00080917E05882309F476CF0E942115EDEA99
:1057E000F2E0819181119BC62FA92E13FACF6BCFC6
:1057F000981388CF0E94EE148C0180916D029091D5
:105800006E0208171907A1F08FEF8BA78CA71DA6B2
:105810000E94EE148160782F9FA78EA74BA55CA5F0
:105820006DA58FA50E94F31C10936E0200936D026C
:10583000E12C0E949F0E882321F1009162051091B6
:10584000630501151105E9F080917A0290917B02C0
:105850000E94DF146C01C8010E94CE108C159D05BA
:1058600080F4809162052EE0829FC0011124FC012A
:10587000E552FD4F208122FD04C08A529D4F0E94B7
:105880000F17C12CF12C6EC00C2D10E0F801EA5C52
:10589000FE4F8081E82FE295EF70F0E0E0A1F0E0AC
:1058A0008F7002C0F595E7958A95E2F7E170D8010F
:1058B000AB5CBE4F2C91A22FA295AF70B0E090963A
:1058C0008C9190E02F7002C0959587952A95E2F70C
:1058D00080FD9CC180E08E2BD801AE57BD4FEC916E
:1058E0009E2F93708917E9F1EE0FEE0FE82BEC93E2
:1058F000D0908002DC0CEF70F0E0EB57FE4F0258C6
:105900001D4F8081D8019C91890F8C9320E08230BB
:1059100064F0ED2DF0E0E458FD4F80818F5F8083CF
:1059200060E08D2D0E94181E21E0F80180818F3FDC
:1059300064F4ED2DF0E0E458FD4F808181508083C8
:1059400061E08D2D0E94181E21E0D8018C91082E57
:10595000000C990B62E070E00E94B735F80180837B
:10596000F22AC39480918102C81608F48DCFF110F9
:105970000E94760C80915C05882351F18091A602EB
:105980009091A7020E94DF14C29708F041C12091B4
:105990004D0330914E032115310509F0A5C18091C9
:1059A0005B058823A9F00E94CF080091570510914C
:1059B00058052091590530915A05601B710B820BD7
:1059C000930B6F3F7F4F8F4F9F4710F40E94A70D9F
:1059D000E11001C0F1100E94C20D86E0EEEBF2E092
:1059E0008E010F5F1F4FD80101900D928A95E1F74C
:1059F0001092C0021092C1021092C2021092C30211
:105A00008B819C81892B09F44AC08091BC029091C2
:105A1000BD020E94DF149C019091B802992309F401
:105A2000A2C525313105D8F19F3F19F09F5F9093B2
:105A3000B802FB80FF2059F00E94010A9FEF1F145B
:105A40000CF491E0899F802D11248093C002FC808A
:105A5000FF2059F00E94010A9FEF1F140CF491E0FF
:105A6000899F802D11248093C1023091C00233237D
:105A7000B1F02091C102222391F045EB3403C00123
:105A80001124992309F406C29093C00245EB240324
:105A900090011124332309F401C23093C1028D8196
:105AA0009E81892B09F44AC08091BA029091BB0271
:105AB0000E94DF149C019091B702992309F44EC50E
:105AC00021353105D8F19F3F19F09F5F9093B702C0
:105AD000FD80FF2059F00E94DF099FEF1F140CF496
