:100000000C9463060C9480060C9480060C944A3180
:100010000C9480060C9480060C9480060C94800648
:100020000C9480060C9480060C94601A0C941C1A94
:100030000C942F280C9480060C9480060C94800657
:100040000C9480060C9480060C9480060C94800618
:100050000C9480060C94391B0C9480060C9480063A
:100060000C9480060C9480060C9480060C948006F8
:100070000C9480060C9480060C9480060C948006E8
:100080000C9480060C9480060C9480060C948006D8
:100090000C9480060C9480060C9480060C948006C8
:1000A0000C9480060C9480060C948006050109804F
:1000B000A101850319012AB700150126B700950192
:1000C00075108100C0050C0901A101850419012AE0
:1000D000A002150126A002950175108100C00660DE
:1000E000FF0961A1010962150026FF00952075082E
:1000F00081020963150026FF00952075089102C052
:1001000005010906A101050719E029E715002501E8
:10011000950875018102950175088101050719008F
:1001200029FF150026FF00950675088100050819AE
:10013000012905950575019102950175039101C08D
:100140000005010502050305040505050006010675
:100150000206030604060506000701070207030757
:100160000407050700080108020803080408050839
:100170000009010902090309040905090000010039
:100180000200030004000500000101010201030157
:100190000401050100020102020203020402050239
:1001A0000003010302030303040305030004010425
:1001B0000204030404040504000000000000000021
:1001C000000000000000000000000000000000002F
:1001D0000000000000000000000000007E0F00D4BE
:1001E000FFFFFFC7000000780000000000000000D3
:1001F0002A2B280000000000000000000000000082
:1002000000000029000000002C1E3420212224348C
:100210002627252E362D3738271E1F20212223245E
:1002200025263333362E37381F0405060708090AFA
:100230000B0C0D0E0F101112131415161718191A96
:100240001B1C1D2F3130232D350405060708090A14
:100250000B0C0D0E0F101112131415161718191A76
:100260001B1C1D2F3130354C00DA0281FFD9F1DB28
:1002700020A4A62EAF00A0C000A1C800AED580A8C3
:100280001FD300408D14200000047F3F1F643214F0
:10029000643214783C1E1E140A054350534C4B0024
:1002A0000A00556E646566004C330A004C320A0041
:1002B0004C310A00426173650A004C4159455200B5
:1002C0000A00808182838485868788898A8B8C8DC9
:1002D0008E8F9091929394A0A1A2A3A4A5A6A7A863
:1002E000A9AAABACADAEAFB0B1B2B3B4C0C1C2C3DA
:1002F000C4C5C6C7C8C9CACBCCCDCECFD0D1D2D346
:10030000D400000101010101010101010202020208
:1003100002020202020303030303030303040404AF
:100320000404040405050505050606060606070778
:1003300007070708080808090909090A0A0A0B0B30
:100340000B0C0C0C0D0D0D0E0E0E0F0F0F101011CF
:100350001111121213131414151516161717181855
:1003600019191A1A1B1B1C1D1D1E1E1F20202122BD
:1003700022232424252626272829292A2B2C2D2D03
:100380002E2F30313232333435363738393A3B3C20
:100390003D3E3F404142434445464748494A4C4D13
:1003A0004E4F50515354555658595A5B5D5E5F61DC
:1003B0006264656668696B6C6D6F7072737577786F
:1003C0007A7B7D7E8082838587888A8C8E8F9193CD
:1003D0009596989A9C9EA0A2A3A5A7A9ABADAFB1F4
:1003E000B3B5B7BABCBEC0C2C4C6C9CBCDCFD1D4D9
:1003F000D6D8DBDDDFE2E4E7E9EBEEF0F3F5F8FA7F
:10040000FDFFFFAA7F55402223252628292A2C2DCF
:100410002F3032333536383A3B3D3E404243454734
:10042000494A4C4E5051535557595A5C5E6062646C
:100430006668696B6D6F71737577797B7D7F81837A
:100440008587898A8C8E90929496989A9C9E9FA17B
:10045000A3A5A7A8AAACAEAFB1B3B4B6B8B9BBBC9C
:10046000BEBFC1C2C3C5C6C7C9CACBCCCDCED0D111
:10047000D2D2D3D4D5D6D7D7D8D9D9DADADBDBDB09
:10048000DCDCDCDCDCDDDDDDDDDCDCDCDCDCDBDBAA
:10049000DBDADAD9D9D8D7D7D6D5D4D3D2D2D1D0FE
:1004A000CECDCCCBCAC9C7C6C5C3C2C1BFBEBCBBFB
:1004B000B9B8B6B4B3B1AFAEACAAA8A7A5A3A19F73
:1004C0009E9C9A98969492908E8C8A898785838137
:1004D0007F7D7B79777573716F6D6B696866646218
:1004E000605E5C5A5957555351504E4C4A494745E6
:1004F0004342403E3D3B3A3836353332302F2D2C87
:100500002A29282625232207087F0807003E5B4F5B
:100510005B3E003E6B4F6B3E001C3E7C3E1C001859
:100520003C7E3C18001C577D571C001C5E7F5E1CE7
:100530000000183C180000FFE7C3E7FF0000182484
:10054000180000FFE7DBE7FF0030483A060E002600
:100550002979292600407F05050700407F05253FB2
:10056000005A3CE73C5A007F3E1C1C0800081C1C3B
:100570003E7F0014227F2214005F5F005F5F000651
:10058000097F017F00006689956A00606060606095
:100590000094A2FFA2940008047E04080010207EAC
:1005A00020100008082A1C0800081C2A0808001E41
:1005B00010101010000C1E0C1E0C0030383E38308D
:1005C00000060E3E0E060000000000000000005F66
:1005D000000000000700070000147F147F140024AF
:1005E0002A7F2A12002313086462003649562050DD
:1005F00000000807030000001C2241000000412207
:100600001C00002A1C7F1C2A0008083E0808000065
:1006100080703000000808080808000000606000D2
:10062000002010080402003E5149453E0000427F70
:100630004000007249494946002141494D330018A4
:1006400014127F10002745454539003C4A4949317D
:1006500000412111090700364949493600464949F8
:10066000291E0000001400000000403400000000BB
:100670000814224100141414141400004122140818
:10068000000201590906003E415D594E007C1211DD
:10069000127C007F49494936003E41414122007F9A
:1006A0004141413E007F49494941007F0909090113
:1006B000003E41415173007F0808087F0000417FE0
:1006C0004100002040413F01007F08142241007F8B
:1006D00040404040007F021C027F007F0408107FE2
:1006E000003E4141413E007F09090906003E41515B
:1006F000215E007F09192946002649494932000335
:10070000017F0103003F4040403F001F2040201F69
:10071000003F4038403F006314081463000304782E
:100720000403006159494D4300007F4141410002EB
:100730000408102000004141417F0004020102042E
:10074000004040404040000003070800002054548F
:100750007840007F28444438003844444428003816
:100760004444287F0038545454180000087E09027D
:100770000018A4A49C78007F080404780000447D3D
:100780004000002040403D00007F10284400000051
:10079000417F4000007C04780478007C08040478E1
:1007A00000384444443800FC182424180018242439
:1007B00018FC007C08040408004854545424000425
:1007C000043F4424003C4040207C001C2040201C6E
:1007D000003C4030403C004428102844004C90909D
:1007E000907C004464544C440000083641000000F2
:1007F00000770000000041360800000201020402F8
:10080000003C2623263C0000000000000040404041
:10081000F0F8F8FF38FFF8F83FF8F8FF38FFF8F87D
:10082000F040404000000000000080C0C0C08000D8
:1008300000C0C08000000080C0C000C0C0000080B8
:10084000C0C00000000000C0C0C0C0C000C0C000E8
:100850000000000000000000000000000000000098
:100860000000000000000000000000000000000088
:100870000000000000000000000000000000000078
:10088000000000000000C0F0F8FC3E1E0601000061
:10089000007F4141417F007F4141417F000080C096
:1008A000E07E5B4F5BFEC00000C000DCD7DEDEDE1A
:1008B000D7DC00C0000000000000000000000000C5
:1008C000000000000000000000000000004949494D
:1008D000FFFFFFFFE0DFBFBF00BFBFDFE0FFFFFFA5
:1008E000FF49494900000000001F3F6060E0BF1F52
:1008F000007F7F071E381E077F7F007F7F0E1F3B14
:10090000716000000000007F7F0C0C0C007E7E00F8
:100910007F7E0303007F7E03037E7E03037F7E00D2
:100920000F3E703C063C703E0F00327B49493F7ED3
:10093000007F7E0303001E3F69696F2600000000F0
:10094000000000000000030F1F3F3C7870600000B3
:10095000007F4141417F007F4141417F00307B7FEB
:100960007830202030787F3B0003000F7F0F0F0F7F
:100970007F0F0003000000000000000000000000E6
:100980000000000000000000000000000001010164
:10099000070F0F7F0F7F0F0F7E0F0F7F0F7F0F0F40
:1009A000070101010000000000000000000001013B
:1009B0000000000000000000000000000000000037
:1009C0000000000000000000000000000000000027
:1009D0000000000000000000000000000000000017
:1009E0000000000000000000000000000000000007
:1009F00000000000000000000000000000000000F7
:100A000000000000000000000000000000000000E6
:100A100000000000000000000000000000000000D6
:100A200000000000000000000000000000000000C6
:100A300000000000000000000000000000000000B6
:100A40000000000000000000AF00AE35001E001FD7
:100A500000200021002200290014001A00080015BF
:100A60000017002B0004001600070009000A00E12F
:100A7000001D001B00060019000500E300E200E075
:100A80000002512800A80035002700260025002478
:100A90000023002A00130012000C0018001C003470
:100AA0000033000F000E000D000B00E5003800378A
:100AB00000360010001100E700E600E40003512CAE
:100AC00000000035001E001F002000210022002928
:100AD0000014001A00090013000A002B000400157E
:100AE00000160017000700E1001D001B000600199A
:100AF000000500E300E200E00001002800A8003546
:100B000000270026002500240023002A0033001CB3
:100B10000018000F000D00340012000C0008001136
:100B2000000B00E50038003700360010000E00E72B
:100B300000E600E40001002C00000001003A003B48
:100B4000003C003D003E0035001E001F002000213B
:100B500000220001001E021F0220022102220201C7
:100B6000002E002D002E022F023002010001000194
:100B70000001000100010044004300420041004028
:100B8000003F0045002700260025002400230031F7
:100B9000022702260225022402230201003100332B
:100BA00002330030002F00010001000100010001AC
:100BB000000100010001000100010001000100012D
:100BC00000490046006500000000000100E200E06E
:100BD00000E1000000390001007A007B007C007D0C
:100BE00000000001000100010001000100010001FE
:100BF00000010001000100010001002A00010001C4
:100C000000520001004B002A004C004F00510050E0
:100C1000004E000100000001000000010000000182
:100C2000000100010001000100010009025B000356
:100C30000100A0FA090400000103010100092111CB
:100C40000100012240000705810308000109040199
:100C50000002030000000921110100012222000707
:100C60000582032000010705030320000109040297
:100C700000010300000009211101000122320007D8
:100C8000058403200001120100020000000832FC6C
:100C900087020100010200010C0353006F0066008F
:100CA0006C00650000001A034A006F0073006500C5
:100CB00066004100640061006D00630069006B0024
:100CC00000000403090411241FBECFEFDAE0DEBFE9
:100CD000CDBF11E0A0E0B1E0EAECF7E602C005907C
:100CE0000D92A43EB107D9F726E0A4EEB1E001C011
:100CF0001D92A530B207E1F70E9456280C94B33339
:100D00000C940000E8EDF0E080818E7F80831092EB
:100D1000E2001092DA001092E100A0EEB0E08C91B7
:100D200081608C9380818F77808319BCA7EDB0E0C0
:100D30008C918E7F8C9380818F7E80831092EA05C8
:100D400008952091E4003091E50095E6A9012091F5
:100D5000EC00822F817020FF06C08091E80080FFA8
:100D600006C080E008952091E80022FD1AC080911D
:100D7000F705882389F0853089F08091EB0085FDA7
:100D80000FC02091E4003091E50042175307F9F2BB
:100D90009150E1F684E0089582E0089583E008959B
:100DA00081E00895EF92FF920F931F93CF937C0100
:100DB0008B010E94A106C82F811117C08091E80005
:100DC00085FD0BC08091E8008E778093E8000E943B
:100DD000A106882399F3C82F08C0F70181917F01EC
:100DE0008093F1000150110949F78C2FCF911F9189
:100DF0000F91FF90EF9008958091F90587FF13C040
:100E00008091E80082FF06C08091E8008B77809394
:100E1000E80004C08091F7058111F2CF0895809118
:100E2000F7058823D9F38091E80080FFF8CF8091FF
:100E3000E8008E77ECCF982F9093E900242F762F3F
:100E400050E0891731F07091EC002091ED00509145
:100E5000F00021FD07C09F5F973071F78093E90094
:100E600081E008953091EB003E7F3093EB003091AC
:100E7000ED003D7F3093ED003091EB003160309319
:100E8000EB007093EC002093ED005093F000209164
:100E9000EE0027FDE0CF80E00895B0E0A0E0E3E5BC
:100EA000F7E00C948432C8EDD0E088818F7E88838F
:100EB000E7EDF0E080818160808384E082BF81E0A3
:100EC0008093EA0588818E7F888302EE10E0F80126
:100ED00010821092DA0081EEC82ED12CF601108219
:100EE00088818F77888388818068888388818F7DD7
:100EF000888319BC1092F7051092F8051092F60538
:100F00001092F50590EEE92EF12CF70180818B7F90
:100F1000808388818160888342E060E080E00E9475
:100F20001B07F60180818E7F8083F80180818160BC
:100F30008083808188608083F70180818E7F8083B9
:100F4000888180618883CDB7DEB7E8E00C94A03259
:100F5000FC018091FF059091000686179707A0F08D
:100F60006115710529F49091E8009E779093E8004F
:100F700090E06115710551F4911108C08091E8006D
:100F800082FF34C080E00895BC01F2CF8091F70564
:100F90008823C1F18530C1F18091E80083FD30C024
:100FA0008091E80082FDEACF8091E80080FFE1CFE8
:100FB0008091F3002091F200382F6115710519F02E
:100FC0002830310558F091E02830310509F090E0E3
:100FD0002091E8002E772093E800CBCF8191809379
:100FE000F100615071092F5F3F4FE7CF8091F70506
:100FF000882341F0853041F08091E80083FFBECF27
:1010000081E0089582E0089583E0089508950895A9
:1010100008958091EC05089587E797E7909301087C
:101020008093000888E19AE00FB6F894A895809321
:1010300060000FBE90936000FFCF2FB7F8946091CF
:10104000E3057091E4058091E5059091E6052FBFD9
:1010500008959C01FC0132969FEF80E04191461774
:1010600051F09F3F19F4411101C0982F8F5F8630D6
:10107000A9F79F3F09F40895290F311D97FD3A956F
:10108000F901628308952091E0053091E105281768
:10109000390771F09093E1058093E005E091DE055A
:1010A000F091DF05309721F00084F185E02D09955E
:1010B00008952091DC053091DD052817390771F07E
:1010C0009093DD058093DC05E091DE05F091DF056E
:1010D000309721F00680F781E02D09950895FC01F5
:1010E000680F791F8FEF91E32191822728E030E08C
:1010F00087FF09C0880F892721503109C9F7E617F2
:10110000F70791F70895880FF7CFFA01811101C011
:10111000FB0109950895EEEEF2E011828281846070
:10112000828308958091C603982F9E7F61F4817019
:1011300082608093C6038091C903893718F088E7DD
:101140008093C90308958A34B0F381708864F1CF25
:10115000AF92BF92DF92EF92FF920F931F93CF93C4
:10116000DF93082F162FE901E42FF0E0EE5FFC4F2C
:10117000611110C0E4915E2F4E2F4983E8835A839A
:10118000DF91CF911F910F91FF90EF90DF90BF9073
:10119000AF900895E62EF12C4491D42EE42FF0E088
:1011A00026E0829FC00111242FEF30E0B9010E9498
:1011B0006632802F90E0880F991F55E5569FD00129
:1011C000579FB00D11248A1B9B0B982F990F890FE5
:1011D0005901AE18BF08AE9ED001AF9EB00DBE9EA5
:1011E000B00D11245B2F189F80011124012F1127AE
:1011F0005901A01AB10AAE9E8001AF9E100DBE9E8D
:10120000100D11245901A81AB108AE9CC001AF9C61
:10121000900DBE9C900D1124892F9927281B390B06
:101220002E9FC0012F9F900D3E9F900D1124E92FFE
:1012300062307105A1F050F46115710509F49DCF7C
:101240006130710581F0EB2F512F97CF643071051C
:1012500069F080F06630710509F48FCFF4CFE42F88
:101260004B2F592F8ACFE42F412F87CFEB2F542FAD
:10127000492F83CF4B2F5D2DE12F7FCF80E0089545
:10128000F894E82FE295EF70F0E031A1282F2F704D
:1012900081E090E001C0880F2A95EAF7982F909599
:1012A000932391A392A1892B82A37894089590917E
:1012B0009C0292FF06C0282F28712830F9F4877FFE
:1012C000846093FF06C0282F28712831F1F4877EAF
:1012D000846120919D0220FF06C0382F387138307C
:1012E000D9F4877F816021FF06C0282F287128311B
:1012F000D1F4877E816194FD877E0895282F247123
:101300002430F9F68B7F8860DCCF282F24712431BC
:1013100001F78B7E8861DDCF382F3171313019F7BD
:101320008E7F8860E0CF282F2171213121F78E7EBA
:101330008861E1CFCF93DF93EC0182389105B1F161
:1013400008F040C08133910509F49DC048F5893209
:10135000910509F48DC08A9709F49CC0C11522E556
:10136000D20708F0BDC0C11531E5D30708F027C189
:10137000C83ED10508F0A3C0C03ED10588F5C83AE3
:10138000D10508F08EC0C53AD10508F0F9C0C130CA
:10139000D10531F1209721F1C430D10508F545C0C0
:1013A0008533910509F45FC0C997C1F680919C020D
:1013B000837009F03EC180919D0283FF11C0C9E294
:1013C000D0E00EC0833E910599F170F4803E910506
:1013D00001F1823E910511F680919C0282FD21C0AF
:1013E000CE01DF91CF910895863E910561F1873E50
:1013F000910571F1843E910509F0B0CF80919D0275
:1014000081FFEECF80919C02C7EED0E084FD0DC03D
:10141000E7CF80919C0280FD33C090919D0290FFA8
:10142000DFCFC3EED0E084FFDBCFD0E0C0E0D8CF89
:1014300080919C0282FDFAC090919D0290FDF9C0BE
:1014400084FFCECFF2CF80919C0283FDDDCFC8CF49
:1014500080919C0283FDF0C090919D0291FFF0CF9E
:10146000C4EED0E0BDCF80919C0285FFB9CFA7CF5D
:1014700080919C0285FDE3C080919D0283FFB0CFE7
:10148000C9E3D0E0ADCF80919C0286FFA9CFCAE22C
:10149000D0E0A6CF80919C0286FFA2CFC1E3D0E02E
:1014A0009FCFCF3BD10508F6C85AD0E0CC0FDD1F47
:1014B000C35ADE4F0990D881C02DD46491CFC11595
:1014C00040E5D40708F067C0C11580E4D80708F0EC
:1014D0005FC0CE019A9581159F4108F481CFA5CFB9
:1014E000C11536E5D30718F5C11545E5D40708F051
:1014F0007FC0C11584E5D80708F075C09E01237030
:1015000033279C2F96959695C115D34508F45CC05A
:10151000C1E0D0E002C0CC0FDD1F2A95E2F730E237
:10152000939FC0011124C82BD92BDA6859CFC1155C
:1015300089E5D80768F4C11528E5D20708F063C02B
:10154000C11537E5D30708F070CFDD27D06648CF47
:10155000C1154AE5D40708F45BC0CE019056811549
:10156000904208F062CF8D2F8F710E94570990E052
:10157000982F882788279F719C012C2BE90141C057
:10158000C55AD0E0C65ADE4FC881D0E0D06428CF1B
:10159000DF70D06A25CFCE018370992721E030E03B
:1015A00002C0220F331F8A95E2F7C695C69540E226
:1015B000C49FE0011124C22BD32BDD6811CFDC2F97
:1015C000CC27C16FD06A0CCFC1E0D0E002C0CC0FF5
:1015D000DD1F2A95E2F720E2929FC0011124C82B5B
:1015E000D92BDC68FDCEDC2FCC27C46FD06AF8CEB7
:1015F0008C2F0E945709C82FD0E0DC2FCC27CC2796
:10160000DF71D062EDCEDC2FCC27C06FD06AE8CE80
:101610008C2F8F700E94570934E0D695C7953A9564
:10162000E1F7CF709C2FEC01D069DACEC2EED0E0AA
:10163000D7CEC0EED0E0D4CEC6EED0E0D1CEC5E35A
:10164000D0E0CECE0E941D080895809155028111F0
:10165000109255020895809590915402982390938A
:10166000540208958091490290911802981301C084
:1016700008958F5F8770FACF292F9A3078F58630DA
:1016800068F590E036E0239F800D911D1124682FAE
:10169000677023E0969587952A95E1F7FC01EE0F98
:1016A000FF1FE80FF91FE850FE4F50E040E080E0D8
:1016B000219130E0062E02C0369527950A94E2F774
:1016C00021703327042E01C0220F0A94EAF7822BDF
:1016D0004F5F5F4F4330510559F7089580E00895FB
:1016E000292F9A3098F5863088F590E036E0239FD0
:1016F000800D911D1124282F277041E001C0440F57
:101700002A95EAF723E0969587952A95E1F7FC015B
:10171000EE0FFF1FE80FF91FE850FE4F30E020E00A
:1017200070E05191DF011197CB01022E02C0969516
:1017300087950A94E2F78170819585278423852710
:101740008C932F5F3F4F2330310559F70895982F21
:1017500092959F7011F0892F94E0282F2695269559
:1017600011F09E5F822F869509F09F5F892F089563
:10177000B0E0A0E0EEEBFBE00C9484326C017B0166
:1017800064E670E088E70E94C42FEC0197FD12C068
:1017900010E000E0F601E00FF11F849164E670E0D4
:1017A0000E943030EC01892B29F40F5F1F4F0E157A
:1017B0001F0581F70E94A630CE01CDB7DEB7E8E065
:1017C0000C94A0328091DA059091DB05911103C051
:1017D00091E089270895882369F062E070E089E448
:1017E0009AE00E94B80B892B19F08091DA050895D0
:1017F0001092DA058091DA05EBCFCF93C091DA052C
:101800008091DB058823D1F00E941D08605A754144
:101810008F4F9F4F6093D6057093D7058093D8055F
:101820009093D905C11108C062E070E087E49AE0A6
:101830000E94B80B892B29F0C091DA058C2FCF912B
:10184000089581E08093DA05F7CF8093E7057093E0
:10185000E9056093E8058091F7058430F9F48093F9
:10186000E9008FEF9091E800815095FD06C095ED5D
:101870009A95F1F700008111F5CF8091E80085FF7E
:101880000DC050E040E063E070E087EE95E00E941C
:10189000D2068091E8008E778093E8000895BC011D
:1018A00084E00E94250C0895BC0183E00E94250C71
:1018B0000895CF93DF93EC0181E08093E9008FEFEF
:1018C0009091E800815095FD06C095ED9A95F1F74D
:1018D00000008111F5CF8091E80085FF14C050E031
:1018E00040E068E070E0CE010E94D2068091E800FE
:1018F0008E778093E80088E0FE01ADEEB5E00190C0
:101900000D928A95E1F7DF91CF910895609155018D
:101910008091C60380FF20C08091540143E0849FE2
:10192000C00111248C509D4F539A2BB1277F3BB19E
:1019300038605FB7F894FC01649FE00DF11D11243D
:10194000BF0168177907D1F45FBF8FE594E0019775
:10195000F1F700C000000895809156019091570161
:1019600023E0829FF0011124EC50FD4F8917A0F66F
:101970001182108212828F5F3396F8CFFC01419161
:10198000CF01E8E03BB9000000C047FF2BB9440F8E
:10199000000000C000C000C02BB900C0EA9591F75C
:1019A000D0CF0F931F93CF93DF93EC0110E000E0B3
:1019B000909158019017110609F06CF40E94860C62
:1019C0008C8190E00196817099278C83DF91CF9173
:1019D0001F910F91089520915601A801420F511DAA
:1019E0009A01220F331F240F351F2C503D4F4C817D
:1019F0006091C8038091C70396959017110669F00E
:101A000064F0442361F04091C903493708F048E786
:101A10000E94A8080F5F1F4FCBCF4423A1F340E0E3
:101A2000F7CFB0E0A0E0E7E1FDE00C948032EC01FC
:101A30004C81042F10E09801D8010E9416339B01BD
:101A4000AC010E942C334B015C01E0E2F0E0E01BB2
:101A5000F10BA5E5B0E0AC019B010E942C336B01BA
:101A60007C019F01DF010E940E339B01AC010E94AB
:101A700037339B01AC01280D391D4A1D5B1DC70181
:101A8000B6010E94DF32F22E822F90E039E23F153C
:101A900020F143E0249F9001112435952795122FC2
:101AA000109500E085E5E82EEF18809158010817A1
:101AB00018F10E94860C9C8181E0992319F09032E4
:101AC00019F48FEF8093530180915301890F8C8318
:101AD000CDB7DEB7ECE00C949C3225E530E0B901DF
:101AE000681B790B9B01220F331F260F371F37FF0F
:101AF000D4CF2F5F3F4FD1CF8E2D01FD8F2D209161
:101B00005601622F600F7727771F9B01220F331F2B
:101B1000260F371F2C503D4F412F193708F048E74B
:101B20006091C8030E94A8080F5FBFCFEF92FF9299
:101B30000F931F93CF93DF93EC018C81811109C028
:101B400081E08C831092F20292E090935201809394
:101B50005101809156019091570123E0829FF0013D
:101B60001124EC50FD4F891758F110E003E060910B
:101B70005801161758F10E94860C8091510120914E
:101B8000F202280F2093F20290915201980F909345
:101B90005201191654F4022E000C330B40915801D7
:101BA0004150550B2417350734F08195809351012E
:101BB000813009F41C82CDB7DEB7E6E00C94A23286
:101BC0001182108212828F5F3396CDCFE12EF12CDD
:101BD00070E0C7010E94CB3220915601820F482F3E
:101BE00050E02091F202022E000C330BE216F306B5
:101BF000D4F020915201022E000C330B2E153F051C
:101C000094F0809F900111242C503D4F4091C903C6
:101C1000493708F048E76091C8038091C7030E94E4
:101C2000A8081F5FA4CFFA01EE0FFF1FE40FF51FF6
:101C3000EC50FD4F118210821282F3CFB0E0A0E091
:101C4000E4E2FEE00C948032EC018A81BB24BA9479
:101C500080FD02C0BB24B394A09058018C818111F7
:101C600009C081E0B81220C08FEF8A0D8093F10285
:101C700081E08C83F12CE12C46E4842EEA14B8F048
:101C80000E94860C8091F10291E0B9125AC0811134
:101C900053C08091580181508093F1021C82CDB7CE
:101CA000DEB7ECE00C949C321092F102E1CF00918F
:101CB00056010E0D1F2D111DC801880F991F080F09
:101CC000191F0C501D4FF80111821082128234E04E
:101CD000C32ED12C912C8091F102890D873444F1CF
:101CE000682D0E94BD32892F082E000C990B8E158D
:101CF0009F05A9F48091C9038C9DA0018D9D500D75
:101D000011245595479555954795493708F048E76B
:101D100098016091C8038091C7030E94A8089B0C9A
:101D2000F1E0CF1AD108B9F68FEFE81AF80AA6CF7A
:101D300087FFDACF8A0DD8CF81508093F102BC8221
:101D4000AECF90E001966091580170E00E94CB32D6
:101D50008093F1028C83A3CFEF92FF921F93CF93D6
:101D6000DF93EC0110E0EE24EA94F12C609158012D
:101D7000161770F00E94860C9A818C8190FF2AC001
:101D80008F5F8C83DF91CF911F91FF90EF9008952B
:101D900020915601422F410F5527551FCA019A0124
:101DA000220F331F280F391F2C503D4F4091C9037C
:101DB000493708F048E770E0C7010E94CB32962F00
:101DC0008C816091C803199F800D11240E94A8087E
:101DD0001F5FCCCF8150D5CF9091C60390FF0EC02E
:101DE000909156012091570133E0939FF001112407
:101DF000EC50FD4F921718F00E94860C08958183D5
:101E0000608342839F5F3396F5CFA3E0B0E0EBE0C1
:101E1000FFE00C9488328C018091F30281110AC09A
:101E20009E012F5F3F4F48E76FEF0E94A8088A810D
:101E30008093F302F8016481613069F08091F302CC
:101E400040E0662361F040E0623011F44091F3021B
:101E500080E060E004C06091F30240E080E00E9416
:101E6000EC0EF801848190E0019663E070E00E943E
:101E7000CB3284832396E4E00C94A432A3E0B0E058
:101E8000E4E4FFE00C948A329091C60390FF0DC009
:101E9000493708F048E79E012F5F3F4F0E94A8088E
:101EA0004B8169818A810E94EC0E2396E2E00C94BA
:101EB000A632CF93DF93EC01E6ECF3E0438162813D
:101EC0008C810E943E0F8C818F5F8C83DF91CF913C
:101ED0000895CF93DF93EC01EC81F0E0E95FFB4FD5
:101EE0004491E6ECF3E0628181810E943E0F8C8197
:101EF0008F5F8C83DF91CF910895E6ECF3E08081D2
:101F00008E7F80830E948B08EEEEF2E082818160FA
:101F100082832FEF80E792E0215080409040E1F7EC
:101F200000C000000E94860C0895B0E0A0E0EBE93C
:101F3000FFE00C9482327C015B016A0180918B028C
:101F400001E010E08A3010F40AE010E0C1E0D0E0D7
:101F5000B501C701F6010995811104C021960C173E
:101F60001D072CF4CDB7DEB7EAE00C949E32CC9F6F
:101F70009001CD9F300D300D112490E080E045E3BD
:101F80004A95F1F70000019682179307C1F7E0CF59
:101F900080916102811110C08091D800806180938E
:101FA000D8008AE18A95F1F700C08091D90080FFBE
:101FB0000AC081E08093610281E0909161029130DA
:101FC00009F080E0089582E0809361020E94820619
:101FD0001092F705F1CF0E94C80F882359F0E091C5
:101FE000DE05F091DF05309729F00190F081E02DBA
:101FF0000995089580E008950F931F930E94C80FDC
:10200000882329F00E941D081F910F9108950E94B6
:102010001D0800918C0210918D0220918E0230914A
:102020008F02600F711F821F931FEECFCF93DF933C
:10203000C7E0D2E060E0CE010E947F332196C11557
:1020400084E0D807B9F7DF91CF9108951F93CF931C
:10205000DF93122F8430E0F46A30D0F44630C0F4BD
:10206000C42FD0E0CC0FDD1F9CE0699FC00DD11DB7
:10207000112498E7899FC00DD11D1124632FCE0133
:1020800087960E947F33612FCE0188960E947F330E
:10209000DF91CF911F910895AF92BF92CF92DF92BF
:1020A000EF92FF921F93CF93DF938BE4C82E8AE0C9
:1020B000D82ED0E07601C0E014C0F501259134910E
:1020C000412F6C2F8D2F0E94261082E0A80EB11C8C
:1020D0001F5F163091F78CE0E80EF11CCF5FCA301D
:1020E00019F0570110E0E9CFDF5F88E7C80ED11C77
:1020F000D43001F7DF91CF911F91FF90EF90DF90E7
:10210000CF90BF90AF900895CF93C82F6FEF8111FC
:1021100062E283E290E00E947F336FEFC11160E1E1
:1021200084E290E00E947F336FEFC11166E285E2A6
:1021300090E00E947F33CF91089580E00E94841048
:1021400060E086E290E00E947F330E944C100E9483
:10215000161081E00E94841008950F931F93CF936F
:10216000DF93843030F56A3020F5463010F5C42F07
:10217000D0E0CC0FDD1F2CE0629FC00DD11D1124DB
:1021800038E7839FC00DD11D1124CE0187960E9490
:102190006B33082F10E0102F0027CE0188960E9485
:1021A0006B339801282BC901DF91CF911F910F91BB
:1021B000089590E080E0F8CF462F843040F47A30E4
:1021C00030F4663020F4672F0E94AD10089590E03F
:1021D00080E00895CF92DF92FF920F931F93CF93E9
:1021E000DF936C010091040680915602082BC7E032
:1021F000D0E010E0FC2EC8010C2E02C0959587950A
:102200000A94E2F780FD0CC02197A0F7F12C8F2DE6
:10221000DF91CF911F910F91FF90DF90CF900895A4
:10222000B6018C2F0E94DC100E949A09019761F37D
:10223000EECFCF93DF93EC010E94EA10BE010E9423
:10224000DC100E949A09DF91CF910895FC018381EF
:102250009481892B29F08081918189238F3F51F4CA
:1022600080E00895843FE1F717C0883EA8F0813FE1
:10227000B9F712C0808191810E94191192959F70C7
:10228000963099F358F4925F9F70923048F7803FF0
:1022900019F040F7883E20F781E008959A5FF4CF67
:1022A00083E290E00E946B33823289F484E290E012
:1022B0000E946B33803159F485E290E00E946B33C9
:1022C00091E0863209F090E0892F8170089580E0D6
:1022D000FCCFCF9384E090E00E946B33C82F82E262
:1022E00090E00E946B33982F8C2FCF9108958091AE
:1022F000540290915302892B8093E60190915502EC
:10230000992391F0892B8093E60120E088EE91E0FB
:10231000FC013191CF0131112F5FF1E08E3E9F071B
:10232000B9F721110E94250B48E050E06BE472E000
:1023300086EE91E00E945533892BA9F088E0E6EE05
:10234000F1E0ABE4B2E001900D928A95E1F7E09103
:10235000DE05F091DF05309731F00280F381E02D4A
:1023600086EE91E00995089590E080E00E9459087A
:1023700090E080E00E944308109253020E9477117F
:102380000895809304060E94B41108958091040674
:10239000982F9670963021F488600E94C11108959C
:1023A000877FFBCF21E030E001C0220F8A95EAF75A
:1023B00020958091040682230E94C1110895909176
:1023C0004A028095892380934A02282F277091F42E
:1023D000282F082E000C330B9217130659F09091FA
:1023E0009D0292FF07C08595859585950E94D21123
:1023F00010924A020895CF93C0919D02C2FB992783
:1024000090F9981791F080FBC2F9C0939D026091FA
:102410009C0284E090E00E947F336C2F82E290E087
:102420000E947F3382E00E94DF11CF91089521E066
:1024300030E001C0220F8A95EAF780910406822BD2
:102440000E94C1110895809356020E94B41108950C
:10245000882321F00E942B0B0E9477110895882376
:1024600039F090915402982B909354020E94771166
:102470000895882391F19CEF980F913A80F4E8EE4B
:10248000F1E02EEE31E09191891303C0DF01119745
:102490001C922E173F07B9F70E947711089590E21A
:1024A000980F983050F4877091E001C0990F8A9589
:1024B000EAF7892F0E942B0BEFCF9BE5980F933003
:1024C00028F490E080E00E9459080895885A8731E6
:1024D00020F490E080E00E9443080895CF93C82F35
:1024E0008823B1F08CEF8C0F813A00F5E8EEF1E033
:1024F0008EEE91E0DF012D91C21761F08A179B07E4
:10250000D1F76C2F86EE91E00E9429080E94771186
:10251000CF9108952191C21303C0DF0111971C923E
:102520008E179F07B9F70E947711EBCF80E28C0FCF
:10253000883068F4C77021E030E001C0220FCA95EE
:10254000EAF780915402822B80935402DFCFEBE5AF
:10255000EC0FE33040F4F0E0E65AFE4F808190E06B
:102560000E945908D5CFC85AC73190F6EC2FF0E039
:10257000EE0FFF1FE35AFE4F808191810E944308B6
:10258000C7CF1F93CF93DF93182FCAE0D0E08933D2
:1025900011F4C0E5D0E0812F0E946E128FE99FE018
:1025A0000197F1F700C000002197C1F7812F0E9429
:1025B0003912DF91CF911F9108951F93CF93DF932D
:1025C000162F8A3039F481E00E948013DF91CF9179
:1025D0001F9108958D3011F480E0F6CFC091D4059D
:1025E000D091D50596E0FE01AEECB5E001900D92DC
:1025F0009A95E1F7803E90F186E0FE0111928A956E
:10260000E9F7C091D405D091D505111133C046E04A
:1026100050E0BE018EEC95E00E9455339E012E5C89
:102620003340892B91F52A5F3F4F4091CB03642FB4
:1026300070E0C9010E946632481B463010F4240F36
:10264000311D211572E0370710F030E020E02253F1
:102650003C4F3093D5052093D405B8CFF6E08F9F3B
:10266000B0011124695F7A4F46E050E0CE010E942C
:102670003F33C7CF9E012A5F3F4FFE012E173F0712
:1026800031F2808180958193F9CFC90145E096951B
:1026900087954A95E1F741E050E0BA0102C0660F24
:1026A000771F8A95E2F7CB016091CC037091CD033F
:1026B000862B972BB9016B5F7F4FE5E07695679589
:1026C000EA95E1F702C0440F551F6A95E2F7842BA3
:1026D000952B9093CD038093CC03A5CF1F93CF93DD
:1026E000DF93EC01162FFE018491811104C0DF916C
:1026F000CF911F910895612F0E94DD122196F3CF93
:10270000CF93382FE091D405F091D505EE5CF340DE
:102710002091CB03622F70E0CF010E946632281B0C
:10272000822F332369F066E00E94B132C82FC15076
:1027300010F4CF91089560E080E20E94DD12F7CF9F
:102740009F01280F311D2115324018F080E0F0E084
:10275000E0E08E0F9F2F911D82539C4F9093D505E3
:102760008093D405E6CF10925402E8EEF1E086E0C3
:10277000DF011D928A95E9F70E94B4110895AAE23B
:10278000B0E0E5ECF3E10C94893289EF95E020911B
:10279000F100DC012D93CD01B6E081309B07B9F744
:1027A0008091FA05833009F472C0B8F4813009F4DD
:1027B00049C0823009F4B3C08091E80083FF8BC226
:1027C0008091F9059091FA059A3008F084C2E92FBA
:1027D000F0E0EB54FC4C0C9401338A3009F48EC0C9
:1027E0008B3009F471C0893039F78091F905813255
:1027F00019F78091FD059091FE05009711F0029761
:10280000D9F68091E800877F8093E8008091E80006
:1028100082FF38C09091F3008091F200029731F46A
:102820008091F100813011F0863021F48091F10027
:102830008093EC058091E8008B778093E8000E94FC
:10284000FC06BACF8091F905813A09F0B5CF8091A5
:10285000E800877F8093E8008091FD059091FE0558
:10286000892B61F468E08DEE95E070E00E94A80786
:102870008091E8008B778093E8009ECF60E090E045
:1028800080E0F3CF8091F7058111C0CF95CF809183
:10289000F905813A09F090CF8091FD059091FE05F0
:1028A000892B09F089CF8091E800877F8093E80029
:1028B0008091E80080FFFCCF809159018093F10066
:1028C0008091E8008E77B9CF8091F905813209F0C7
:1028D00073CF8091FD059091FE05892B09F06CCF97
:1028E0008091E800877F8093E8000E94FC06809139
:1028F000FB05809359010E94B3135ECF8091F905C7
:10290000813209F059CF8091E800877F8093E800F9
:102910000E94FC068091FC058093EB054DCF8091D1
:10292000F905813A09F048CF8091E800877F8093CC
:10293000E8008091E80080FFFCCF8091EB05BECFDE
:10294000803899F0823809F0C6C18091FD058F70FA
:10295000873008F0C0C18093E9008091EB0085FBCF
:10296000882780F91092E90006C08091F5059091C2
:10297000F605911182609091E800977F9093E800AE
:102980008093F1001092F1008091E8008E779FC152
:10299000882309F48DC1823009F09DC18091FB0527
:1029A000811190C18091FD058F702FEF280F263087
:1029B00008F091C18093E9002091EB0020FF82C1D3
:1029C000933031F48091EB0080628093EB007AC108
:1029D0009091EB0090619093EB0021E030E001C01A
:1029E000220F8A95EAF72093EA001092EA0080917C
:1029F000EB008860EACF81116EC11091FB051F7753
:102A00008091E3008078812B8093E3008091E8003F
:102A1000877F8093E8000E94FC068091E80080FF99
:102A2000FCCF8091E30080688093E30082E0111185
:102A300083E08093F7054FC18058823008F04BC186
:102A40002091FB053091FC052C3DE3E03E07A1F50C
:102A500083E08A838AE289834FB7F894DE01139674
:102A600020E03EE051E2E32FF0E050935700E49184
:102A700020FF03C0E295EF703F5FEF708E2F90E074
:102A8000EA30C0F0C7968D939D932F5F243159F79C
:102A90004FBF8091E800877F8093E8006AE270E092
:102AA000CE0101960E94A8078091E8008B77809361
:102AB000E80011C1C096E7CF8091FD059091FE0519
:102AC000432F55274330510509F44AC078F541306A
:102AD000510509F47AC08BE590E0EBE2FCE042306E
:102AE000510509F0F8C02091E800277F2093E80005
:102AF0002091FF05309100068217930708F49C018E
:102B000040E02115310509F065C0411163C0809195
:102B1000E80082FDC9CF8091F705882329F285302E
:102B200019F28091E80083FFF2CFBECF4132510508
:102B300009F43CC04232510509F0CDC08330910503
:102B400008F0C9C0FC01EE0FFF1FE852FE4F0190D4
:102B5000F081E02D8B529E4FDC018C9190E01AC0E9
:102B6000332721303105D1F02115310561F02230B4
:102B7000310509F0B0C0E8E9FCE0E4918E2F90E067
:102B8000E8E9FCE007C0E2ECFCE0E4918E2F90E085
:102B9000E2ECFCE0009709F49EC0A5CFE6EAFCE079
:102BA000E4918E2F90E0E6EAFCE0F4CF83309105CB
:102BB00008F091C0880F991FFC01E252FE4F01906E
:102BC000F081E02D89E090E08ECF82E190E0E6E8B0
:102BD000FCE089CF8091F705882309F465CF853023
:102BE00009F462CF8091E80083FD5ECF8091E80018
:102BF00082FD8DCF8091E80080FF83CF9091F3001C
:102C00008091F2002115310519F08830910550F0BE
:102C100041E0089709F040E08091E8008E778093CA
:102C2000E8006FCF44914093F10031962150310973
:102C30000196E8CF803809F04EC08091E800877F88
:102C40008093E8008091F8058093F1009DCE81117A
:102C500042C01091FB051230F0F58091E800877FAB
:102C60008093E8001093F8050E94FC06112311F0F0
:102C700084E005C08091E30087FDFACF81E0809376
:102C8000F70542E061EC81E00E941B0742E261EC43
:102C900084E00E941B0742E261EC82E00E941B0775
:102CA00042E260EC83E00E941B078091F70513C0AD
:102CB0008091FB05813079F481E0933009F080E068
:102CC0008093F6051092E9008091E800877F809359
:102CD000E8000E94FC068091E80083FF0AC0809112
:102CE000E800877F8093E8008091EB00806280930A
:102CF000EB00AA96E3E00C94A5320E94B3132FEFE9
:102D000084E39CE0215080409040E1F700C0000047
:102D100088E19AE00FB6F894A895809360000FBE02
:102D200090936000FFCFCF92DF92EF92FF926B0102
:102D30007C010E949208B701A60188E090E00E9401
:102D40009133FF90EF90DF90CF900895A3E0B0E033
:102D5000ECEAF6E10C948332F82ED62E042FC22E24
:102D60009091C60390FF3EC0E92FE695AE2FB0E0EC
:102D7000A055BE4F8C918093EE029E7F9230B1F5AC
:102D8000493708F048E79E012F5F3F4F6D2D8F2D8B
:102D90000E94A8084B8169818A810E94EC0E809173
:102DA000C7038F1108C08091C8038D1104C08091A2
:102DB000C903801729F08091F00282608093F002AD
:102DC000F092C703D092C8030093C903CC2051F0FE
:102DD0006091C6037091C7038091C8039091C903A5
:102DE0000E9493162396E9E00C949F32823019F4E6
:102DF0000091C903D4CF863019F4F090C703CFCF28
:102E00008930D9F3893159F6E9516E2F6170B62EA8
:102E1000E695F0E0EE5FFB4F1491E12C60915801D4
:102E2000E61618F00E94860CBACFE19EC00111246C
:102E300070E00E9466328F2DB11017C0860F20916E
:102E40005601622F6E0D7727771F9B01220F331FCC
:102E5000260F371F2C503D4F402F093708F048E709
:102E60006D2D0E94A808E394D9CF861BE8CFE6EC2D
:102E7000F3E0438121E1421B08F440E021E062815C
:102E800081810E94A6160895E6ECF3E0438121E1DA
:102E9000420F08F44FEF21E0628181810E94A61663
:102EA0000895E6ECF3E0628121E1621B08F460E042
:102EB00021E0438181810E94A6160895E6ECF3E0AB
:102EC000628121E1620F08F46FEF21E0438181818B
:102ED0000E94A6160895E6ECF3E0818121E043818B
:102EE00062818A500E94A6160895E6ECF3E0818183
:102EF00021E043816281865F0E94A6160895809139
:102F0000CA03882319F081508093CA036091C603D5
:102F10007091C7038091C8039091C9030E949316D2
:102F200008958091CA03833018F48F5F8093CA0399
:102F30006091C6037091C7038091C8039091C90343
:102F40000E9493160895E6ECF3E083E080831182FB
:102F50008FEF828388E783831482AEEEB2E012960D
:102F60008C911297836012968C936081718182811B
:102F700093810E949316089568EE7EEF90E080E0C2
:102F80000E949D3360E082E090E00E947F3360E029
:102F900083E090E00E947F331092560260E084E06C
:102FA00090E00E947F3364E082E290E00E947F33F1
:102FB00060E085E090E00E947F3360E086E090E092
:102FC0000E947F336FEF87E090E00E947F3340E004
:102FD00050E0BA0188E090E00E94913360E08DE01B
:102FE00090E00E947F3340E050E0BA0188E190E039
:102FF0000E94913360E087E190E00E947F3340E0DF
:1030000050E0BA018CE190E00E94913370E060E002
:1030100080E290E00E949D3340E050E0BA0188E1F8
:1030200090E00E94913380E00E9484100E949D10E5
:1030300040E050E0BA018FE090E00E94913340E020
:1030400050E0BA0183E190E00E9491330895A8E036
:10305000B0E0EDE2F8E10C948A3285E0E6ECF3E0D2
:10306000DE01119601900D928A95E1F78091EE02B2
:103070009091EF02A091F0028E839F83A88728850C
:1030800040918702509188026091890270918A0272
:103090003FB7F8948091E3059091E405A091E50590
:1030A000B091E6053FBF841B950BA60BB70B84368A
:1030B0009105A105B10510F4222319F18091290190
:1030C00090912A018D589D4F4091280150E0493040
:1030D000510510F048E050E0BE016F5F7F4F0E9445
:1030E000623385E090E00E94F031882369F00E940D
:1030F0001D086093870270938802809389029093E1
:103100008A021092F00281E02896E2E00C94A63246
:10311000A4E0B0E0EEE8F8E10C94893240916F024F
:103120005091700260917102709172022FB7F89401
:103130008091E3059091E405A091E505B091E60545
:103140002FBF841B950BA60BB70B11E0843691059E
:10315000A105B10570F10E94FC0F6E5F7F4F8F4F8C
:103160009F4F69837A838B839C8380912101909107
:1031700022018D589D4F4091200150E0453051056E
:1031800010F044E050E0BE016F5F7F4F0E94623359
:1031900084E090E00E94F031182F882351F00E94C3
:1031A0001D0860936F027093700280937102909378
:1031B0007202812F2496E3E00C94A5324F925F9225
:1031C0007F928F929F92AF92BF92CF92DF92EF92B7
:1031D000FF920F931F93CF93DF930F92CDB7DEB77C
:1031E000C62E4A015901482E880F5508C2010E9477
:1031F000F031782E882309F480C0C20133E0880FB3
:10320000991F3A95E1F7FC01E050FF4F438150E0F0
:103210004115510511F041E050E080509F4FFC01F5
:10322000648175816D587D4FCE0101960E94623395
:10323000F40140815181628173812FB7F8948091AC
:10324000E3059091E405A091E505B091E6052FBF57
:10325000841B950BA60BB70B84369105A105B10510
:1032600040F4B701C8010E946F089981891709F4D9
:1032700044C00C2C000CDD08C6010E94F031782EF1
:10328000811113C0712C872D0F90DF91CF911F9169
:103290000F91FF90EF90DF90CF90BF90AF909F90F5
:1032A0008F907F905F904F900895C60123E0880F24
:1032B000991F2A95E1F7FC01E050FF4F438150E050
:1032C000E416F50608F4A70180509F4FFC016481C5
:1032D00075816D587D4FC5010E946233B701C801E9
:1032E0000E946F0899818913CDCF0E941D08F401B7
:1032F0006083718382839383C6CFA701B801C50120
:103300000E946233C0CFA1E0B0E0E9E8F9E10C949B
:103310008332EE24E394F12C0AE712E09E012F5F42
:103320003F4F4BE652E063E082E00E94DE18C82E79
:10333000882339F1D12C80E01DC00091A0020D0D31
:10334000202F30E0A9014F545D4F7A01E1E0F0E019
:10335000EC0FFD1FED0DF11D1081FA019081191B7D
:10336000B12E1B149CF0912F17FD90E0191B111129
:103370001CC0D39490919F02D916F8F281110E943B
:10338000220B8C2D2196E9E00C949F32BA94F70120
:1033900080818F5F808389EA002319F0013019F45E
:1033A00081E50E94C1128C2DDCCF1F5FF701808167
:1033B000815080838AEA002319F0013019F482E5F4
:1033C0000E94C1128C2DD3CFA5E0B0E0EAEEF9E166
:1033D0000C9484326B0185E0E82EF12C04E712E0B6
:1033E0009E012F5F3F4F47E652E061E080E00E9480
:1033F000DE18882349F095E0FE013196A2E6B2E09E
:1034000001900D929A95E1F795E0E2E6F2E0D6019F
:1034100001900D929A95E1F72596E8E00C94A03280
:1034200090E080E00E947933883E9E4F19F40E941C
:103430005011089580E008951F920F920FB60F92D9
:1034400011242F933F934F935F936F937F938F93A9
:103450009F93AF93BF93CF93DF93EF93FF93D0915D
:10346000E900DF708091EC00C82FC17080FDC0E8DA
:103470001092E9008091F000877F8093F0007894AB
:103480000E94BF131092E9008091F0008860809341
:10349000F000CD2BCF70C093E900FF91EF91DF9149
:1034A000CF91BF91AF919F918F917F916F915F91DC
:1034B0004F913F912F910F900FBE0F901F90189535
:1034C0001F920F920FB60F9211242F933F934F9399
:1034D0005F936F937F938F939F93AF93BF93EF937C
:1034E000FF938091E10082FF09C08091E20082FF9A
:1034F00005C08091E1008B7F8093E1008091DA002C
:1035000080FF24C08091D80080FF20C08091DA0025
:103510008E7F8093DA008091D90080FF9DC080E18A
:1035200089BD82E189BD09B400FEFDCF81E08093B1
:10353000F7058091EA05811109C00E9482060E9468
:103540004D078091E20084608093E2008091E10069
:1035500080FF17C08091E20080FF13C08091E200DD
:103560008E7F8093E2008091E20080618093E20090
:103570008091D80080628093D80019BC85E0809348
:10358000F7058091E10084FF2BC08091E20084FF69
:1035900027C080E189BD82E189BD89B5982F9170EE
:1035A00080FFFBCF8091D8008F7D8093D8008091E1
:1035B000E1008F7E8093E1008091E2008F7E809316
:1035C000E2008091E20081608093E2008091F80542
:1035D000882309F447C084E08093F7058091F705BC
:1035E0008091E10083FF27C08091E20083FF23C028
:1035F0008091E100877F8093E10082E08093F7056E
:103600001092F8058091E1008E7F8093E100809117
:10361000E2008E7F8093E2008091E20080618093DF
:10362000E20042E060E080E00E941B078091F00031
:1036300088608093F000FF91EF91BF91AF919F91CF
:103640008F917F916F915F914F913F912F910F904B
:103650000FBE0F901F90189519BC1092F70510928D
:10366000EA0574CF8091E30087FD93E09093F7051E
:10367000B5CF78941F921FB61F9211248F939F93FA
:10368000AF93BF938091E3059091E405A091E50588
:10369000B091E6050196A11DB11D8093E3059093BD
:1036A000E405A093E505B093E605BF91AF919F9126
:1036B0008F911F901FBE1F9018959C014FB7F894D3
:1036C0008091E3059091E405A091E505B091E605B0
:1036D0004FBF821B930B08952FB7F8948091E30599
:1036E0009091E405A091E505B091E6052FBF0895FE
:1036F0000F931F93CF93DF93C62FD42F022FFC017C
:1037000082818823A9F0609303060E946C1B90932A
:10371000020680930106C77081E001C0880FCA9538
:10372000EAF70E942F12DF91CF911F910F91089518
:1037300080910306681332C08091010690910206C1
:103740000E945D1B883C910548F510E21D0FCD17C6
:10375000B9F080E28C0F883040F4C77081E001C07E
:10376000880FCA95EAF70E942812183048F481E0C1
:103770009D2F977001C0880F9A95EAF70E942F122B
:10378000802F0E94C112183070F6D77081E001C0FE
:10379000880FDA95EAF70E942812C5CFC77081E03A
:1037A00001C0880FCA95EAF7F6CF0E94C80F882398
:1037B00019F00E946C1B08950E94FC0FCB01089524
:1037C0006091C603669570E04BE050E086E491E0BE
:1037D0000E944833892B19F481E08093EF020E9404
:1037E000D51B9093E9028093E8028091F0028460F7
:1037F0008093F00208959091C60390FF31C09170BC
:1038000081112FC092609093C6038091F002816075
:103810008093F002662351F06091C6037091C70354
:103820008091C8039091C9030E9493166091C603CA
:10383000669570E04BE050E086E491E00E944833EA
:10384000892BB1F00E948B0881E08093EB0220E08D
:103850004091C9036091C8038091C7030E94A616D6
:103860000895853210F09864CECF880F982BCBCF77
:103870000E94E01BE9CF8091C6038695815009F430
:1038800084E261E00E94FB1B08958091C603869547
:103890008F5F853208F081E061E00E94FB1B089594
:1038A0009091C60390FF08C09695981728F0961738
:1038B00018F40E94451C089561E00E94FB1B0895C6
:1038C000A5E0B0E0E6E6FCE10C947B328C01FC0163
:1038D00083819481892B31F08081918189238F3F6D
:1038E00009F070C62596E1E10C9497320E94EA1027
:1038F000F82E682F89819A810E94700B69817A81E4
:103900008F2D0E94DC107C01F8018281882309F44C
:103910001FC6970122513F452031310508F045C6A9
:103920008FEF93E00E946B33811128C0FEEEEF0E03
:1039300057E0852E52E0952EE11032C01C821B828A
:10394000442443944AE0342E74018FEFE81AF80AB5
:10395000C4010E946B3389831A82882379F09FEF18
:10396000980F933058F58A83498292E0890E911C12
:10397000C7010E946B338B83811121C080914A0261
:10398000877009F4AFCFF8018281882309F4AACFA8
:1039900080919D0282FFA6CF82E00E94DF11A2CF1C
:1039A000811424E0920651F3C4010E946B3381110B
:1039B00001C0EA943FEF831A930ABECF4701FE018C
:1039C00031967F01F7012081222309F4BDCF2130F8
:1039D00009F058C081818130B1F46701F2E0CF0E67
:1039E000D11CF70182810E94C11276012FEFE21AE9
:1039F000F20A8BE0815031F3EFE9FFE03197F1F704
:103A000000C00000F7CF823049F46701F2E0CF0E2A
:103A1000D11CF70182810E946E12E7CF833049F4F6
:103A20006701F2E0CF0ED11CF70182810E943912AA
:103A3000DCCF843021F0FFEFEF1AFF0AD7CF2281CD
:103A4000C70102967C0190E080E0A7014F5F5F4FC5
:103A50002053330B2A30310548F0019738F2EFE953
:103A6000FFE03197F1F700C00000F7CF389EB001BA
:103A7000399E700D1124C901860F971FF70121810E
:103A80007A01E3CFE22FF0E0E851FE4F5490822F0D
:103A900086958695869590E0FC01E852FE4F6490ED
:103AA0002770712C022E02C0759467940A94E2F775
:103AB00031E063227724FC01E853FE4FA490B12C3F
:103AC000022E02C0B594A7940A94E2F7E1E0AE2278
:103AD000BB24FC01E854FE4FC490D12C02C0D59405
:103AE000C7942A95E2F7F1E0CF22DD246114710436
:103AF00019F081EE0E946E12A114B10419F086EE45
:103B00000E946E12852D0E94C112A114B10419F0F9
:103B100086EE0E9439126114710419F081EE0E9440
:103B20003912C114D10409F461CF8CE20E94C11290
:103B30005DCF81E00E9417120E94C6111FCF81E065
:103B40000E94D211F9CF82E0FBCFF5EFEF16FCE532
:103B5000FF0609F46CC008F466C027E245EE66EE85
:103B600036EFE3163CE5F30609F41BC5882309F498
:103B70003AC51092030683E0E8168DE5F80608F0D2
:103B80005DC09AEFE9169CE5F90630F4C701825052
:103B90009C45449708F05FC00E94691190939D0274
:103BA00080939C0232E1E3163CE5F30609F478C108
:103BB00008F0B6C099E0E9169CE5F90609F44AC197
:103BC00008F07BC0F5E0EF16FCE5FF0609F436C10E
:103BD00008F05FC033E0E3163CE5F30609F426C1C4
:103BE00008F028C180919C02816092E0E9169CE572
:103BF000F90609F492C060919C02F0909D0284E065
:103C000090E00E947F336F2D82E290E00E947F332C
:103C10000E94B313B3CE27E245EE65EEC2C426E29E
:103C200041EE60EEBEC427E245EE64EEBAC426E281
:103C300041EE62EEB6C428E241E0EFCFE5EAEE16CF
:103C4000EDE5FE0609F4A8CFF0F421E6E2162DE535
:103C5000F20609F4A1CFF6E1EF16FCE5FF0609F044
:103C600086C5809154028A7A91E009F490E090939D
:103C7000F60169E2811165E386EE91E00E94290870
:103C80000E9477117BCEC7018D5A9D45039718F787
:103C900083CF80919C028062E7E0EE16ECE5FE06A1
:103CA000E1F180919C028061F8E0EF16FCE5FF06EF
:103CB000A0F180919C02806430C02DE0E2162CE5DA
:103CC000F20609F4D5C090F48BE0E8168CE5F8060E
:103CD00009F4C6C080919C028C609CE0E9169CE5CA
:103CE000F906D8F080919C028D7F17C0EFE0EE16A8
:103CF000ECE5FE0609F4CCC008F4BEC020E1E216F3
:103D00002CE5F20609F4C8C080919C028F7B31E15A
:103D1000E3163CE5F30609F06ECF80939C026BCF6F
:103D20008FEFE8168CE5F80609F4C4C0D8F5EAEF81
:103D3000EE16ECE5FE0609F485C0D0F424E1E216A7
:103D40002CE5F20609F4C4C008F4B0C085E1E81619
:103D50008CE5F80609F04FCF80919C0282FB9927F1
:103D600090F921E0922790FB82F990FB83F9D5CF5F
:103D70009CEFE9169CE5F90609F482C008F466C0D8
:103D8000FDEFEF16FCE5FF0609F47EC080919D0271
:103D900083602EEFE2162CE5F20609F02CCF80931B
:103DA0009D0229CF31E6E3163DE5F30609F49BC0F9
:103DB000A0F491E0E9169DE5F90609F492C008F433
:103DC0007DC060E0F2E0EF16FDE5FF0609F013CFDD
:103DD0008EE090E00E947F330ECF2DEAE2162DE5B3
:103DE000F20601F168F485EAE8168DE5F80609F0B7
:103DF00002CF90919C02892F8E7F90FF81608DCFA2
:103E00009EEAE9169DE5F90679F1EFEAEE16EDE591
:103E1000FE0609F0F0CE90919D02892F877F93FFD7
:103E20008860BDCF80919D028860B9CF80919C024F
:103E3000826073CF80919C0284606FCF80919C02DE
:103E400088606BCF80919D028160A9CF80919D0297
:103E50008260A5CF0E94B31380919C0280685DCFE1
:103E600080919C028E7F59CF80919D02877F97CF52
:103E700080919C028B7F51CF80919C02877F4DCF98
:103E800080919D028E7F8BCF80919D028D7F87CF09
:103E900080919C028F7E41CF80919C028F7D3DCF8F
:103EA0000E94B31380919C028F7737CF80919C0240
:103EB000837F33CF80919D028C7F71CF80919D0253
:103EC000982F909591708E7F892B90FB81F967CF09
:103ED0000E94B31390919C02892F97FB87F9805819
:103EE0001CCF61E075CF90919C02892F8F7E94FF4B
:103EF000806113CF8091F60181110FC089E2E8EE55
:103F0000F1E02EEE31E09191891303C0DF011197AA
:103F10001C922E173F07B9F7B3CE85E3F0CF81602F
:103F20008093C60361E086950E94FB1B27CD4BE37F
:103F30005CE165E47CE10E94850820CD45E45CE11C
:103F40006BE37CE1F8CF45E757E16BE677E1F3CF30
:103F500041E557E16EE577E1EECF47E357E164E4F1
:103F600077E1E9CF44E457E167E377E1E4CF41E962
:103F700057E16FE777E1DFCF61E081E0D5CF65E022
:103F800082E00E94501CFACC68E086E0FACF64E13F
:103F90008FE0F7CF67E185E1F4CF62E289E1F1CF0D
:103FA00061E083E2C1CF0E94B3139FEFE4E3FCE042
:103FB0009150E040F040E1F700C000000E940C0882
:103FC00080919D0282FB882780F991E089270E94D9
:103FD000FB11F8018281E080F180882309F44BC055
:103FE000C7010E94EA10D82E682FC7010E94700BEB
:103FF000B7018D2D0E94DC100E949A09E82ED92E5F
:10400000A82EF801F280B580B2943FE0B3228091EF
:104010004A028770E9F09F2CFF20D9F0892F807F1A
:10402000803449F090E29E0D983090F0803619F47B
:10403000F6EFEF1669F080919D0282FF09C082E0E1
:104040000E94DF1180914A02877099249394811114
:10405000912C8D2C82942FE082222BE0281508F4DD
:1040600072C0E82DF0E0E154FC4C0C94013381E087
:10407000AECF80E0ACCFC7010E943C0BD82EB8CFAA
:104080003D2D3F70C32E8D2D807F19F0C29490EF8F
:10409000C922FF20B9F0CC2069F080E28E0D883073
:1040A00010F0A11009C080915402C82AC092540295
:1040B0000E9477118E2D45C080915302C82AC0926C
:1040C0005302F6CF8E2D0E943912CC20E1F180E20E
:1040D0008E0D883010F0A11004C08C2D0E942B0B87
:1040E00006C0C09480915302C822C09253020E941D
:1040F000771129C08D2D8F70C82E8D2D807F803235
:1041000019F0C29480EFC822AA2059F091E0A916B4
:1041100009F474C0FF2009F47EC0BB2009F474C008
:10412000C9CF20919D0222FD46C0FF20F1F1CC2095
:1041300039F080915402C82AC09254020E9477112B
:1041400080E00E946E12282D2850330B2430310558
:1041500010F40E94EB0FFF2079F08D2D807F8036C8
:1041600019F436EFA31641F08091F701823009F07F
:10417000E7C183E08093F701992009F4B3CB8091E4
:104180004A0280FDAFCBF801128285958595859511
:104190000E941712C8010E94601C80914A028595F6
:1041A000859585950E94D2119DCB80E00E943912A1
:1041B000CC2049F292CFFF20A1F0909155028C2D96
:1041C000892BB11003C00E942F12BDCFE1E0BE12B7
:1041D000FACF22FFB8CF981709F4B5CF80935502D4
:1041E000B2CFB11006C00E94250B8C2D0E94281260
:1041F000AACFF1E0BF1609F4A6CFF5CFFF2031F02A
:1042000025E02B1508F49FCF8C2DDDCF34E03B1536
:1042100008F499CFEACFBB2041F389E3A81219C172
:104220009FEFE7EEF3E09150E040F040E1F700C08F
:1042300000008E2D0E94391286CF8D2D8695869591
:10424000837069F0813009F07ECF8E2D9D2D9370A3
:10425000F11002C090E080E00E94430874CF8E2DE0
:104260009D2D9370F11002C090E080E00E945908EB
:104270006ACF8D2D837091F5F11065CF4E2D42954B
:1042800046954770440F440F8E2D8F70042E01C049
:10429000880F0A94EAF72E2D2071E4FE07C02FE064
:1042A00030E001C0220F4A95EAF720953D2D369562
:1042B00036953370323069F050F440915602313007
:1042C00029F0822B84230E9423123DCF842B822B42
:1042D000FACF282B809156028227F5CF8695FF20B2
:1042E00011F08D2D8170882309F42DCF4E2D42952C
:1042F00046954770440F440F8E2D8F70042E01C0D9
:10430000880F0A94EAF72E2D2071E4FE07C02FE0F3
:1043100030E001C0220F4A95EAF720953D2D3695F1
:1043200036953370323069F050F4409104063130E4
:1043300029F0822B84230E94C11105CF842B822B6C
:10434000FACF282B809104068227F5CF9D2D9F70F0
:10435000C92EFF2029F0892F0E9417128E2D33CFEE
:104360008E2D0E9428128C2D0E94D211ECCE8E2D03
:10437000E2EFAE16B1F1EA1570F0F0EFAF16D1F042
:1043800021EFA21691F0FF2009F45EC0B11092CE89
:104390008D2D8F712AC033EFA31651F194EFA9121E
:1043A000F2CF80919D0282FD2FC08D2D8F71FF2055
:1043B000D9F21BC0FF2081F0E4E0EB1508F4C3CE76
:1043C0002D2D2F7181E090E001C0880F2A95EAF72A
:1043D000909104068927AFCFF5E0FB1508F4B3CE22
:1043E000EFCF8D2D8F71F110BFCF0E941712ABCE82
:1043F00080E0FF2009F49FCF81E09D2D9F7101C0D7
:10440000880F9A95EAF797CFFF2099F02D2D2F71FD
:10441000E22E822F0E94171280919D0282FF07C018
:1044200038E0E39EC0011124836080934A028E2D00
:10443000DCCF81E00E94DF1181E08B1508F083CE94
:1044400082E00E94DF117FCEBB2041F0893309F466
:10445000E7CE8FE39CE90197F1F7E9CE8D2D8F71BF
:1044600083CFE0E1EE0DE73008F03FC0F0E0E55328
:10447000FC4C0C940133FF2009F465CE80911102AD
:1044800091E08927809311025ECEF09211025BCEFB
:1044900081E08F25F7CFF11056CE81E0F3CFF110F8
:1044A00052CE109211024FCEFF2021F082E0809375
:1044B000F701F3CF8091F701823021F481E08093FE
:1044C000F70141CE833009F03ECE1092F701E9CFDB
:1044D000FF2039F080911002882381F2109210029F
:1044E00032CE94E09B1550F62ECE80911002BB2068
:1044F000D9F0882341F08091110291E089278093BF
:10450000110210921002F110D5CDEFE3FCE93197C2
:10451000F1F700C000008E2D0E94391286E0F801EC
:1045200011928A95E9F70FCE882309F40CCEF11089
:104530000ACE8091110291E0892780931102CECF9B
:10454000813009F019CE1092F7011092110214CEA9
:10455000F0E1EF16FFE5FF0609F4F1CA21E1E216EA
:104560002FE5F20609F4EFCAF3EFEF16FCE5FF06BC
:1045700009F455CB08F0E9CA38EDE3163CE5F3063B
:1045800009F449CB99EDE9169CE5F90609F453CBFA
:10459000E7EDEE16ECE5FE0609F0E8CA26E241EE8C
:1045A00061EEC8010E94781BE9C930E1E3163FE5DE
:1045B000F30609F4BECA91E1E9169FE5F906A1F6F2
:1045C00082E0B8CA85E0DE01119601900D928A95CD
:1045D000E1F7F801228189819A81211187C90E941E
:1045E0003C0BF82E8BC9F6E1EF16FCE5FF0609F44B
:1045F00081CC8091540282722CECE2162CE5F206FA
:1046000009F4B5CC08F073C096ECE9169CE5F90600
:1046100009F499CC08F042C0F3ECEF16FCE5FF0674
:1046200009F485CC50F532ECE3163CE5F30609F0CD
:10463000D0CC8091C60380FF72CC8E7F8093C6035E
:104640006091C6037091C7038091C8039091C9031C
:104650000E9493160E948B088091F00281608093E3
:10466000F0022FEF30E782E0215030408040E1F748
:1046700000C000000E94860C81C994ECE9169CE5FC
:10468000F90609F45BCC4BE657E165E777E1E5EC29
:10469000EE16ECE5FE0609F44ECC9BCCF9ECEF16D9
:1046A000FCE5FF0609F459CC88F437ECE3163CE549
:1046B000F30609F44DCC4EE557E161E577E198EC5E
:1046C000E9169CE5F90609F436CC83CCEAECEE1643
:1046D000ECE5FE0609F446CC4FE757E161E977E1E6
:1046E000FBECEF16FCE5FF0609F425CC72CC21EDBE
:1046F000E2162CE5F20609F44ACCB8F48EECE81682
:104700008CE5F80609F43BCC08F436CCEFECEE1659
:10471000ECE5FE0609F438CC6EE089E0F0EDEF162A
:10472000FCE5FF0609F42DCC54CC24EDE2162CE573
:10473000F20609F432CC78F482EDE8168CE5F8063E
:1047400009F428CC61E088E193EDE9169CE5F906CF
:1047500009F4EACB3ECCE5EDEE16ECE5FE0609F4F5
:104760001FCCFDE5EF16FF0609F408C932CC2AE597
:10477000E2162DE5F20609F47ACC78F4E1148CE522
:10478000F80609F410CC9EEDE9169CE5F90609F04F
:1047900020CC0E94BC170E947D16ECE5EE16EDE5DC
:1047A000FE0609F40DCC08F464CC27EAE2162DE5E8
:1047B000F20689F30ECC1F93CF93DF9380911702FB
:1047C000807F09F049C080911402882309F444C015
:1047D00080914902D09118026091120270911302E7
:1047E000A0911502B0911602C62FC72316E0D81764
:1047F00099F190E0109711F0CF3F19F4019687706E
:10480000F6CF189F9001199F300D1124F901E75E32
:10481000FD4F41814713F2CF40814613EFCF4281D4
:104820004111ECCF438154814A1B5B0B483C51053D
:1048300028F7809117028F70806180931702F90129
:10484000E25EFD4F80818F708061808382E192E023
:104850000E94601C0E94320BDF91CF911F9108953E
:10486000A1E1B0E0E6E3F4E20C9482328C0185E051
:10487000F801DE011D9601900D928A95E1F7F8018D
:10488000E28082E1A82E82E0B82E6091150270913C
:1048900016026115710509F426C19091120240912A
:1048A0001302892F84238F3F09F41DC12081318198
:1048B000C380D480F0901402F601E61BF70BFF20B2
:1048C00009F4DCC080911702582F507FE83CF105B5
:1048D00008F09FC051116BC0FE2C431314C09213FB
:1048E00012C0E11010C08F70806180931702C50163
:1048F0000E94601C80911702F80185838F2D6196BC
:10490000EAE00C949E32C114D10429F0822F832353
:104910008F3F09F011C180E0F82FF170DF2E80FF8A
:104920003CC0809149024091180256E0841315C0A2
:104930002D873E878D859E850E941911292F2295EE
:104940002F702230F0F0243018F59F70F1F0F8014C
:104950009581907FD1F4D12C1EC090E0589FF0013A
:10496000599FF00D1124E75EFD4F6181361306C09B
:104970006081261303C06281E6120FC00196877022
:10498000D5CF9F7011F0882331F3805E883018F303
:10499000C8010E94601CFD2CB1CFEE2009F4AECFFF
:1049A00080911702816080931702F12CA7CF4313E7
:1049B00006C0921304C0F801EE2009F479C0C801C2
:1049C0000E942611882309F1EE20F9F08091170248
:1049D000803270F0209112023091130238872F83B9
:1049E0001986DB86CA868C87CE0107960E94601CDA
:1049F00086E0F801A2E1B2E001900D928A95E1F71C
:104A00000E94DB23FF24F39479CFC8010E94601C2D
:104A1000F9CF51110AC082E192E00E94601C86E049
:104A2000F50111928A95E9F7C0CF43130FC0921395
:104A30000DC0E1100BC0F8018583C8010E94601C05
:104A400086E0F50111928A95E9F758CFC8010E94D6
:104A500026118823D1F2EE20C1F280911702803214
:104A600038F220911202309113023A8329831B827B
:104A7000DD82CC828E83CE010196B8CFE83CF10571
:104A8000F8F6FE2CEE2009F243131FC092131DC04E
:104A90008091170280FD10C0982F907F69F0F80177
:104AA0008583903F31F0982F907F905F8F70892B96
:104AB0008583C8010E94601C86E0F801A2E1B2E093
:104AC00001900D928A95E1F719CFC8010E94261135
:104AD00081118ECF80911702816080931702C801E7
:104AE0000E94601C0BCFEE2009F48FCFC8010E94FA
:104AF0002611F82E882309F488CF86E0F801A2E178
:104B0000B2E001900D928A95E1F7809112029091A6
:104B100013020E94191192959F70963051F4863FAE
:104B200041F08091110291E08927809311029093C6
:104B300010020E94DB23E2CE81E08E25EDCEA7E1BC
:104B4000B0E0E5EAF5E20C9488326D8B7E8B8F8BBA
:104B5000252F6111109253028E899F89892B19F09C
:104B60002F3F09F07DC01A8A198A4B8B2C8B85E068
:104B7000FE017396DE011D9601900D928A95E1F774
:104B800086E0FE013D96DE01179601900D928A9512
:104B9000E1F7CE0107960E943024882379F016E0D1
:104BA0008091490290911802891347C06796E4E00A
:104BB0000C94A432802F8095892387C086E0FE0163
:104BC0003796DE01119601900D928A95E1F78A855C
:104BD0009B85892B21F388859F8189238F3FF9F25B
:104BE0002091180230E0C901019687709927409101
:104BF00049024817190671F40E94B3131092180263
:104C00001092490286E0E2E1F2E0DF011D928A950E
:104C1000E9F7C5CF96E0929FD001939FB00D112484
:104C2000A75EBD4FFE01319601900D929A95E1F776
:104C3000809318020E94320BB2CF819FC0011124D1
:104C4000875E9D4F0E943024882309F4AFCF809166
:104C5000490290E001968770992780934902A0CF7E
:104C60002A3008F080CF463008F07DCFE42FF0E006
:104C700086E0289FE00DF11D1124DF01A770BB27FE
:104C800001E010E001C0000FAA95EAF7DF0193E010
:104C9000B695A7959A95E1F7A251BE4F9C91809148
:104CA0001102611102C0892F8023882309F482CF69
:104CB000AF01440F551FFA01EF5BFE4F2491405C9A
:104CC0005E4FFA014491892F802B8C934CCFAFE03B
:104CD000B0E0EDE6F6E20C947F328E010F5F1F4FDD
:104CE0008AE0D8011D928A95E9F78DE8C82E81E007
:104CF000D82EF12CE12CAA24A394B12C28E9822EE1
:104D000021E0922EF60181916F018F3F09F442C09C
:104D1000F894E82FE295EF70F0E021A18F70A501E3
:104D200002C0440F551F8A95E2F7CA01922F982BB3
:104D300091A392A18095892382A3789400C0E2E98F
:104D4000F1E0712C31E021912F3F09F46BC0A22FCB
:104D5000A295AF70B0E090968C9190E02F7002C059
:104D6000959587952A95E2F780FD5CC0832F782A78
:104D7000330F8E169F0639F7F601319780818F3FEA
:104D800011F00E94400950EA5A95F1F7F801EE0D32
:104D9000FF1D70828FEFE81AF80A95E0E916F1041A
:104DA00009F0B0CF4AE050E0B80180E992E00E94FB
:104DB0005533009741F02AE0F801A0E9B2E00190F4
:104DC0000D922A95E1F700919B02892B69F181E010
:104DD000809359020E946C1B909358028093570253
:104DE00080915702909158020E945D1B059700F137
:104DF00010E002521D4F45E050E060E972E0C8014A
:104E00000E945533D12C892B51F085E0E0E9F2E086
:104E1000D80101900D928A95E1F7DD24D394109288
:104E2000590207C080E0A3CF809159028111D8CFE9
:104E3000D12C0E94C80FC82EE0919B02DE011B9668
:104E40007D01882309F47AC085E01D928A95E9F7EF
:104E50000E2F10E002521D4F80918B028A30D8F540
:104E600044EE59E1B701C8010E94950F882309F467
:104E700054C043E859E1B701C8010E94950F882347
:104E800009F44BC048E858E1B701C8010E94950FEA
:104E9000882309F442C047E258E1B701C8010E94E3
:104EA000950F8823D1F110928B0280919A0290E0A5
:104EB00045E050E0B70182529D4F0E94553321E0FA
:104EC00020936002892BE1F4C12C8C2D8D292F9623
:104ED000EDE00C949B3280915A0290915B020E940B
:104EE0005D1B843F914008F0BBCF80916002882316
:104EF00059F385E0F70111928A95E9F71092600263
:104F0000A0919A02B0E0A252BD4F85E0FE013B960F
:104F100001900D928A95E1F7D8CF80918B028F3F57
:104F200031F08F5F80938B028A3008F4BECF0E94ED
:104F30006C1B90935B0280935A02D7CFF0E0E25251
:104F4000FD4F85E0A4E7B2E001900D928A95E1F76C
:104F500065E070E084E792E00E946F08809373023E
:104F60004091B60250E06091B50270E06F547D4F01
:104F7000C7010E9462338B8580937A0261E070E002
:104F8000C7010E946F088093790280907B02909005
:104F90007C02A0907D02B0907E0280915C02909194
:104FA0005D02A0915E02B0915F0288169906AA0682
:104FB000BB06D1F080925C0290925D02A0925E02EC
:104FC000B0925F020E94C80F81110EC00E941D089E
:104FD000861A970AA80AB90A80928C0290928D02CA
:104FE000A0928E02B0928F0280918602882309F4EB
:104FF0006CCF80FF0DC080917F0280FF2AC090910E
:10500000C60391609093C60360E086950E94FB1BE7
:105010008091860281FF09C020E040918202609168
:105020008102809180020E94A6168091860282FFF2
:1050300006C080918502882379F00E94E01B809150
:10504000860283FF03C081E08093EB021092860208
:105050003CCF0E947D0FDCCF0E948B08F0CF1F92C7
:105060001FB61F9211248F939F93AF93BF9380918C
:10507000E205811113C08091E3059091E405A091B0
:10508000E505B091E6054196A11DB11D8093E305AC
:105090009093E405A093E505B093E605BF91AF9129
:1050A0009F918F911F901FBE1F901895CDB7DEB7AF
:1050B000AD970FB6F894DEBF0FBECDBF85B7806841
:1050C00085BF85B7806885BF84B7877F84BF0FB6EB
:1050D000F894A89580916000886180936000109298
:1050E00060000FBE80E890E00FB6F89480936100F6
:1050F000909361000FBE8EE399E09093E501809359
:10510000E4010E9482060E944D078091E2008460C3
:105110008093E20078948091F7058823A1F01091A4
:10512000E9001F709091EC00892F817090FD80E85C
:10513000182B1092E9008091E80083FD0E94BF13B4
:105140001F701093E90082E084BD93E095BD9AEF53
:1051500097BD80936E0010928C0210928D02109277
:105160008E0210928F020E945011811102C00E9483
:105170009D100E94C80F80933001809130018823D8
:1051800009F46DC01092540184E2809355010E948D
:10519000C80F81110E94043180913001809130014B
:1051A00095E0811190E090939B0285E0891B8093AC
:1051B0009A020DE811E062E9E62E61E0F62ED801D0
:1051C0008D918D018F3F11F00E944009E016F1068C
:1051D000B1F702E911E058E9E52E51E0F52EF801AA
:1051E00081918F018F3F11F00E944009E016F10676
:1051F000B1F78AE0EEEDF2E0DF01282F1D922A954B
:10520000E9F7E0E9F2E0DF011D928A95E9F70E94F3
:10521000101A811102C00E94BC1782E090E00E9427
:105220006B338093A3020E94691190939D02809337
:105230009C020E946726EFE3FCE93197F1F700C07A
:1052400000000E9467268091DE0280FF0CC06FEF95
:105250007FEF90E080E00E949D330E940C0884E282
:105260008093540192CF83E090E00E946B330E94C0
:1052700023120E94C80F882309F4E2C083E08093C0
:10528000D90280FDDFC080E88093CB030E94BE2F4F
:105290006DE070E08BE792E00E94B80B892BE9F596
:1052A0008091D90263E070E081FDCEC088E792E092
:1052B0000E94B80B892B89F56DE070E088E692E0DA
:1052C0000E94B80B892B49F50E941D08605A754150
:1052D0008F4F9F4F6093D6057093D7058093D80565
:1052E0009093D905EEECF3E080E092E0DF019C01C1
:1052F0001D9221503040E1F7F093D505E093D4059D
:105300008FEF9FEF9093CD038093CC0381E0809348
:10531000DB058093DA051092DA0280919E028111FA
:1053200038C00E94101A811104C00E94BC170E944C
:10533000A31788E090E00E9473336093C6037093D4
:10534000C7038093C8039093C9038091F0028360E0
:105350008093F0026E7F71F40E94A31788E090E0C2
:105360000E9473336093C6037093C7038093C8038E
:105370009093C9030E9492080E948B088091C603F3
:1053800080FF04C060E086950E94FB1B81E0809353
:105390009E029091300181E098279093B502382FBA
:1053A000391B3093A002909130018093B602909106
:1053B000300180939F0280913001811106C084EFFB
:1053C00080933E0185EF80933D0120913E01E22FC5
:1053D000E295EF70F0E061A12F7081E090E0AC0108
:1053E00001C0440F2A95EAF7342F3095362331A3B4
:1053F00022A1242B22A320913D01E22FE295EF7000
:10540000F0E031A12F7001C0880F2A95EAF7982F9C
:105410009095932391A392A1892B82A3EFE8F1E0C9
:105420003197F1F700C000001091B60267EB72E00F
:105430004EE351E08DE3E82E81E0F82EFB012FC012
:1054400080E01DCF80E220CF85E792E031CFDA0106
:105450002D91AD01822F82958F7090E0DC019096A6
:105460008C9190E02F7002C0959587952A95E2F770
:105470008170D7019D917D01292F22952F7030E0F9
:10548000D90190962C9130E09F7002C035952795F8
:105490009A95E2F790E020FD92E0892B81938E2F80
:1054A000861B8117A0F20E94C80F811102C00E94C2
:1054B000073181E391E09093DF058093DE058091D1
:1054C000F70500E112E1853009F48DC00E946726DE
:1054D00034EAE32E32E0F32E4EED442E42E0542E19
:1054E0002EEA32E0D201F70191918D912E173F07FC
:1054F00009F483C09817C1F30E94C80F882E2EEDBF
:10550000C22E22E0D22E10E0D6010D916D01F701DE
:1055100091907F01901629F19026B12CAA24A39492
:10552000892D8A21B1F08820A1F0BEA21FA391E0AD
:10553000802F8A2109F490E098A70E946C1B81605B
:10554000782F9AA789A74EA15FA168A58AA50E9476
:105550009F25B394AA0CF6E0BF12E2CFF701319772
:1055600000831F5F1A3081F60E941D08CC24C3946B
:1055700065C08091F705843031F10E94E20B1092F2
:10558000E205E8E1F0E020E40FB6F894A895E09396
:1055900060000FBE2093600083B7817F846083BF6B
:1055A00083B7816083BF7894889583B78E7F83BFEC
:1055B0000FB6F894A8958091600088618093600090
:1055C000109260000FBE8091F605882361F00E9462
:1055D0006726EEEDF2E081918111B1C488EE92E090
:1055E0008E179F07C1F78091F705853009F4C1CF69
:1055F0000E94B3130E94EB0F69CF98137DCF0E94D6
:105600006C1B8C018091A1029091A20208171907CE
:10561000A1F08FEF89A38AA31BA20E946C1B81605B
:10562000782F9DA38CA349A15AA16BA18DA10E94A3
:105630009F251093A2020093A102C12C0E94C80FC3
:105640008091EF02882309F464C08091EE02E0911A
:10565000C603E695E81BE093EA02823009F0CFC06A
:10566000F0E0EA56FD4FE4910E2F10E099E6E92EA6
:105670009FE0F92E8091EB02882361F01092EB02FB
:105680000E94D51B9093E9028093E8021092ED02EC
:105690001092EC020E94D51BE091E802F091E90221
:1056A0009C012E1B3F0B2F3F3F4798F52091B002E6
:1056B0002223B1F01092B0022091AE023091AF02DD
:1056C000821B930B8F3F9F4758F4205D3A483093DD
:1056D000AF022093AE028091F00288608093F002C6
:1056E000A090EC02B090ED02E00FF11FF093E90200
:1056F000E093E80288EE92E0F70109958091EC02D0
:105700009091ED02892B29F4AB2819F081E0809368
:10571000B002E12CD12C8091B602E81608F4C9C081
:10572000D1100E94220B8091DB05882351F18091DA
:10573000DB029091DC020E945D1BC29708F035C12C
:105740002091CC033091CD032115310509F08DC195
:105750008091DA058823A9F00E941D080091D605E2
:105760001091D7052091D8053091D905601B710B98
:10577000820B930B6F3F7F4F8F4F9F4710F40E9418
:10578000E20BC11001C0D1100E94FD0B0E94EB0F73
:105790009091DD02891721F08093DD020E941D089F
:1057A0008091F705843009F08ACE83E08093E90088
:1057B0008091E80082FF83CE8091E80090E085FF31
:1057C0000CC00E94A10690E2E92EF12C8E010F5F21
:1057D0001F4F882309F426C291E08091E8008B775F
:1057E0008093E800992309F46ACEE981E150E3311E
:1057F00008F07CC2F0E0EE52FC4C0C940133863091
:1058000059F4F0E0ED56FD4FE4910E2F10E089E5DC
:10581000E82E8FE0F82E2ECF893061F4E695F0E087
:10582000E057FD4FE4910E2F10E0BCEAEB2EBEE0F6
:10583000FB2E20CF8F3061F4E695F0E0E357FD4F6B
:10584000E4910E2F10E0AEE1EA2EAEE0FA2E12CF78
:10585000853159F4F0E0E657FD4FE4910E2F10E04A
:10586000F6E9EF2EFDE0FF2E05CF08E210E061E142
:10587000E62E6DE0F62E883109F4FCCE833249F431
:10588000E8E8F2E005911491E5E0EE2EEFE0FE2E5F
:10589000F1CE04EF11E071EDE72E7CE0F72E8432BB
:1058A00009F4E8CE00ED17E057E0E52E58E0F52EBC
:1058B000E1CE0E2D10E0F801E25CFE4F8081E82F72
:1058C000E295EF70F0E0E0A1F0E08F7002C0F59596
:1058D000E7958A95E2F7E170D801A35CBE4F2C9161
:1058E000A22FA295AF70B0E090968C9190E02F70AF
:1058F00002C0959587952A95E2F780FD54C080E017
:105900008E2BD801A954BD4FEC919E2F937089170F
:1059100009F447C0EE0FEE0FE82BEC93F090B502C0
:10592000FE0CEF70F0E0E856FE4F0D541D4F8081E5
:10593000D8019C91890F8C9320E082308CF0EF2D60
:10594000F0E0EF54FD4F80818F5F808389EAFF2074
:1059500021F0B1E0FB1203C081E50E94C11221E0F9
:10596000F80180818F3F8CF4EF2DF0E0EF54FD4F74
:105970008081815080838AEAFF2021F0F1E0FF12CC
:1059800003C082E50E94C11221E0D8018C91082E4B
:10599000000C990B62E070E00E94CB32F80180832A
:1059A000D22AE394B8CE82E0ABCF0E946C1B9093D6
:1059B000DC028093DB028EEC93E09093D50580931C
:1059C000D4050E94C80F60E0882309F449C080EC28
:1059D00092E00E946E1360E08AEB92E00E946E13E8
:1059E00081E00E948013809104060E94A70B813001
:1059F00059F1882369F0823059F1833069F160E010
:105A000082EA92E00E946E1381E00E94801305C03A
:105A100060E084EB92E00E946E1360E080EA92E026
:105A20000E946E130E94EB0F81FB662760F98AE9E2
:105A300092E00E946E1381E00E9480138091DB054A
:105A4000882309F485CE7CCE60E080EB92E0E3CF42
:105A500060E08CEA92E0DFCF60E088EA92E0DBCFA2
:105A600082EC92E00E946E13E9CF8091DA0261E04D
:105A700070E081116DCE082F10E07B01082E02C06E
:105A8000EE0CFF1C0A94E2F7A9014E215F21452B81
:105A900009F447C09091D90290FD45C08295880FC6
:105AA0008076809341019801369527953695279504
:105AB00020934401815E809342011092450124E6C7
:105AC00030E047E050E06FE371E088E70E945E302D
:105AD000892B09F03DCEA80135E0440F551F3A95BA
