:100000000C94FF030C941C040C941C040C9463319A
:100010000C941C040C941C040C941C040C941C04E0
:100020000C941C040C941C040C94CF270C948B2768
:100030000C94CC280C941C040C941C040C941C04EC
:100040000C941C040C941C040C941C040C941C04B0
:100050000C941C040C94A8280C941C040C941C04F0
:100060000C941C040C941C040C941C040C941C0490
:100070000C941C040C941C040C941C040C941C0480
:100080000C941C040C941C040C941C040C941C0470
:100090000C941C040C941C040C941C040C941C0460
:1000A0000C941C040C941C040C941C0405010902FF
:1000B000A10185020901A100050919012905150001
:1000C00025019505750181029501750381010501E1
:1000D000093009311581257F950275088106093897
:1000E0001581257F950175088106050C0A380215D2
:1000F00081257F950175088106C0C005010980A191
:1001000001850319012AB700150126B7009501756D
:10011000108100C0050C0901A101850419012AA064
:1001200002150126A002950175108100C00660FF2E
:100130000961A1010962150026FF0095207508815B
:10014000020963150026FF00952075089102C0057D
:10015000010906A101050719E029E7150025019508
:1001600008750181029501750881010507190029AB
:10017000FF150026FF009506750881000508190186
:100180002905950575019102950175039101C0013D
:10019000000005010502050305040505050006012B
:1001A0000602060306040605060007010702070308
:1001B00007040705070008010802080308040805EA
:1001C00008000901090209030904090509000001E1
:1001D0000002000300040005000001010102010308
:1001E00001040105010002010202020302040205EA
:1001F00002000301030203030304030503000401D7
:10020000040204030404040504FD377A585A00006C
:1002100004E6D6B4460200210116000000742FE562
:10022000A3E008E2024C5D003D8889C65436C3173E
:100230004FE4E62B87DC61F128B5AEA0A33C3CF48B
:100240005F7424B52C3D20C7689B3A8E08CE16E219
:100250008FDD74FFA04F08D43D201DD0558F11BBFA
:10026000B13287318A341491884A492E35E0342DD1
:100270000C400E9A3CEAF71ADE8FB7A230CF5983B2
:10028000F223EF20330CC056779F9CED4D7DAF3F9E
:10029000D6C289956075A12F2E891DDC43DF675F6B
:1002A00081D38DC5C3D81411649D6290F38B2C3615
:1002B0005D0B6F74C04E46B3DED00F56EE8AE2DAA5
:1002C000B7FB9EFD0D52C588DC45FF874E8E61CF82
:1002D00038B24884655A4D7476CD19495E5DD5F1C2
:1002E000A4BAB0B017AFD23C9471A8793419EDC755
:1002F000367C4DB86CFF0F9FC4D682F61E028C6E02
:10030000040164DC13F769236B5C1B173425A3AA73
:10031000CCB1CE1B6458512974EBCF67BC05AF68D4
:1003200001AB1F9DBAF8424C73DA53FA234F3ED10A
:10033000FCDE9F32459070FE604F3037942A16C71E
:10034000A89A52BA8BD32488E60234B33230E25BE7
:1003500002F96739FB000ED8394232BA69E6C7B6EE
:10036000B4B1109460026B794FB8BDC9E9DA587620
:1003700032299FB653855DFDDEF3B603CD39B7DC78
:100380004DA942249A5411D726B6B55B33ADEBADD7
:10039000F5D7D48445A32FAECFE7FD52418C7535F8
:1003A000D1ED6688C5C3B66ED8A73473063DC8E0E4
:1003B0006EBAE463C7C59C31D05BE096CC2FBE1FFC
:1003C00053F74A885C950AFE0A7AB34C3248230BED
:1003D00057D3C22EFF6C14DF96681887B1137717B6
:1003E00088D21F2EF65EF6EA81BD9E780C99ADFB91
:1003F000AE8ACB3F227CC2541095BA3303810447A6
:10040000A8821B9EBE3EE2CEBBBFD790D6CCA1CD6C
:10041000DE15224B703556F3C0AEF2CA6FB30651EB
:100420006C763356767F419828CEB0EB9E5CBB68E5
:10043000AC9CF7C21DFD6BEB2C49B7166F54BB2863
:1004400052D4BC222279F621D7640A4DFF6E6B6626
:100450001140C16B4059A09581608C237F04137EAD
:100460009770EC23369BC1F35CD589B57D789644B3
:100470002D57F1A400522FF7134D662E810001E88D
:1004800004E311000063CCEC15B1C467FB0200006B
:10049000000004595A01000100010001000100019F
:1004A0000001000100010001000100010001000144
:1004B000000100010035001E001F00200021002265
:1004C00000290014001A000800150017002B000472
:1004D000001600070009000A00E1001D001B0006CD
:1004E0000019000500E300E200E00002512800A826
:1004F000003500270026002500240023002A0013D1
:100500000012000C0018001C00340033000F000E15
:10051000000D000B00E50038003700360010001118
:1005200000E700E600E40003512C00000035001E47
:10053000001F00200021002200290014001A0009D9
:100540000013000A002B0004001500160017000716
:1005500000E1001D001B00060019000500E300E299
:1005600000E00001002800A8003500270026002533
:1005700000240023002A0033001C0018000F000D87
:1005800000340012000C00080011000B00E50038D8
:10059000003700360010000E00E700E600E400011E
:1005A000002C00000001003A003B003C003D003EF2
:1005B0000035001E001F0020002100220001001E47
:1005C000021F0220022102220201002E002D002E15
:1005D000022F0230020100010001000100010001B0
:1005E00000440043004200410040003F0045002716
:1005F00000260025002400230031022702260225C0
:100600000224022302010031003302330030002FA4
:1006100000010001000100010001000100010001D2
:1006200000010001000100010001004900460065D1
:1006300000000000000100E200E000E100000039DD
:100640000001007A007B007C007D000000010001B9
:100650000001000100010001000100010001000192
:1006600000010001002A0001000100520001004BBE
:10067000002A004C004F00510050004E00010000C5
:100680000001000000010000000100010001000164
:100690000001000100000000000000000000000058
:1006A000000000000000000000000000000000004A
:1006B0000000000000000000007E0F00D4FFFFFFDC
:1006C000C70000007800000000000000002A2B286E
:1006D000000000000000000000000000000000001A
:1006E00029000000002C1E34202122243426272536
:1006F0002E362D3738271E1F20212223242526336E
:1007000033362E37381F0405060708090A0B0C0D6F
:100710000E0F101112131415161718191A1B1C1D81
:100720002F3130232D350405060708090A0B0C0D5F
:100730000E0F101112131415161718191A1B1C1D61
:100740002F3130354C09025B00030100A0FA090487
:1007500000000103010100092111010001224000F4
:1007600007058103080001090401000203000000DD
:100770000921110100012222000705820320000146
:100780000705030320000109040200010300000023
:1007900009211101000122810007058403200001C5
:1007A000120100020000000832FC87020100010271
:1007B00003011C037600690061006C003A006600CA
:1007C0003600340063003200620033006300000032
:1007D0000C0353006F0066006C00650000001A03F4
:1007E0004A006F007300650066004100640061000C
:1007F0006D00630069006B0000000403090411240C
:100800001FBECFEFDAE0DEBFCDBF11E0A0E0B1E068
:10081000E0E3F7E602C005900D92A63AB107D9F7DA
:1008200024E0A6EAB1E001C01D92A135B207E1F7CC
:100830000E94F3280C946B330C940000E8EDF0E078
:1008400080818E7F80831092E2001092DA001092F5
:10085000E100A0EEB0E08C9181608C9380818F7775
:10086000808319BCA7EDB0E08C918E7F8C93808142
:100870008F7E80831092390408952091E400309196
:10088000E50095E6A9012091EC00822F817020FF00
:1008900006C08091E80080FF06C080E008952091A6
:1008A000E80022FD1AC080914F04882389F085302A
:1008B00089F08091EB0085FD0FC02091E40030911C
:1008C000E50042175307F9F29150E1F684E00895EC
:1008D00082E0089583E0089581E00895EF92FF9209
:1008E0000F931F93CF937C018B010E943D04C82F6F
:1008F000811117C08091E80085FD0BC08091E80050
:100900008E778093E8000E943D04882399F3C82FD6
:1009100008C0F70181917F018093F1000150110916
:1009200049F78C2FCF911F910F91FF90EF90089571
:10093000CF93FC0180914F04843001F5C091E90010
:10094000CF702091EC00922F917020FD90E8C92B80
:1009500082E08093E9008091E80080FF0CC050E0C5
:1009600040E060E270E0CF010E946E048091E800F8
:100970008E778093E800CF70C093E900CF910895FF
:100980008091470487FF13C08091E80082FF06C072
:100990008091E8008B778093E80004C080914F0439
:1009A0008111F2CF089580914F048823D9F380916B
:1009B000E80080FFF8CF8091E8008E77ECCF982F89
:1009C0009093E900242F762F50E0891731F0709131
:1009D000EC002091ED005091F00021FD07C09F5FD9
:1009E000973071F78093E90081E008953091EB0032
:1009F0003E7F3093EB003091ED003D7F3093ED0072
:100A00003091EB0031603093EB007093EC00209359
:100A1000ED005093F0002091EE0027FDE0CF80E044
:100A20000895B0E0A0E0E7E1F5E00C948932C8ED6C
:100A3000D0E088818F7E8883E7EDF0E0808181605F
:100A4000808384E082BF81E08093390488818E7F37
:100A5000888302EE10E0F80110821092DA0081EE35
:100A6000C82ED12CF601108288818F7788838881E7
:100A70008068888388818F7D888319BC10924F0499
:100A800010924604109245041092440490EEE92E10
:100A9000F12CF70180818B7F80838881816088833E
:100AA00042E060E080E00E94DF04F60180818E7FFA
:100AB0008083F80180818160808380818860808369
:100AC000F70180818E7F8083888180618883CDB7A4
:100AD000DEB7E8E00C94A532FC0180914D049091C2
:100AE0004E0486179707A0F06115710529F49091BF
:100AF000E8009E779093E80090E06115710551F44D
:100B0000911108C08091E80082FF34C080E0089510
:100B1000BC01F2CF80914F048823C1F18530C1F12F
:100B20008091E80083FD30C08091E80082FDEACF2B
:100B30008091E80080FFE1CF8091F3002091F200E6
:100B4000382F6115710519F02830310558F091E002
:100B50002830310509F090E02091E8002E772093AD
:100B6000E800CBCF81918093F100615071092F5F34
:100B70003F4FE7CF80914F04882341F0853041F00B
:100B80008091E80083FFBECF81E0089582E0089560
:100B900083E00895089580913B04089587E797E7DF
:100BA000909301088093000888E19AE00FB6F894CA
:100BB000A895809360000FBE90936000FFCF9C01CA
:100BC0004FB7F8948091320490913304A09134048B
:100BD000B09135044FBF821B930B08952FB7F89443
:100BE0006091320470913304809134049091350403
:100BF0002FBF08952FB7F894809132049091330459
:100C0000A0913404B09135042FBF08959C01FC01DC
:100C100032969FEF80E04191461751F09F3F19F4C3
:100C2000411101C0982F8F5F8630A9F79F3F09F4CB
:100C30000895290F311D97FD3A95F90162830895B2
:100C400020912F04309130042817390771F09093C8
:100C5000300480932F04E0912D04F0912E043097FE
:100C600021F00084F185E02D0995089520912B0451
:100C700030912C042817390771F090932C0480933D
:100C80002B04E0912D04F0912E04309721F0068082
:100C9000F781E02D09950895452B39F0682381E00F
:100CA0006F3F09F080E08170089581E0FCCFDC01A6
:100CB0006091200480912104962F891301C008952A
:100CC000292F30E0F901EE0FFF1FE85EFB4F408156
:100CD00051814A175B07A1F487E08A9FA0018B9F8F
:100CE000500D112440525C4F81E0FA018483961329
:100CF000E6CF2F5F3F4F23703327209320040895C2
:100D00002F5F3F4F922F9370D8CF10927D03109298
:100D10007C03E0EEF3E08581811102C0148216822B
:100D2000379684E0E831F807B1F70895FC01680FC1
:100D3000791F8FEF91E32191822728E030E087FF30
:100D400009C0880F892721503109C9F7E617F7072D
:100D500091F70895880FF7CFE6EBF2E090E080E09E
:100D600060EF76E247E157E222E536E27783668379
:100D700051874087338722879587848701963E96DF
:100D80008830910599F7089581152CE5920741F473
:100D90002091760330917703232B11F490E080E0CB
:100DA00008950E94FA059C019091A0028091A102F1
:100DB000982B21F030939D0220939C029091A202E7
:100DC0008091A302982B21F030939B0220939A02EA
:100DD000E0912D04F0912E04309749F082E0809349
:100DE0009E020480F581E02D8EE992E00995089538
:100DF0009091A002803F59F48091A10287FF0DC01D
:100E00001092A10291110BC01092980208C0813F6C
:100E100081F48091A10218169CF3992381F08091AE
:100E2000A2029091A302892B09F064C0109297024C
:100E30000895823F49F497FFF0CF1092A00280916D
:100E4000A1028111ECCFE0CF833F19F41916ACF366
:100E5000E4CF2091A202893F29F41216F4F61092F1
:100E6000A202DBCF8A3F19F427FFD7CFF8CF20911A
:100E7000A3028B3F29F427FFD0CF1092A302CDCF3E
:100E80008C3F19F41216CCF3C8CF843F31F4809113
:100E90009F028E7F80939F02C0CF853F21F4809177
:100EA0009F028D7FF7CF863F21F480919F028B7F39
:100EB000F1CF873F21F480919F02877FEBCF883F5E
:100EC00021F480919F028F7EE5CF8D3F31F4809198
:100ED00099028E7F80939902A0CF8E3F21F480915A
:100EE00099028D7FF7CF8F3F09F097CF80919902BC
:100EF0008B7FF0CF08958091990280FD16C081FD0F
:100F000016C082FD16C0809197028823A1F0883216
:100F100080F428E0829FC001112468E270E00E9402
:100F2000B632862F672B39F0089582E0089584E069
:100F3000089588E0089581E008958091990280FDE8
:100F400014C081FD14C082FD16C0809198028823D0
:100F500081F08E3180F420E5829FC00111246EE182
:100F600070E00E94B632862F089584E1089588E2E9
:100F7000089588E0089580E50895803F31F40E9447
:100F80009D0781958093A1020895813F19F40E94E5
:100F90009D07F8CF823F31F40E949D078195809391
:100FA000A0020895833F19F40E949D07F8CF893F5E
:100FB00029F40E947B078093A20208958A3F21F4BE
:100FC0000E947B078195F7CF8B3F31F40E947B070E
:100FD00081958093A30208958C3F19F40E947B07AA
:100FE000F8CF843F31F480919F02816080939F020B
:100FF0000895853F21F480919F028260F7CF863F5C
:1010000021F480919F028460F1CF873F21F4809189
:101010009F028860EBCF883F21F480919F0280611E
:10102000E5CF8D3F31F480919902816080939902E0
:1010300008958E3F21F4809199028260F7CF8F3F0F
:10104000B9F7809199028460F1CF80E00895F89417
:10105000E82FE295EF70F0E031A1282F2F7081E0AA
:1010600090E001C0880F2A95EAF7982F9095932376
:1010700091A392A1892B82A37894089590916D02F7
:1010800092FF06C0282F28712830F9F4877F8460EA
:1010900093FF06C0282F28712831F1F4877E8461E0
:1010A00020916E0220FF06C0382F38713830D9F4F5
:1010B000877F816021FF06C0282F28712831D1F455
:1010C000877E816194FD877E0895282F24712430C6
:1010D000F9F68B7F8860DCCF282F2471243101F74B
:1010E0008B7E8861DDCF382F3171313019F78E7FDB
:1010F0008860E0CF282F2171213121F78E7E886111
:10110000E1CFCF93DF93EC0182389105B1F108F084
:1011100040C08133910509F49DC048F5893291059D
:1011200009F48DC08A9709F49CC0C11522E5D20745
:1011300008F0C8C0C11531E5D30708F030C1C83E7A
:10114000D10508F0A3C0C13ED10588F5C83AD10544
:1011500008F08EC0C53AD10508F004C1C130D105F0
:1011600031F1209721F1C430D10508F545C0853310
:10117000910509F45FC0C997C1F680916D02837033
:1011800009F047C180916E0283FF11C0C9E2D0E02F
:101190000EC0833E910599F170F4803E910501F1F6
:1011A000823E910511F680916D0282FD21C0CE0133
:1011B000DF91CF910895863E910561F1873E9105BB
:1011C00071F1843E910509F0B0CF80916E0281FFEC
:1011D000EECF80916D02C7EED0E084FD0DC0E7CF69
:1011E00080916D0280FD33C090916E0290FFDFCF41
:1011F000C3EED0E084FFDBCFD0E0C0E0D8CF809159
:101200006D0282FD03C190916E0290FD02C184FFC8
:10121000CECFF2CF80916D0283FDDDCFC8CF80911C
:101220006D0283FDF9C090916E0291FFF0CFC4EE84
:10123000D0E0BDCF80916D0285FFB9CFA7CF80915F
:101240006D0285FDECC080916E0283FFB0CFC9E3D3
:10125000D0E0ADCF80916D0286FFA9CFCAE2D0E089
:10126000A6CF80916D0286FFA2CFC1E3D0E09FCFD1
:10127000CF3BD10508F6C85AD0E0CC0FDD1FCC5BC0
:10128000DE4F0990D881C02DD46491CFC11540E2C2
:10129000D40758F4C11581E0D80708F088CFC03FC3
:1012A000D10508F4A9CFD06582CFC11520E4D207BB
:1012B00008F4A2CFC11530E5D30708F05BC0DF709A
:1012C000D06A75CFC11546E5D40718F5C11585E577
:1012D000D80708F07DC0C11524E5D20708F073C017
:1012E0009C2F969596959E0123703327C115D34563
:1012F00008F45AC0C1E0D0E002C0CC0FDD1F2A952F
:10130000E2F730E2939FC0011124C82BD92BDA6891
:101310004ECFC11589E5D80768F4C11528E5D20775
:1013200008F061C0C11537E5D30708F065CFDD27A8
:10133000D0663DCFC1154AE5D40708F459C0CE01A7
:1013400090568115904208F057CF8D2F8F710E94D3
:101350003E0890E0982F882788279F719C012C2BAE
:10136000E9013FC0C55AD0E0CF5BDE4FC881D0E075
:10137000D0641DCF2C2F26952695237040E2249F04
:10138000900111248C2F8370C1E0D0E002C0CC0FFB
:10139000DD1F8A95E2F7C22BD32BDD6808CFDC2F47
:1013A000CC27C16FD06A03CFC1E0D0E002C0CC0F20
:1013B000DD1F2A95E2F720E2929FC0011124C82B7D
:1013C000D92BDC68F4CEDC2FCC27C46FD06AEFCEEB
:1013D0008C2F0E943E08C82FD0E0DC2FCC27CC27D2
:1013E000DF71D062E4CEDC2FCC27C06FD06ADFCEB5
:1013F0008C2F8F700E943E0834E0D695C7953A95A1
:10140000E1F7CF709C2FEC01D069D1CEC2EED0E0D5
:10141000CECEC0EED0E0CBCEC6EED0E0C8CEC5E397
:10142000D0E0C5CE0E94EE05089580913202882357
:1014300031F010923202109231021092300208956F
:101440008095909127049823909327040895809580
:1014500090912804982390932804089510922702CD
:1014600010922602109225020895809124029091F4
:10147000E301981301C008958F5F8770FACFA82FFA
:10148000A77023E0969587952A95E1F7FC01EE0F6A
:10149000FF1FE80FF91FE60FF71F50E040E080E064
:1014A000219130E00A2E02C0369527950A94E2F782
:1014B00021703327042E01C0220F0A94EAF7822BF1
:1014C0004F5F5F4F4330510559F70895903FC9F082
:1014D0009A3080F48630A8F4282F30E061EC71E077
:1014E000A901E6E09E9F400D511D1124CA010E94F2
:1014F0003F0A08959C5F923020F46EEB71E090E01B
:10150000F6CF80E00895262F277091E001C0990F53
:101510002A95EAF723E0769567952A95E1F7FB018E
:10152000EE0FFF1FE60FF71FE40FF51F50E040E03E
:10153000682F70E08191DF0111979B01042E02C09A
:10154000369527950A94E2F72170219528272923BB
:1015500028272C934F5F5F4F4330510559F708956B
:10156000282F862F903F79F09A3070F4263058F467
:10157000622F70E026E0929F600D711D112441ECF6
:1015800051E00E94830A08959C5F9230E0F7622F39
:1015900070E04EEB51E0F5CF9C013A9521153F41AB
:1015A00050F5FC01EE27F170BC0166277270AC01AA
:1015B000442754709C012227387094FF0EC080E1AC
:1015C000EF2B09F480E0672B09F08062452B09F0CE
:1015D0008064232B89F08068089581E0EF2B09F463
:1015E00080E0672B09F08260452B09F08460232B93
:1015F00019F08860089580E0089580933604709310
:1016000038046093370480914F048430F9F4809358
:10161000E9008FEF9091E800815095FD06C095EDAF
:101620009A95F1F700008111F5CF8091E80085FFD0
:101630000DC050E040E063E070E086E394E00E947B
:101640006E048091E8008E778093E8000895BC01D5
:1016500084E00E94FD0A0895BC0183E00E94FD0A17
:1016600008959C0184E08093E9009FEF8091E80059
:10167000915085FD06C085ED8A95F1F70000911126
:10168000F5CF8091E80085FF0CC050E040E066E0B7
:1016900070E0C9010E946E048091E8008E7780930B
:1016A000E8000895CF93DF93EC0181E08093E90097
:1016B0008FEF9091E800815095FD06C095ED9A95C9
:1016C000F1F700008111F5CF8091E80085FF14C08B
:1016D00050E040E068E070E0CE010E946E0480912E
:1016E000E8008E778093E80088E0FE01ACE3B4E088
:1016F00001900D928A95E1F7DF91CF910895B0E0C6
:10170000A0E0E5E8FBE00C9487327C015B016A0114
:1017100080915C0201E010E08A3010F40AE010E0F1
:10172000C1E0D0E0B501C701F6010995811104C0FF
:1017300021960C171D072CF4CDB7DEB7EAE00C9408
:10174000A332CC9F9001CD9F300D300D112490E03D
:1017500080E045E34A95F1F7000001968217930770
:10176000C1F7E0CF80913E02811110C08091D80076
:1017700080618093D8008AE18A95F1F700C080915A
:10178000D90080FF0AC081E080933E0281E0909101
:101790003E02913009F080E0089582E080933E029D
:1017A0000E941E0410924F04F1CF0E94B20B8823B6
:1017B00059F0E0912D04F0912E04309729F001901A
:1017C000F081E02D0995089580E00895CF93DF938F
:1017D000C7ECD2E060E0CE010E942F332196C11504
:1017E00084E0D807B9F7DF91CF9108950F931F9345
:1017F000CF93DF93142F022F843020F5623010F541
:1018000098E0899FE001112484E0689FB0011124D1
:10181000C60FD71FC95FDD4F82E090E0442311F06F
:1018200090E080E0632F8C0F9D1F0E942F3383E098
:1018300090E0112311F081E090E0602F8C0F9D1F4C
:101840000E942F33DF91CF911F910F9108951F9325
:10185000CF93DF93122F8430E0F46A30D0F4463017
:10186000C0F4C42FD0E0CC0FDD1F9CE0699FC00DF9
:10187000D11D112498E7899FC00DD11D1124632F1C
:10188000CE0187960E942F33612FCE0188960E9449
:101890002F33DF91CF911F910895CF93C82F6FEF12
:1018A000811166E283E290E00E942F336FEFC11155
:1018B0006DEB84E290E00E942F336FEFC1116CE971
:1018C00085E290E00E942F33CF910895A4E1B0E02B
:1018D000ECE6FCE00C948232A0907603B0907703A3
:1018E00081E090E0909377038093760385E9882EDA
:1018F00084E0982E95EBC92E94E0D92E10E0760165
:1019000000E015C0F30125913491452D602F812F02
:101910000E94270C82E0680E711C5394E6E05E1270
:10192000F1CFFCE0EF0EF11C0F5F0A3019F0370128
:10193000512CE8CF740100E0F7012591349141E08A
:10194000602F812F0E94F60BF7013296259134917A
:1019500040E0602F812F0E94F60B84E0E80EF11C1E
:10196000013009F042C0E8E08E0E911C1F5FF8E7DD
:10197000CF0ED11C143009F0C2CF1A8219821C82FA
:101980001B821E821D8218861F8288EC90E09A8737
:10199000898707E212E04AE050E0B801CE010196E3
:1019A0000E945333065F1F4F073782E0180799F7ED
:1019B0007E01EBE0EE0EF11C8AE0F70111928A95B0
:1019C000E9F74AE050E0B801C7010E945333065FCF
:1019D0001F4F073CF2E01F07A1F7B0927703A092D8
:1019E00076036496EFE00C949E3201E0A5CF80E090
:1019F0000E944D0C60E086E290E00E942F330E942E
:101A0000660C0E94E60B81E00E944D0C08959B013C
:101A1000883070F49AE0899FB0011124695D7D4F90
:101A20004AE050E0C9010E94113390E080E008953F
:101A30008FEF9FEF0895AAE0B0E0E1E2FDE00C94A3
:101A40008F329C0137552F3F310509F068F4BE01F4
:101A50006F5F7F4F0E94070D892B31F489859A852E
:101A60002A96E2E00C94AB3288EC90E0F9CFFF923A
:101A70000F931F93CF93DF93F42E843070F5623071
:101A800060F528E0829F8001112434E0639FB0015B
:101A90001124060F171F095F1D4F82E090E04423B9
:101AA00011F090E080E0800F911F0E942133C82F39
:101AB000D0E0DC2FCC2783E090E0FF2011F081E024
:101AC00090E0800F911F0E9421339E01282BC901B5
:101AD000CDB7DEB7E5E00C94A83290E080E0F8CF17
:101AE0000F931F93CF93DF93843030F56A3020F546
:101AF000463010F5C42FD0E0CC0FDD1F2CE0629FE4
:101B0000C00DD11D112438E7839FC00DD11D1124B4
:101B1000CE0187960E942133082F10E0102F002756
:101B2000CE0188960E9421339801282BC901DF91AC
:101B3000CF911F910F91089590E080E0F8CF209110
:101B40007A0330917B03232BC9F4703F39F4603F53
:101B5000A9F480917803909179030895843070F40A
:101B60007A3038F4663050F4462F672F0E94700D9B
:101B700008957D3F31F441E0623040F090E080E034
:101B800008957C3FD9F76230C8F740E00E94370DD6
:101B90000895CF92DF92FF920F931F93CF93DF931D
:101BA0006C010091500480913302082BC7E0D0E013
:101BB00010E0FC2EC8010C2E02C0959587950A9462
:101BC000E2F780FD0CC02197A0F7F12C8F2DDF915B
:101BD000CF911F910F91FF90DF90CF900895B601A4
:101BE0008C2F0E949F0D0E948108019761F3EECF18
:101BF000CF93DF93EC010E94C90DBE010E949F0D9F
:101C00000E948108DF91CF9108950F931F93CF9386
:101C10008C01FC0143815481618180810E944C06CA
:101C2000C82F81112AC0F80186819781009791F011
:101C30000E94810892959F709630D1F080F4925F57
:101C40009F70923080F4803F19F058F4883E58F429
:101C5000C1E009C0808191810E94F80DEBCF9A5FAD
:101C6000EFCF843FA9F38C2FCF911F910F9108954F
:101C7000883E70F3813FB9F7EBCFC0E0F4CFA5E029
:101C8000B0E0E5E4FEE00C948E329C01FC0186811C
:101C900097810097E1F485E0DE01119601900D92A5
:101CA0008A95E1F7F901228189819A81222399F0AD
:101CB000662389F00E94C90D182F682F89819A81A7
:101CC0000E94B00A69817A81812F0E949F0D25961A
:101CD000E3E00C94AA320E94660A182FF3CF83E245
:101CE00090E00E942133863289F484E290E00E94E1
:101CF00021338D3B59F485E290E00E94213391E03D
:101D00008C3909F090E0892F8170089580E0FCCF34
:101D1000CF9384E090E00E942133C82F82E290E0CC
:101D20000E942133982F8C2FCF910895AAE0B0E024
:101D3000ECE9FEE00C948932E6E2F3E080E5DF01B5
:101D40001D928A95E9F7E0EEF3E088E3DF011D924A
:101D50008A95E9F786E2C82E83E0D82E7F0107E74F
:101D600012E0F701D182C0824AE050E0B801CE0112
:101D700001960E94113388E0FE013196D601019050
:101D80000D928A95E1F789859A85D70113969C93E0
:101D90008E931297BAE0CB0ED11CE7E0EE0EF11C49
:101DA000065F1F4F073CF2E01F07D9F62A96E8E0CE
:101DB0000C94A5328091280490912704892B80935C
:101DC000A80180913202882319F10E94FA0520911E
:101DD000300230913102821B930B8838934110F00E
:101DE0000E94150A8091A80190913202892B80935C
:101DF000A80120E08AEA91E0FC013191CF01311184
:101E00002F5FF1E0803B9F07B9F721110E94150A6F
:101E100048E050E068E272E088EA91E00E94F43223
:101E2000892BA9F088E0E8EAF1E0A8E2B2E00190AD
:101E30000D928A95E1F7E0912D04F0912E043097F0
:101E400031F00280F381E02D88EA91E00995089550
:101E5000CF93DF93EC01EA85FB85309719F06C8511
:101E60007D8509958B810E94200A8C810E94270A1A
:101E70000E94DA0E86E0FE0111928A95E9F7DF9161
:101E8000CF910895CF93DF93EC018D8181FD18C030
:101E900082608D83809127049B81892B8093270406
:101EA000809128049C81892B809328040E94DA0E5B
:101EB000E885F985309721F06C857D85CE010995FF
:101EC00010922A04109229048D8180FD03C0CE0156
:101ED0000E94280FDF91CF91089590E080E00E944A
:101EE000360690E080E00E942006109227040E94AF
:101EF000DA0E86E0EEE9F2E0DF011D928A95E9F75D
:101F00001092980210929702109299020E94D106A4
:101F10000895809350040E946D0F0895809150049D
:101F2000982F9670963021F488600E94890F08954A
:101F3000877FFBCF21E030E001C0220F8A95EAF7CE
:101F400020958091500482230E94890F08959091DA
:101F500027028095892380932702282F277091F4E8
:101F6000282F082E000C330B9217130659F090916E
:101F70006E0292FF07C08595859585950E949A0F00
:101F80000E942E0A0895CF93C0916E02C2FB99273A
:101F900090F9981791F080FBC2F9C0936E0260919E
:101FA0006D0284E090E00E942F336C2F82E290E07B
:101FB0000E942F3382E00E94A70FCF91089521E065
:101FC00030E001C0220F8A95EAF780915004822BFD
:101FD0000E94890F089590916E0292FF10C098E0C0
:101FE000899F90011124622B609327020E94DF0FCA
:101FF0000E94FA05909326028093250208950E947C
:10200000DF0F0895809333020E946D0F08951092A0
:102010002804EAEAF1E086E0DF011D928A95E9F7FB
:102020000E946D0F0895AAE2B0E0E9E1F0E10C949E
:102030008E3287E494E02091F100DC012D93CD01F4
:10204000B4E08F349B07B9F780914804833009F4DA
:1020500072C0B8F4813009F449C0823009F4B3C0C9
:102060008091E80083FF96C28091470490914804D4
:102070009A3008F08FC2E92FF0E0E359FC4C0C9441
:10208000CA328A3009F48EC08B3009F471C08930AD
:1020900039F780914704813219F780914B04909170
:1020A0004C04009711F00297D9F68091E800877FE1
:1020B0008093E8008091E80082FF38C09091F3009F
:1020C0008091F200029731F48091F100813011F09B
:1020D000863021F48091F10080933B048091E800E8
:1020E0008B778093E8000E94C004BACF80914704A8
:1020F000813A09F0B5CF8091E800877F8093E800AE
:1021000080914B0490914C04892B61F468E08CE33E
:1021100094E070E00E946C058091E8008B778093DA
:10212000E8009ECF60E090E080E0F3CF80914F0424
:102130008111C0CF95CF80914704813A09F090CFAB
:1021400080914B0490914C04892B09F089CF8091A8
:10215000E800877F8093E8008091E80080FFFCCF53
:10216000809138018093F1008091E8008E77B9CF9B
:1021700080914704813209F073CF80914B04909194
:102180004C04892B09F06CCF8091E800877F809305
:10219000E8000E94C00480914904809338010E94A5
:1021A00007105ECF80914704813209F059CF8091AA
:1021B000E800877F8093E8000E94C00480914A0471
:1021C00080933A044DCF80914704813A09F048CF7B
:1021D0008091E800877F8093E8008091E80080FF8D
:1021E000FCCF80913A04BECF803899F0823809F054
:1021F000D1C180914B048F70873008F0CBC18093A0
:10220000E9008091EB0085FB882780F91092E900B6
:1022100006C0809144049091450491118260909190
:10222000E800977F9093E8008093F1001092F1000E
:102230008091E8008E77AAC1882309F498C1823082
:1022400009F0A8C18091490481119BC180914B0480
:102250008F702FEF280F263008F09CC18093E90083
:102260002091EB0020FF8DC1933031F48091EB0081
:1022700080628093EB0085C19091EB009061909318
:10228000EB0021E030E001C0220F8A95EAF72093AD
:10229000EA001092EA008091EB008860EACF811199
:1022A00079C1109149041F778091E3008078812BD8
:1022B0008093E3008091E800877F8093E8000E948C
:1022C000C0048091E80080FFFCCF8091E30080682B
:1022D0008093E30082E0111183E080934F045AC1A0
:1022E0008058823008F056C12091490430914A0448
:1022F0002C3DE3E03E07A1F583E08A838AE28983EF
:102300004FB7F894DE01139620E03EE051E2E32F50
:10231000F0E050935700E49120FF03C0E295EF7086
:102320003F5FEF708E2F90E0EA30C0F0C7968D933C
:102330009D932F5F243159F74FBF8091E800877F2D
:102340008093E8006AE270E0CE0101960E946C057D
:102350008091E8008B778093E8001CC1C096E7CF9E
:1023600080914B0490914C04432F552743305105E5
:1023700009F44AC078F54130510509F485C08BE570
:1023800090E0E5E4F7E04230510509F003C1209107
:10239000E800277F2093E80020914D0430914E04FF
:1023A0008217930708F49C0140E02115310509F0DC
:1023B00070C041116EC08091E80082FDC9CF80914C
:1023C0004F04882329F2853019F28091E80083FFB9
:1023D000F2CFBECF4132510509F447C04232510518
:1023E00009F0D8C08330910508F0D4C0FC01EE0F8D
:1023F000FF1FE656FE4F0190F081E02D89569E4F5B
:10240000DC018C9190E01DC0332721303105E9F0CB
:102410002115310579F022303105F9F023303105ED
:1024200009F0B8C0E2EBF7E0E4918E2F90E0E2EB28
:10243000F7E007C0EAEFF7E0E4918E2F90E0EAEFD3
:10244000F7E0009709F4A6C0A2CFEEEDF7E0E49123
:102450008E2F90E0EEEDF7E0F4CFE0EDF7E0E491C1
:102460008E2F90E0E0EDF7E0ECCF8330910508F09F
:1024700091C0880F991FFC01E056FE4F0190F0813A
:10248000E02D89E090E083CF82E190E0E0EAF7E0A0
:102490007ECF80914F04882309F45ACF853009F408
:1024A00057CF8091E80083FD53CF8091E80082FDF3
:1024B00082CF8091E80080FF78CF9091F3008091E7
:1024C000F2002115310519F08830910550F041E0F6
:1024D000089709F040E08091E8008E778093E8004B
:1024E00064CF44914093F100319621503109019617
:1024F000E8CF803809F04EC08091E800877F809354
:10250000E800809146048093F10092CE811142C090
:10251000109149041230F0F58091E800877F809394
:10252000E800109346040E94C004112311F084E0D7
:1025300005C08091E30087FDFACF81E080934F04CE
:1025400042E061EC81E00E94DF0442E261EC84E061
:102550000E94DF0442E261EC82E00E94DF0442E27A
:1025600060EC83E00E94DF0480914F0413C08091EF
:102570004904813079F481E0933009F080E0809360
:1025800045041092E9008091E800877F8093E8007D
:102590000E94C0048091E80083FF0AC08091E80097
:1025A000877F8093E8008091EB0080628093EB004E
:1025B000AA96E3E00C94AA320E9407102FEF84E35E
:1025C0009CE0215080409040E1F700C0000088E18D
:1025D0009AE00FB6F894A895809360000FBE909390
:1025E0006000FFCF882321F00E94200A0E94DA0EAB
:1025F0000895882339F090912704982B909327040D
:102600000E94DA0E0895882321F00E94270A0E9472
:10261000DA0E0895882339F090912804982B90932E
:1026200028040E94DA0E08958823C9F19CEF980FC0
:10263000913A78F4EAEAF1E09191891303C0DF015D
:1026400011971C9291E0E03BF907B1F70E94DA0E76
:10265000089590E2980F983050F4877091E001C08F
:10266000990F8A95EAF7892F0E94270AEFCF9BE5F9
:10267000980F933028F490E080E00E943606089589
:1026800098E5980F973128F490E080E00E942006AA
:102690000895803F20F00E94F8060E94D106089518
:1026A000CF93C82F8823B1F08CEF8C0F813A00F5BF
:1026B000EAEAF1E080EB91E0DF012D91C21761F0D1
:1026C0008A179B07D1F76C2F88EA91E00E940606D3
:1026D0000E94DA0ECF9108952191C21303C0DF0149
:1026E00011971C928E179F07B9F70E94DA0EEBCF55
:1026F00080E28C0F883068F4C77021E030E001C0C0
:10270000220FCA95EAF780912804822B809328042F
:10271000DFCFEBE5EC0FE33040F4F0E0EF5BFE4F92
:10272000808190E00E943606D5CFE8E5EC0FE731D6
:1027300050F4F0E0EE0FFF1FEC5BFE4F80819181C3
:102740000E942006C7CFC03F28F28C2F0E94BD07F1
:102750000E94D106BFCF1F93CF93DF93182FCAE0FB
:10276000D0E0893311F4C0E5D0E0812F0E945013EE
:102770008FE99FE00197F1F700C000002197C1F7B2
:10278000812F0E941413DF91CF911F910895B0E023
:10279000A0E0EDECF3E10C9489326B01C42FD22F51
:1027A000FC0182818823A9F0409326040E94FA0547
:1027B0009093250480932404C77081E001C0880FA2
:1027C000CA95EAF70E940A13CDB7DEB7E8E00C9489
:1027D000A53210912604141337C0809124049091DF
:1027E00025040E94DF057C01C6010E941B0DE8162E
:1027F000F90650F5C0E2CD0F1D17C1F080E2810F40
:10280000883048F4177081E0012E01C0880F0A94C7
:10281000EAF70E940313C83048F481E09D2F9770B7
:1028200001C0880F9A95EAF70E940A13802F0E9430
:10283000AB13C83048F6D77081E001C0880FDA9535
:10284000EAF70E940313C0CFC77081E001C0880F70
:10285000CA95EAF7F6CFB0E0A0E0E1E3F4E10C942A
:102860008632EC01A62E8AE0982E2881222309F4D4
:10287000A4C0213009F04BC08981813091F48E01D0
:102880000E5F1F4F8A810E94AB13E80121968A2DAB
:10289000815058F3EFE9FFE03197F1F700C00000F5
:1028A000F7CF823039F48E010E5F1F4F8A810E946C
:1028B0005013EBCF833039F48E010E5F1F4F8A81A6
:1028C0000E941413E2CF843011F02196DFCF2A81C9
:1028D000229690E080E0AE014F5F5F4F2053330BB4
:1028E0002A30310548F0019788F2EFE9FFE031978F
:1028F000F1F700C00000F7CF989EB001999E700DCF
:102900001124C901860F971F2981EA01E4CFE22F24
:10291000F0E0EB53F94FB490822F8695869586951B
:1029200090E0FC01EB54F94FE4902770F12C022E5B
:1029300002C0F594E7940A94E2F731E0E322FF2421
:10294000FC01EB55F94FC490D12C022E02C0D59456
:10295000C7940A94E2F7E1E0CE22DD24FC01EB56B5
:10296000F94F049110E002C0159507952A95E2F7FA
:1029700001701127E114F10419F081EE0E94501347
:10298000C114D10419F086EE0E9450138B2D0E94C1
:10299000AB13C114D10419F086EE0E941413E11494
:1029A000F10419F081EE0E9414130115110509F4C8
:1029B0006DCF8CE20E94AB1369CFCDB7DEB7EBE0F1
:1029C0000C94A232AFE0B0E0E8EEF4E10C94843273
:1029D0008E010F5F1F4F8AE0D8011D928A95E9F79B
:1029E00084E7C82E81E0D82EF12CE12CAA24A394F0
:1029F000B12C2FE7822E21E0922EF60181916F01FA
:102A00008F3F09F442C0F894E82FE295EF70F0E0B0
:102A100021A18F70A50102C0440F551F8A95E2F7CE
:102A2000CA01922F982B91A392A18095892382A30A
:102A3000789400C0E9E7F1E0712C31E021912F3F5B
:102A400009F46BC0A22FA295AF70B0E090968C9164
:102A500090E02F7002C0959587952A95E2F780FD4A
:102A60005CC0832F782A330F8E169F0639F7F60144
:102A7000319780818F3F11F00E94270850EA5A95C4
:102A8000F1F7F801EE0DFF1D70828FEFE81AF80ADA
:102A900095E0E916F10409F0B0CF4AE050E0B80142
:102AA00081E692E00E94F432009741F02AE0F801BA
:102AB000A1E6B2E001900D922A95E1F700916C0237
:102AC000892B69F181E0809336020E94FA05909388
:102AD00035028093340280913402909135020E9435
:102AE000DF05059700F110E003571D4F45E050E06A
:102AF00061E672E0C8010E94F432C12C892B51F0CA
:102B000085E0E1E6F2E0D80101900D928A95E1F7C7
:102B1000CC24C3941092360207C080E0A3CF8091EA
:102B200036028111D8CFC12C0E94B20BD82EE09171
:102B30006C02DE011B967D01882309F470C085E0DC
:102B40001D928A95E9F70E2F10E003571D4F8091D3
:102B50005C028A3068F546E757E1B701C8010E9478
:102B60007F0B882309F44AC041EC55E2B701C80144
:102B70000E947F0B882309F441C048E656E1B70163
:102B8000C8010E947F0B8823C9F110925C028091DA
:102B90006B0290E045E050E0B70183579D4F0E94E3
:102BA000F43221E020933D02892BB1F4D12C20C0D6
:102BB00080913702909138020E94DF05843F914056
:102BC00050F680913D02882389F385E0F701119248
:102BD0008A95E9F710923D02A0916B02B0E0A357ED
:102BE000BD4F85E0FE013B9601900D928A95E1F77D
:102BF0008D2D8C292F96EDE00C94A03280915C02F3
:102C00008F3F31F08F5F80935C028A3008F4BFCF32
:102C10000E94FA059093380280933702D2CFF0E0F9
:102C2000E357FD4F85E0ADE4B2E001900D928A9547
:102C3000E1F765E070E08DE492E00E9496068093F3
:102C40004C024091850250E06091840270E060582F
:102C50007D4FC7010E9401338B858093530261E051
:102C600070E0C7010E949606809352028090540241
:102C700090905502A0905602B09057028091390270
:102C800090913A02A0913B02B0913C0288169906BD
:102C9000AA06BB0609F48ACF8092390290923A02C2
:102CA000A0923B02B0923C020E94B20BD82E81113E
:102CB0007DCF0E94EE05861A970AA80AB90A80926B
:102CC0005D0290925E02A0925F02B092600290CF8D
:102CD000A4E0B0E0EEE6F6E10C948D3240915802AB
:102CE0005091590260915A0270915B022FB7F8948B
:102CF0008091320490913304A0913404B091350452
:102D00002FBF841B950BA60BB70B11E084369105E2
:102D1000A105B10590F10E94B20B882399F10E94A0
:102D2000EE056E5F7F4F8F4F9F4F69837A838B8352
:102D30009C838091210190912201845B9D4F409161
:102D4000200150E04530510510F044E050E0BE0154
:102D50006F5F7F4F0E94013384E090E00E94093250
:102D6000182F882351F00E94EE056093580270934B
:102D7000590280935A0290935B02812F2496E4E0DB
:102D80000C94A9320E94EE0500915D0210915E0242
:102D900020915F0230916002600F711F821F931FAC
:102DA000C0CF4F925F927F928F929F92AF92BF92CD
:102DB000CF92DF92EF92FF920F931F93CF93DF9307
:102DC0000F92CDB7DEB7C62E4A015901482E880FA3
:102DD0005508C2010E940932782E882309F480C068
:102DE000C20133E0880F991F3A95E1F7FC01E050EA
:102DF000FF4F438150E04115510511F041E050E093
:102E000080509F4FFC0164817581645B7D4FCE01D2
:102E100001960E940133F4014081518162817381E6
:102E20002FB7F8948091320490913304A091340428
:102E3000B09135042FBF841B950BA60BB70B8436BE
:102E40009105A105B10540F4B701C8010E9496069D
:102E50009981891709F444C00C2C000CDD08C601C7
:102E60000E940932782E811113C0712C872D0F908A
:102E7000DF91CF911F910F91FF90EF90DF90CF9056
:102E8000BF90AF909F908F907F905F904F900895EC
:102E9000C60123E0880F991F2A95E1F7FC01E05055
:102EA000FF4F438150E0E416F50608F4A701805077
:102EB0009F4FFC0164817581645B7D4FC5010E9459
:102EC0000133B701C8010E94960699818913CDCFBD
:102ED0000E94EE05F4016083718382839383C6CFE1
:102EE000A701B801C5010E940133C0CFA5E0B0E041
:102EF000ECE7F7E10C9489326B0185E0E82EF12CC8
:102F00000DE412E09E012F5F3F4F44E452E061E088
:102F100080E00E94D116882349F095E0FE013196A9
:102F2000AFE3B2E001900D929A95E1F795E0EFE3FF
:102F3000F2E0D60101900D929A95E1F72596E8E02E
:102F40000C94A53268EE7EEF90E080E00E944D3355
:102F500060E082E090E00E942F3360E083E090E048
:102F60000E942F331092330260E084E090E00E94D0
:102F70002F3364E082E290E00E942F3360E085E02E
:102F800090E00E942F3360E086E090E00E942F33B3
:102F90006FEF87E090E00E942F3340E050E0BA01ED
:102FA00088E090E00E94413360E08DE090E00E9474
:102FB0002F3340E050E0BA0188E190E00E944133B5
:102FC00060E087E190E00E942F3340E050E0BA01DA
:102FD0008CE190E00E94413370E060E080E290E09C
:102FE0000E944D3340E050E0BA0188E190E00E9439
:102FF000413380E00E944D0C0E94F70C40E050E00D
:10300000BA018FE090E00E94413340E050E0BA0105
:1030100083E190E00E9441330895A4E0B0E0E3E151
:10302000F8E10C9486326C01DC0113964D915C91B1
:10303000149711966C9111978C910E944C068111F6
:10304000EEC061E0C6010E943F0E8C01F601828154
:103050008823E1F08091290490912A040097B1F02F
:103060000817190799F0FEE08F9FC0011124FC0199
:10307000E554FD4F2081246020838A549D4FDC015C
:103080000D931C930E94420F10922704F601828137
:10309000882309F49CC6980122513F45203131050F
:1030A00008F0B7C58FEF93E00E9421338111A8C0CB
:1030B0005EEEF52EF00E07EC12E0F11037C019822B
:1030C0001A821B821C8299249A9478012FEFE21AAB
:1030D000F20AC8010E94213389831A82882309F4E5
:1030E0008FC0813009F080C0580132E0A30EB11CBE
:1030F000C7010E942133E82E8A83882309F480C007
:10310000C5010E942133F82E8FEF8E0D8330E0F43D
:10311000580143E0A40EB11CFB82FF2029F060E0BF
:10312000CE0101960E942B148501CFCF0115F4E04A
:103130001F0709F465C0C8010E942133811101C035
:10314000FA940F5F1F4FB9CF8BEF8E0D833030F5A0
:10315000C8010396FB825C01FF2031F3580154E063
:10316000A50EB11C0E9421338C838823E9F28B8148
:103170009C818130AFEF9A0710F0982F8827B6E036
:10318000EB1631F0E7E0EE1631F00E94DF26CCCFEF
:103190000E94A626C9CF0E941A26C6CFF4E0EF12DD
:1031A000C3CF580124E0A20EB11CC80103960E94AF
:1031B0002133FF2029F1882319F18150990B989E22
:1031C0009001999E300D11244F2D4150550BCA018D
:1031D000820F931F019708F4A7CFAFE9BFE01197C3
:1031E000F1F700C00000F6CF6AE0CE0101960E9420
:1031F0002B14570199CF81E00E94DF0F0E948E0FA0
:1032000080912702877059F0F6018281882339F076
:1032100080916E0282FF03C082E00E94A70F249675
:10322000EBE00C94A23281E00E949A0FE7CF82E09B
:10323000E3CF823009F02EC58091B0029091B102A7
:10324000892B09F427C52EE02E9DC0012F9D900DDE
:103250001124FC01E554FD4F20812E7F20838A54E8
:103260009D4F0E94420F16C52FEFE216F10409F0A0
:1032700008F410C5033FFCE51F07C9F110F5083D30
:103280003CE5130771F1093D4CE5140709F441C011
:10329000073D5CE5150709F04AC506E221EE41EE5F
:1032A00067ED7CE5C6010E94C713AACF902F812F3E
:1032B0003AC5F701858181FF3AC5C7010E94280FF1
:1032C00036C5053F8CE51807F1F0B8F0063FACE5D0
:1032D0001A0709F02CC507E225EE46EE66EF7CE5FD
:1032E000E1CF07E225EE45EE68ED7CE5DBCF06E2B7
:1032F00021EE40EE63EF7CE5D5CF07E225EE44EE0C
:1033000064EF7CE5CFCF06E221EE42EE65EF7CE58F
:10331000C9CF08E221E045EE69ED7CE5C3CF053A6F
:103320003DE5130709F419C5E0F401365DE515071D
:1033300009F413C506318CE5180709F06CC58091B6
:1033400028048A7A91E009F490E09093B90169E247
:10335000811165E388EA91E00E9406060E94DA0E78
:103360004FCFC8018D5A9D45039720F7F6C4809131
:103370006D02806207305CE5150791F108F4BFC06B
:1033800080916D0280642CC00D309CE5190709F412
:10339000C4C090F480916D028E7F0B30BCE51B079A
:1033A000F9F080916D028C600C30ECE51E07C0F0E6
:1033B00080916D028D7F14C00F30FCE51F0709F46A
:1033C000BCC008F4AEC000313CE5130709F4B9C035
:1033D00080916D028F7B01314CE5140709F0E7C441
:1033E00080936D02E4C40F3F5CE5150709F4B7C094
:1033F000A8F50A3F9CE5190709F479C0C0F4043127
:10340000BCE51B0709F4B9C008F4A5C00531FCE50B
:103410001F0709F0CCC480916D0282FB992790F9B7
:1034200021E0922790FB82F990FB83F9D9CF0C3FE2
:103430002CE5120709F479C008F45DC00D3F4CE596
:10344000140709F476C080916E0283600E3F5CE53C
:10345000150709F0ACC480936E02A9C401368DE54E
:10346000180709F495C090F40130ADE51A0709F486
:103470008DC008F478C060E00230EDE51E0709F069
:1034800096C48EE090E00E942F3391C40D3AFDE582
:103490001F07E9F060F490916D02892F8E7F90FFF5
:1034A0008160053A3DE5130709F49ACF80C40E3ACE
:1034B0004DE5140771F10F3A5DE5150709F077C482
:1034C00090916E02892F877F93FF8860C4CF80918F
:1034D0006E028860C0CF80916D02826081CF809142
:1034E0006D0284607DCF80916D02886079CF80917C
:1034F0006E028160B0CF80916E028260ACCF80910D
:103500006D0280616DCF0E94071080916D0280680E
:1035100067CF80916E02877F9ECF80916D028B7FF7
:103520005FCF80916D02877F5BCF80916E028E7F2F
:1035300092CF80916E028D7F8ECF80916D028F7EB3
:103540004FCF80916D028F7D4BCF0E9407108091ED
:103550006D028F7745CF80916D02837F41CF80913F
:103560006E028C7F78CF80916E02982F909591702B
:103570008E7F892B90FB81F96ECF0E94071090916E
:103580006D02892F97FB87F980582ACF61E079CFA8
:1035900090916D02892F8F7E94FF806121CF85E30A
:1035A0002CC40E9407109FEFA4E3BCE09150A04000
:1035B000B040E1F700C000000E94CE0580916E028D
:1035C00082FB882780F991E089270E94C30FD601EA
:1035D00016968D919C91009709F43FC00E94810836
:1035E000182F092FD6011596BC901597B2943FE07D
:1035F000B3221296FC90809127028770D9F0FF20A9
:10360000C9F0892F807F803441F090E2910F98308B
:1036100088F0803611F4163F69F080916E0282FFC7
:1036200009C082E00E94A70F809127028770AA2418
:10363000A3948111A12C902E92942FE09222BBE0B2
:10364000B91508F482C0E92DF0E0E958FC4C0C945F
:10365000CA3281E0BACF80E0B8CFF6018281008122
:103660001181882369F0C8010E94C90DF82E682FC6
:10367000C8010E94B00AB8018F2D0E949F0DAECFE5
:10368000C8010E94660AF82EF6CFE02FEF70EE2EEA
:10369000802F807F19F0E29490EFE922FF20B9F0AB
:1036A000EE2069F080E2810F883010F0111109C01E
:1036B00080912804E82AE09228040E94DA0E812FE3
:1036C00042C080912704E82AE0922704F6CF812F98
:1036D0000E941413EE20C9F180E2810F883010F0AF
:1036E000111104C08E2D0E94270A03C08E2D0E9446
:1036F000200A0E94DA0E29C0F02FFF70EF2E802FD3
:10370000807F803219F0E29480EFE822112351F09B
:10371000113009F4A0C0FF2009F4A9C0BB2009F4AE
:1037200078C0CDCF80916E0282FD49C0FF2009F4A0
:1037300040C0EE2039F080912804E82AE092280465
:103740000E94DA0E80E00E945013292D2850330B7E
:103750002430310510F40E94D50BFF2069F0007F62
:10376000003611F4163F41F08091BD01823009F01E
:1037700044C283E08093BD01AA20B1F0809127026A
:1037800080FD12C0D60112961C928595859585956F
:103790000E94DF0FC6010E940D18809127028595B7
:1037A000859585950E949A0F60E0C6010E943F0EA4
:1037B00036CD80E00E941413EE2039F293CFFF2023
:1037C00051F1B11006C0809132028E290E940A1375
:1037D000BCCF21E0B21211C082FFB7CF809132027C
:1037E000E82AE81609F4B1CF0E94FA059093310255
:1037F00080933002E0923202A8CF35E0B312E3CFDB
:103800000E94150A9091BA018E2D892B89138093FD
:10381000BA018E2DDBCFB11003C00E94150A12C071
:1038200041E0B41213C0809128048E2109F48DCF99
:103830000E94150A9091BA018E2D809589238913D3
:103840008093BA018E2D0E9403137FCF55E0B516E9
:1038500009F47BCFE2CFFF2029F085E08B1508F437
:1038600074CFD7CF94E09B1508F46FCFEBCFBB207C
:1038700049F3193309F02EC1AFEFB7EEE3E0A150E1
:10388000B040E040E1F700C00000812F0E94141317
:103890005CCF802F86958695837069F0813009F022
:1038A00054CF812F902F9370F11002C090E080E0F0
:1038B0000E9420064ACF812F902F9370F11002C0F2
:1038C00090E080E00E94360640CF812FFF2029F053
:1038D0000E94BD070E94D10638CF0E94F806FACF99
:1038E000802F837091F5F11030CF412F429546958E
:1038F0004770440F440F812F8F70042E01C0880F32
:103900000A94EAF7212F207114FF07C02FE030E05E
:1039100001C0220F4A95EAF72095302F369536954B
:103920003370323069F050F440913302313029F075
:10393000822B84230E94021008CF842B822BFACF83
:10394000282B809133028227F5CF8695FF2011F036
:10395000802F8170882309F4F8CE412F4295469537
:103960004770440F440F812F8F70042E01C0880FC1
:103970000A94EAF7212F207114FF07C02FE030E0EE
:1039800001C0220F4A95EAF72095302F36953695DB
:103990003370323069F050F440915004313029F0E6
:1039A000822B84230E94890FD0CE842B822BFACFC6
:1039B000282B809150048227F5CF902F9F70E92EFD
:1039C000FF2029F0892F0E94DF0F812FFFCE812F4A
:1039D0000E9403138E2D0E949A0FB7CE123F89F1D9
:1039E00060F4103FB9F0113F81F0FF2009F466C088
:1039F000B11065CE802F8F7128C0133F49F1143F5D
:103A0000A1F780916E0282FD2FC0802F8F71FF2061
:103A100011F31BC0FF2081F0A4E0AB1508F495CE94
:103A2000202F2F7181E090E001C0880F2A95EAF7DE
:103A3000909150048927B6CFB5E0BB1508F485CE28
:103A4000EFCF802F8F71F110C6CF0E94DF0F7DCE98
:103A500080E0FF2009F4A6CF81E0902F9F7101C084
:103A6000880F9A95EAF79ECFFF20D9F08091270220
:103A70008770843041F40E942E0A802F8F710E943B
:103A80009A0FA12C62CEE4E0EB15D8F3F02FFF7172
:103A9000EF2E8F2F0E94DF0F63E08E2D0E94EB0F21
:103AA000F0CF24E02B1530F40E942E0A64E0802F22
:103AB0008F71F4CF81E00E94A70FE3CFBB2079F094
:103AC000193341F43FEF47EE53E03150404050404E
:103AD000E1F7D9CE8FE39CE90197F1F7D4CE802F9F
:103AE0008F7179CFE0E1E10FE73008F05BC0F0E0E3
:103AF000ED57FC4C0C94CA32FF2009F426CE80917D
:103B0000DA0191E0892705C0F092DA011ECE81E04A
:103B10008F258093DA0119CE81E0FF20D1F315CEF5
:103B2000F11013CE1092DA0110CEFF20C1F082E026
:103B30008093BD0181E08093DA010E94FA059093A1
:103B4000BC018093BB012091250230912602232BDA
:103B500009F4FBCD9093260280932502F6CD809147
:103B6000BD01823021F481E08093BD01EECD833030
:103B700009F0EBCD1092BD011092DA011092BC0158
:103B80001092BB01E2CDFF2041F08091D901882342
:103B900009F4B5CF1092D901D8CD94E09B1508F463
:103BA000D4CDADCF8091D901BB20D9F0882341F08D
:103BB0008091DA0191E089278093DA011092D9018E
:103BC000F1107DCDAFE3BCE91197F1F700C0000023
:103BD000812F0E94141388E0F60111928A95E9F76B
:103BE000B4CD882309F4B1CDF110AFCD8091DA01C5
:103BF00091E089278093DA01CDCF813009F0BCCDE7
:103C00001092BD011092DA011092BC011092BB011A
:103C1000B3CD0031BFE51B0709F4EDCA0131EFE573
:103C20001E0709F404CB7801E7E5FE1A81111CCBCD
:103C3000FFEFEF16F10411F008F01CCB6CEA72E014
:103C40008E2D0E94070D892B29F58EE08E9DF001A7
:103C50008F9DF00D1124EA54FD4F8281813009F0CF
:103C6000E8CA8091AC029091AD02892B99F08091C5
:103C7000AE029091AF02892B69F08091B0029091D1
:103C8000B1022091B2023091B302822B932B892B87
:103C900009F4D9CA5801BB243EE0039FF001112466
:103CA000AF014A545D4F7A01D60112968C91E554CA
:103CB000FD4F908180FB90F99083882309F4F9CA25
:103CC0000E94FA0590937F0280937E02D70112969C
:103CD0008C9112978F5F12968C9312978091270484
:103CE00090912804892B13968C931397809132021C
:103CF00014968C9314971696ED91FC911797309724
:103D000029F01C966D917C91C70109958EE08A9DE2
:103D1000F0018B9DF00D1124EA54FD4F858181FF48
:103D2000C5CA90E080E09093290480932A04F601AC
:103D30008281882309F457C0109226040330FDE5E0
:103D40001F0708F0ECCA0A3F2CE5120730F4C8013F
:103D500082509C45449708F0EDCA0E94880E9093CB
:103D60006E0280936D0202318CE5180709F4EDCBE9
:103D700008F039CB0930ACE51A0709F4C4CB08F0D8
:103D800003CB0530ECE51E0709F4ADCB08F0EFCA14
:103D900003302CE5120709F49ECB08F0A0CB8091EC
:103DA0006D02816002304CE5140709F419CB609173
:103DB0006D0210916E0284E090E00E942F33612F1B
:103DC00082E290E00E942F330E94071019CA00314E
:103DD000FFE51F0709F427CA01312FE5120709F093
:103DE00022CF82E021CA0631BCE51B0709F0EFCBE8
:103DF0008091B9018111D3CB89E2EAEAF1E020EBAD
:103E000031E09191891303C0DF0111971C922E17A5
:103E10003F07B9F7A3CA0A35EDE51E0709F419CC27
:103E200068F401152CE5120709F4BBCB0E3D1C45C7
:103E300009F0CDCB0E94A2170E94DC120C354DE593
:103E4000140709F4BBCB08F406CC073A1D45A1F3CF
:103E5000BECBB0E0A0E0EFE2FFE10C9489328091AC
:103E6000E001807F31F48091DD01C0912402811155
:103E700007C0CDB7DEB7E8E00C94A5322196C77035
:103E80008091E3018C17A9F3F090DB01E090DC0155
:103E9000C090DE01D090DF01A6016E2D8F2D0E9413
:103EA0004C06D0E08111EACF8E0183E0000F111F94
:103EB0008A95E1F7F801EC51FE4F81818E11DECF3A
:103EC00080818F11DBCF82818111D8CFE380F48094
:103ED000EC18FD0860E08BED91E00E943F0E0E941F
:103EE0001B0DE816F90650F68091E0018F70806195
:103EF0008093E001F801E751FE4F80818F7080616F
:103F000080838BED91E00E940D180E94350AB1CF9D
:103F1000A5E1B0E0EEE8FFE10C9481328C0185E090
:103F2000F801DE01519601900D928A95E1F7F801B2
:103F3000E2804BEDA42E41E0B42E8090DE01909003
:103F4000DF01A4016091DC018091DB010E944C063D
:103F5000682E8111A1C1F801C380D480F090DD01E9
:103F6000C601881999094C01FF2009F447C1408016
:103F7000518060E0C5010E943F0E0E941B0D7090B1
:103F8000E0018816990608F0E1C04091DE015091E9
:103F9000DF01B090DB01A090DC01872D807F6A2DCE
:103FA00009F080C08B2D0E944C06FE2C811124C08C
:103FB000F80181818A1120C080818B111DC0209160
:103FC000E1013091E2018681978128173907A1F438
:103FD000E11012C0872D8F7080618093E0018BED1E
:103FE00091E00E940D188091E001F80185838F2DEA
:103FF0006596E0E10C949D32A601652D842D0E940A
:104000004C06811122C081E08E25F82FF170DF2E41
:1040100080FF3EC0809124022091E301821317C0EB
:10402000498A5A8A89899A890E94F80D292F2295EE
:104030002F70223008F1243030F59F7009F1F8011B
:104040009581907FE9F4F62CD2CF80E0DECF90E02E
:10405000FC0133E0EE0FFF1F3A95E1F7EC51FE4F04
:104060003181531206C03081431203C03281E31202
:104070000FC001968770D2CF9F7011F0882319F37B
:10408000805E883000F3C8010E940D186D2CDBCFD4
:10409000EE2009F4ACCF8091E00181608093E001D3
:1040A000F12CA5CF8B2D0E944C0681111FC0F80169
:1040B00081818A111BC080818B1118C02091E10180
:1040C0003091E201868197812817390779F4E11050
:1040D0000DC07582C8010E940D1888E0F801ABED93
:1040E000B1E001900D928A95E1F781CFC8010E945D
:1040F000050E882339F1EE2029F18091E00180320C
:10410000A0F02091DB013091DC013A8729871B86E2
:10411000DD86CC868E878091E1019091E201988BBB
:104120008F87CE0109960E940D1888E0F801ABED4B
:10413000B1E001900D928A95E1F70E94291FFF24BA
:10414000F39455CFC8010E940D18F9CF872D807FB9
:1041500051F48BED91E00E940D1888E0F501119269
:104160008A95E9F79DCF9090DB018090DC0140912A
:10417000DE015091DF01682D892D0E944C068111CE
:104180001CC0F8018181881118C08081891115C077
:104190002091E1013091E20186819781281739074A
:1041A00061F4E1100AC07582C8010E940D1888E010
:1041B000F50111928A95E9F71ACFC8010E94050E00
:1041C000882309F4BFCFEE2009F4BCCF8091E00131
:1041D000803208F4AACF2091DB013091DC013A83D0
:1041E00029831B82DD82CC828E838091E1019091B4
:1041F000E20198878F83CE01019695CF60E08BED29
:1042000091E00E943F0E0E941B0D8816990678F6D9
:10421000FE2CEE2009F496CFE090DB01D090DC017B
:104220004091DE015091DF016D2D8E2D0E944C06D4
:10423000811124C0F80181818D1120C080818E11EF
:104240001DC02091E1013091E201868197812817FC
:104250003907A1F49091E00190FD3FCF907F09F4E0
:104260003CCF8091E0018583903F09F433CF982FB4
:10427000907F905F8F70892B85832CCFC8010E941F
:10428000050E811152CF8091E00181608093E001A1
:10429000C8010E940D18ABCEEE2009F453CFC8011F
:1042A0000E94050EF82E882309F44CCF88E0F8010F
:1042B000ABEDB1E001900D928A95E1F78091DB01C1
:1042C0009091DC010E94F80D92959F70963051F408
:1042D000863F41F08091DA0191E089278093DA01ED
:1042E0009093D9010E94291F82CEA0E1B0E0EBE7B4
:1042F000F1E20C948F3229873A874B875C876D8770
:104300007E878F87988BCE0109960E94881F811126
:104310002FC088E0FE013996DE01119601900D92C2
:104320008A95E1F74C855D856A8589850E944C06F2
:1043300081111EC0A091E301B0E0CD01019687700C
:1043400099272091240228171906E1F093E0AA0F7B
:10435000BB1F9A95E1F7AC51BE4F98E0FE01319634
:1043600001900D929A95E1F78093E3010E94350A3E
:10437000809124029091E301891312C06096E2E0DB
:104380000C94AB320E9407101092E30110922402A9
:1043900088E0EBEDF1E0DF011D928A95E9F7E8CFC7
:1043A000B8E08B9FC00111248C519E4F0E94881F42
:1043B000882321F38091240290E001968770992749
:1043C00080932402D5CFB0E0A0E0E9EEF1E20C94B6
:1043D0008A3280917F03882369F0C0917E03E12CAB
:1043E0008CE0F82E80917F03C81748F010927F036D
:1043F00010927E03CDB7DEB7E7E00C94A632DD2441
:10440000D394DC0ED0927E030C2F10E0CF9DE00100
:104410001124C058DC4F4B815C81698188810E94E6
:104420004C0681112CC08E819F81892B21F48885B7
:104430009985019651F4288139814A815B816C818B
:104440007D818E819F810E947521F09EF001F19EF9
:10445000F00D1124E058FC4F1482138210922704AF
:10446000E1100DC0CE010E94050E811108C08FE33E
:104470009CE90197F1F700C00000EE24E394CD2DF4
:10448000B1CF109223041092220410923701809130
:104490002104809320040E9485060E94E321089550
:1044A000B0E0A0E0E6E5F2E20C948032C091200496
:1044B00097E0892E01E010E02CE0322E3EEF932EA3
:1044C00044244394809121048C1309C00E94E32169
:1044D0000E948506CDB7DEB7E1E10C949C32D0E0B6
:1044E000FE01EE0FFF1FE85EFB4F80819181889EE9
:1044F000D001899EB00D1124A052BC4F14962C916E
:104500001497211158C050907F03E0E8F3E030E0A9
:1045100020E0712C5D01251508F04BC0E284F38486
:10452000D501CD90DC906FEF7FEF612C462D50E0F0
:10453000DA01AA0FBB1FAC0DBD1D0D90BC91A02DC3
:10454000109731F0EA16FB0609F4BA016394EECF36
:104550006F3F7607A9F1D80102C0AA0FBB1F6A9569
:10456000E2F77A2AB801062C02C0660F771F0A9478
:10457000E2F7AB014150510974161506F9F4329E69
:10458000F001339EF00D1124E058FC4F889ED001BD
:10459000899EB00D1124A052BC4F12962D913C91D2
:1045A000139737832683908291829187808715960F
:1045B0004C920E9457062196C37084CF14821382B6
:1045C0002F5F3F4F3C96A7CFA9E1B0E0EAEEF2E2C1
:1045D0000C947F32F62E6B8B7C8B8D8B8A01611154
:1045E000109227044C895D89612F802F0E944C0610
:1045F000811134C01A3008F095C0063078F5E02FEC
:10460000F0E026E0129FE00DF11D11249F012770BC
:10461000332781E090E001C0880F2A95EAF7DF0197
:1046200073E0B695A7957A95E1F7AF54BE4F2C91FC
:104630003091DA01F11002C0322F3823332309F40C
:1046400094C0AF01440F551FFA01EE56FE4F14916E
:10465000FA01EF56FE4F0491822B8C931D861E8625
:104660001F86188A098B1A8B85E0FE017196DE0180
:10467000199601900D928A95E1F780916E0282FF62
:104680002CC00E94FA052091250230912602821B3F
:10469000930B8838934120F08091270282FF26C235
:1046A0000E94FA052091300230913102821B930B57
:1046B0008838934110F00E94150A0E94FA05209153
:1046C000BB013091BC01821B930B8838934128F0C9
:1046D0008091BD01813009F400C24C855D856A85F9
:1046E00089850E944C06811112C061E0CE010996B5
:1046F0000E943F0E6C018B8577EFC7167CE5D706CD
:10470000B9F5882309F44AC081E0809337012985EF
:104710003A854B855C856D857E858F8598890E945D
:104720007521E9C084E0810F823008F097CFE02F37
:10473000F0E0202F277081E090E001C0880F2A95DB
:10474000EAF7DF0133E0B695A7953A95E1F7A05572
:10475000BE4F2C913091DA01F11002C0322F382374
:10476000332319F0E157FE4F76CF8095822375CF22
:1047700098EFC9169CE5D90629F4882379F00E94A0
:104780004122C5CFE9EFCE16ECE5DE0639F48823E9
:1047900029F0809137018111F2CFB6CF00EE13E0FE
:1047A000E12CB12CA12C88248394912C2EEF522E35
:1047B00044244394F8014081518166246A94762C04
:1047C00020E0822F90E0FC01EE0FFF1FE40FF51FA9
:1047D000608171816115710531F0C616D70609F443
:1047E0003C012F5FEECFF12CFFEF6F167F0609F42F
:1047F00044C0F8014481F09037018F2D411180E0D1
:10480000F82FF170FF2EF801258086819B85992372
:1048100009F4F2C0FF2009F4EFC0211014C0A40174
:10482000062C01C0440F0A94EAF7842B86838091FA
:104830007C0390917D03C29730F462E370E0709343
:104840007D0360937C03C40102C0880F991F2A95E1
:10485000E2F70197F80126812817190671F4809173
:10486000220490912304009709F449C00E94DF05B7
:10487000C39708F444C0F8014482EF28FFEFAF1A51
:10488000BF0A095F1F4F28E0A216B10409F092CFBA
:104890008B85882309F40CC1EE2009F409C10E941C
:1048A000FA05909323048093220480917F0388303B
:1048B00010F591E0980F90937F0398E0FE013996F0
:1048C000DE01119601900D929A95E1F73CE0839FED
:1048D000C001112480589C4F28E0FE013196DC0174
:1048E00001900D922A95E1F72FEF3FEFFC01318700
:1048F0002087D386C2866996E2E10C949B32809130
:10490000200450912104982FF0E0E0E0851314C0BA
:1049100090932004E017F10709F4AFCF90E0FC0179
:10492000EE0FFF1FE85EFB4FB182A08201968370FD
:10493000992780932104A1CF282E312CF101EE0F6D
:10494000FF1FE85EFB4F20813181F7E0F29FD0012D
:10495000F39FB00D1124A052BC4F2D913C911197A3
:10496000398F288F40E020E030E0E32FF0E0EE0FB9
:10497000FF1F688D798DE60FF71F608071806114CD
:104980007104E1F0F8010190F081E02DFF8BEE8BD6
:1049900020E005C06616770609F44F2D2F5FE22F41
:1049A000F0E0EE0FFF1F6E897F89E60FF71F608131
:1049B00071816115710571F73F5FD7CF4423C9F04D
:1049C000F801231708F0FD014482E017F10721F4F4
:1049D00090932004F42E51CF981305C0EA17FB07DB
:1049E00011F49F5F937091012F5F3F4F822F83706F
:1049F0008DCFF0E0E0E0F7CF90E0211020C0B401CF
:104A000002C0660F771F2A95E2F79B0121503109FA
:104A10008217930731F4442309F448C0C5010E946A
:104A20005706C401062C01C0880F0A94EAF7982F94
:104A30009095F801868189238683F22C1ECF9C01F4
:104A4000062C02C0359527950A94E2F7A90141701A
:104A50005527BC016150710986239723892B11F5D5
:104A6000452B01F1F80182819381892BC1F01B82D2
:104A70001C821D821E8259825A820E94FA05816020
:104A8000582F9D838C83F801828193818F8398872F
:104A900029813A814B816D817E810E947521F801C7
:104AA0001582BFCFF22FF1702F2EBBCF2F2CB9CF95
:104AB0009091200480912104981731F00E94502297
:104AC000EE2009F424CE17CF0E94E3211092230494
:104AD000109222040E948506F3CF1092BD0110921D
:104AE000DA011092BC011092BB01F7CD82E00E9466
:104AF000A70FD6CDAAE0B0E0E0E8F5E20C948D3245
:104B0000182F062F662399F10E94FA051E832DEFB8
:104B10002F8321E0288781609A8789874E815F8172
:104B2000688579858A850E94E4228FE39FE1019759
:104B3000F1F700C000000023F9F00E94FA05198384
:104B40002DEF2A831B8281609D838C8349815A814A
:104B50006B817C818D810E94E4228FE39FE101972C
:104B6000F1F700C000002A96E4E00C94A9320E94FC
:104B7000FA051E832CEFCCCF0E94FA0519832CEF87
:104B8000E0CFA1E0B0E0E7ECF5E20C948832EE244F
:104B9000E394F12C03E512E09E012F5F3F4F48E4C0
:104BA00052E063E082E00E94D116C82E882339F1DA
:104BB00000E080E01DC0D0907002D00E2D2D30E0BE
:104BC000A90140585D4F7A01E1E0F0E0EC0FFD1FD4
:104BD000E00FF11D1081FA019081191BB12E1B14F9
:104BE0009CF0912F17FD90E0191B111118C00F5F59
:104BF00090916F020917F8F281110E94120A8C2D10
:104C00002196E9E00C94A432BA94F70180818F5F79
:104C1000808360E08D2D0E947A258C2DE0CF1F5F70
:104C2000F70180818150808361E08D2D0E947A257B
:104C30008C2DDBCFA5E0B0E0E0E2F6E20C948D3203
:104C40008C019093790380937803011580E2180713
:104C5000C0F4802F0E941413C8010E94CC0A98014E
:104C6000205E31092830310518F00115110531F4A5
:104C70000E9403132596E4E00C94A9320E94F212DC
:104C8000F9CF80EF89838A831B820E94FA058160B5
:104C9000782F9D838C8349815A816B818D810E94FD
:104CA000E422E8CF0F931F93CF93DF938C01EB01A6
:104CB0006CEA72E08C2F0E94070D892BA1F48FE320
:104CC0009CE90197F1F700C00000DD27CC55DD4FCE
:104CD0008881F801128218828330F1F048F4813023
:104CE00059F0823081F0DF91CF911F910F9108959B
:104CF0008430B9F08530B9F78091AC029091AD0263
:104D0000009789F306C08091AE029091AF020097A0
:104D100099F30E941A26E7CF8091B0029091B102D8
:104D2000F6CF8091B2029091B302009791F7209153
:104D3000AC023091AD028091AE029091AF0221158C
:104D40003105F1F2009729F7C901E3CFA5E0B0E002
:104D5000ECEAF6E20C948D328C0190937903809307
:104D60007803011580E21807C0F4C8010E94CC0A3C
:104D70009801205E31092830310518F00115110520
:104D800049F40E940A13802F0E9450132596E4E0F4
:104D90000C94A9320E94F912F6CF80EF89838A839E
:104DA00081E08B830E94FA058160782F9D838C833C
:104DB00049815A816B818D810E94E422E7CFCF9394
:104DC000DF93EC010E94A6268FE39CE90197F1F79F
:104DD00000C00000CE010E941A26DF91CF910895F5
:104DE0000F931F93CF93DF938C01862F6CEA72E0B1
:104DF0000E94070D892BB1F4C091AC02D091AD0295
:104E0000209781F0F8018281833051F4CE010E9415
:104E1000DF26CE010E94DF26CE010E94DF2602C0DF
:104E20008430D0F7DF91CF911F910F9108950F93A8
:104E30001F93CF93DF938C01EB016CEA72E08C2F10
:104E40000E94070D892B09F05CC0FE01FF27D801E5
:104E500012968C911297EC55FD4F8130B9F415964E
:104E60009C9192FF02C080830AC090FFFCCF82E039
:104E700080838091AE029091AF020097B9F4809147
:104E8000AC029091AD020097E1F110C08230B9F50B
:104E900015968C9182FD28C080FD0BC083E0808335
:104EA0008091B0029091B102009701F10E94A62674
:104EB00028C084E080838091B2029091B302009771
:104EC000A9F78091AC029091AD020097F9F00E9491
:104ED000DF268091AE029091AF02009739F7809162
:104EE000AC029091AD02E2CF85E080838091AC026C
:104EF0009091AD02009729F00E94DF26F0CF86E066
:104F00008083DF91CF911F910F9108958091AE0220
:104F10009091AF02B8CF1F920F920FB60F9211244B
:104F20002F933F934F935F936F937F938F939F93B1
:104F3000AF93BF93CF93DF93EF93FF93D091E900AB
:104F4000DF708091EC00C82FC17080FDC0E8109226
:104F5000E9008091F000877F8093F00078940E94B0
:104F600013101092E9008091F00088608093F000A7
:104F7000CD2BCF70C093E900FF91EF91DF91CF91DE
:104F8000BF91AF919F918F917F916F915F914F9161
:104F90003F912F910F900FBE0F901F9018951F9269
:104FA0000F920FB60F9211242F933F934F935F935D
:104FB0006F937F938F939F93AF93BF93EF93FF93E1
:104FC0008091E10082FF09C08091E20082FF05C06C
:104FD0008091E1008B7F8093E1008091DA0080FF77
:104FE00024C08091D80080FF20C08091DA008E7F9D
:104FF0008093DA008091D90080FF9DC080E189BD57
:1050000082E189BD09B400FEFDCF81E080934F04A9
:1050100080913904811109C00E941E040E9411056B
:105020008091E20084608093E2008091E10080FF43
:1050300017C08091E20080FF13C08091E2008E7F54
:105040008093E2008091E20080618093E200809191
:10505000D80080628093D80019BC85E080934F040B
:105060008091E10084FF2BC08091E20084FF27C083
:1050700080E189BD82E189BD89B5982F917080FF5B
:10508000FBCF8091D8008F7D8093D8008091E10084
:105090008F7E8093E1008091E2008F7E8093E2001A
:1050A0008091E20081608093E20080914604882331
:1050B00009F447C084E080934F0480914F048091AD
:1050C000E10083FF27C08091E20083FF23C080912D
:1050D000E100877F8093E10082E080934F0410928B
:1050E00046048091E1008E7F8093E1008091E20090
:1050F0008E7F8093E2008091E20080618093E200E5
:1051000042E060E080E00E94DF048091F00088606F
:105110008093F000FF91EF91BF91AF919F918F919C
:105120007F916F915F914F913F912F910F900FBEA3
:105130000F901F90189519BC10924F0410923904CB
:1051400074CF8091E30087FD93E090934F04B5CF37
:1051500078941F921FB61F9211248F939F93AF9341
:10516000BF938091320490913304A0913404B091A4
:1051700035040196A11DB11D809332049093330430
:10518000A0933404B0933504BF91AF919F918F9158
:105190001F901FBE1F9018951F921FB61F921124BB
:1051A0008F939F93AF93BF9380913104811113C06C
:1051B0008091320490913304A0913404B09135046D
:1051C0004196A11DB11D8093320490933304A093A6
:1051D0003404B0933504BF91AF919F918F911F908C
:1051E0001FBE1F901895CDB7DEB7E5970FB6F894A0
:1051F000DEBF0FBECDBF85B7806885BF85B780682D
:1052000085BF84B7877F84BF0FB6F894A895809137
:105210006000886180936000109260000FBE80E89B
:1052200090E00FB6F89480936100909361000FBEF8
:1052300085E298E09093A7018093A6010E94AC06B6
:105240000E94960E0E941E040E9411058091E200A9
:1052500084608093E200789480914F048823A1F0C9
:105260001091E9001F709091EC00892F817090FDE2
:1052700080E8182B1092E9008091E80083FD0E94DD
:1052800013101F701093E90082E084BD93E095BD78
:105290009AEF97BD80936E0010925D0210925E02AD
:1052A00010925F02109260020E946F0E811102C084
:1052B0000E94F70C0E94B20B809328010E94B20B4F
:1052C00081110E941D31809128018091280195E073
:1052D000811190E090936C0285E0891B80936B02B2
:1052E00004E711E0B9E7EB2EB1E0FB2ED8018D9178
:1052F0008D018F3F11F00E942708E016F106B1F7EB
:1053000009E711E0AFE7EA2EA1E0FA2EF80181915A
:105310008F018F3F11F00E942708E016F106B1F7C8
:105320008AE0EDE8F2E0DF01282F1D922A95E9F7E7
:10533000E1E6F2E0DF011D928A95E9F790E080E076
:105340000E942933883E9E4F21F40E946F0E8111E6
:1053500002C00E94A21782E090E00E942133809355
:1053600073020E94880E90936E0280936D020E94D9
:10537000E214EFE3FCE93197F1F700C000000E946E
:10538000E21480918D0280FF08C06FEF7FEF90E004
:1053900080E00E944D330E94CE0583E090E00E94A1
:1053A00021330E9402109091280181E09827909368
:1053B0008402F82FF91BF0937002909128018093DA
:1053C00085029091280180936F02809128018111BC
:1053D00006C084EF8093360185EF809335012091DC
:1053E0003601E22FE295EF70F0E061A12F7081E0CD
:1053F00090E0AC0101C0440F2A95EAF7342F3095B4
:10540000362331A322A1242B22A320913501E22FA0
:10541000E295EF70F0E031A12F7001C0880F2A955E
:10542000EAF7982F9095932391A392A1892B82A3B9
:105430008FE891E00197F1F700C00000109185021C
:1054400066E872E046E351E085E3E82E81E0F82E5D
:10545000FB0128C0DA012D91AD01822F82958F705A
:1054600090E0DC0190968C9190E02F7002C09595B1
:1054700087952A95E2F78170D7019D917D01292FAB
:1054800022952F7030E0D90190962C9130E09F70DA
:1054900002C0359527959A95E2F790E020FD92E0BD
:1054A000892B81938E2F861B8117A0F20E94B20B4D
:1054B000811102C00E94203189E291E090932E0474
:1054C00080932D048DE892E0BAE0B80FBDAB8091D7
:1054D0004F04F0E4FF2E00E112E1853009F484C0AE
:1054E0000E94E21404E712E0EDE8EE2EE2E0FE2E68
:1054F000D701F80191918D9132E0EE37F30709F46D
:105500007DC09817B9F30E94B20B682E7DE8C72EB4
:1055100072E0D72EB12CD601AD906D01F8017190DB
:105520008F017A1429F17A24912C88248394872D71
:105530008821B1F06620A1F098AAB9AA91E08A2D3D
:10554000882109F490E09AAB0E94FA058160782FD7
:105550009CAB8BAB48A959A96AA98CA90E94E422EB
:105560009394880CF6E09F12E2CFF8013197A08265
:10557000B3942AE0B212CFCF0E94EE055FC08091B3
:105580004F04843019F110923104E8E1F0E00FB6D5
:10559000F894A895E09360000FBEF092600083B786
:1055A000817F846083BF83B7816083BF789488954F
:1055B00083B78E7F83BF0FB6F894A8958091600063
:1055C000886180936000109260000FBE8091450456
:1055D000882351F00E94E214EDE8F2E081918111FC
:1055E000A9C52DA92E13FACF80914F04853009F457
:1055F000C6CF0E9407100E94D50B72CF981383CF9D
:105600000E94FA058C018091710290917202081734
:105610001907A1F08FEF8BA78CA71DA60E94FA0592
:105620008160782F9FA78EA74BA55CA56DA58FA540
:105630000E94E42210937202009371020E94B20B46
:10564000882309F447C0C0902904D0902A04C114CB
:10565000D104E9F080917E0290917F020E94DF05E3
:105660008C01C6010E941B0D8017910780F4809168
:1056700029043EE0839FC0011124FC01E554FD4F45
:10568000208122FD04C08A549D4F0E94420F8091C8
:1056900037018823F9F08091220490912304009728
:1056A000C9F00E94DF0520917C0330917D0328170B
:1056B000390780F49091200480912104981769F0B3
:1056C0000E94502210927D0310927C0310922304BA
:1056D00010922204C12CB12C77C00E94E3211092B9
:1056E0002304109222040E948506F4CF0C2D10E0B2
:1056F000F801EA5CFE4F8081E82FE295EF70F0E060
:10570000E0A1F0E08F7002C0F595E7958A95E2F789
:10571000E170D801AB5CBE4F2C91A22FA295AF7067
:10572000B0E090968C9190E02F7002C0959587958F
:105730002A95E2F780FD69C180E08E2BD801AA5737
:10574000BD4FEC919E2F93708917E9F1EE0FEE0F8C
:10575000E82BEC93D0908402DC0CEF70F0E0E15881
:10576000FE4F0E571D4F8081D8019C91890F8C935D
:1057700020E0823064F0ED2DF0E0E058FD4F8081B4
:105780008F5F808360E08D2D0E947A2521E0F801F3
:1057900080818F3F64F4ED2DF0E0E058FD4F808173
:1057A0008150808361E08D2D0E947A2521E0D8010F
:1057B0008C91082E000C990B62E070E00E94B632CA
:1057C000F8018083B22AC39480918502C81608F438
:1057D0008DCFB1100E94120A86E0EEE9F2E08E0150
:1057E0000F5F1F4FD80101900D928A95E1F710923B
:1057F000A0021092A1021092A2021092A3028B8129
:105800009C81892B09F44AC080919C0290919D0251
:105810000E94DF059C0190919802992309F4AEC47F
:1058200025313105D8F19F3F19F09F5F9093980281
:10583000DB80DD2059F00E949D079FEF1D140CF4C2
:1058400091E0899F802D11248093A002DC80DD20CF
:1058500059F00E949D079FEF1D140CF491E0899F61
:10586000802D11248093A1023091A0023323B1F046
:105870002091A102222391F045EB3403C0011124B1
:10588000992309F4C4C09093A00245EB240390012E
:105890001124332309F4BFC03093A1028D819E816E
:1058A000892B09F44AC080919A0290919B020E9430
:1058B000DF059C0190919702992309F45AC4213580
:1058C0003105D8F19F3F19F09F5F90939702DD80DB
:1058D000DD2059F00E947B079FEF1D140CF491E02E
:1058E000899F802D11248093A202DE80DD2059F053
:1058F0000E947B079FEF1D140CF491E0899F802D7F
:1059000011248093A3023091A2023323B1F020919D
:10591000A302222391F045EB3403C0011124992303
:1059200009F47DC09093A20245EB24039001112459
:10593000332309F478C03093A30246E050E0B80165
:105940008EE992E00E94F432892B61F48091A002EA
:105950009091A102892B9091A202892B9091A30290
:10596000892B11F00E94D10686E0F801AEE9B2E081
:1059700001900D928A95E1F70E94D50B90918802D3
:10598000891721F0809388020E94EE0580914F04D0
:10599000843009F09CCD83E08093E9008091E80099
:1059A00082FF95CD8091E80090E085FF0AC00E94BB
:1059B0003D0460E2C62ED12C5801882309F441C071
:1059C00091E08091E8008B778093E800992309F4B7
:1059D0007ECDC0907A03D0907B038981C114D1041D
:1059E00009F43DC08E3F09F0BFC08A81833020F0AA
:1059F0008550833008F0B8C0EA81EE3008F0B4C0BA
:105A0000F0E0E657FC4C0C94CA3282E096CE81E07E
:105A10008093A0023ACF81E08093A1023FCF81E042
:105A20008093A20281CF81E08093A30286CF8091F0
:105A3000F100D5018D935D01B1E0CB1AD10809F4D5
:105A4000BFCF8091E80085FDF2CF8091E8008B7791
:105A50008093E8000E943D04882399F3B1CF8C30F5
:105A600009F4C0C050F5843009F4A3C058F4823062
:105A700009F469C008F08EC0813009F460C08FEF6E
:105A8000898372C0863009F4AAC008F49DC08B30A7
:105A9000B1F78091760390917703892B09F464C064
:105AA000C8010E949804FFEF21EE34E0F15020403D
:105AB0003040E1F700C000006ECC803109F4C3C073
:105AC00090F58E3009F495C008F48FC0809176036C
:105AD00090917703892B09F447C0EC80F12C3DE1CC
