:100000000C945A030C9477030C9477030C947703A5
:100010000C9477030C9477030C9477030C94770378
:100020000C9477030C9477030C94D9290C9495299C
:100030000C94D62A0C9477030C9477030C947703D2
:100040000C9477030C9477030C9477030C94770348
:100050000C9477030C94B22A0C9477030C947703D6
:100060000C9477030C9477030C9477030C94770328
:100070000C9477030C9477030C9477030C94770318
:100080000C9477030C9477030C9477030C94770308
:100090000C9477030C9477030C9477030C947703F8
:1000A0000C9477030C9477030C94770305010902F1
:1000B000A10185020901A100050919012905150001
:1000C00025019505750181029501750381010501E1
:1000D000093009311581257F950275088106093897
:1000E0001581257F950175088106050C0A380215D2
:1000F00081257F950175088106C0C00660FF0961F2
:10010000A1010962150026FF0095207508810209EA
:1001100063150026FF00952075089102C0050109AE
:1001200006A101050719E029E715002501950875C5
:100130000181029501750881010507190029FF1544
:100140000026FF009506750881000508190129059C
:10015000950575019102950175039101C0FD377AEE
:10016000585A000004E6D6B44602002101160000E9
:1001700000742FE5A3E0047D019F5D003D8889C6E2
:100180005436C3174FE4E20F51124B4723B7FE0A10
:10019000F8C5D55C214E548B4EA7B8C85E0DF62528
:1001A0000C50247CDD3F9FF18857B6A97282F0D6AF
:1001B0004F1EAA70DC458463B6AEFB9F4F7F44950B
:1001C00060DD17666BB163A4E4A86DEF0208B0B9F7
:1001D000EC17CB7BB55795E5DAFA7B1BBAB2E12F6A
:1001E0005A73559BA34DC071F8818D37608A69732E
:1001F00030C4FC1B085D6886DDB4660B6AAB9D7D70
:10020000DF1FC81C245CB1D6D22B0B509203E770C1
:10021000C8ED3DA2145CB73DD012F09F7936F1E2F3
:10022000F409B8B3FAC86C00C739785FA784D20361
:10023000F948FF53989EF5C505B4EA20DD82E35DD9
:10024000FB8D8C7768D9FA7A5F719E40015B4F1BFA
:100250008569D985C3051B6AAD7CFC0D9CC19F0FC8
:10026000EDB618C7F77510C19B947013EF5D1A6057
:10027000FA616937F1EAB69B2E251F60E782CCC987
:10028000E3565BA90D19DAFA518CD4B23030090764
:10029000BDB126641AA7010B08F9E05F83D0FBF417
:1002A0000B12CC72C414D1CCBE2B62F71D345F7E0E
:1002B0004E1D5BA578F1A839458B4E035907EC1EFE
:1002C000AEC82B590865ACFE184DB954AAD28D247E
:1002D000DD03B00522BE64479C5FD621E856154A6F
:1002E0006F02A179401557D639DBAC166314C1E211
:1002F0007529AF4060E196E732394FB371AD7115A2
:100300006AA6E9F4AC968345706BEFC5E37D541D96
:1003100038A41A640DE424D38A690000001F73F81E
:10032000E81F77F3D40001BB03FE080000977D525D
:100330009CB1C467FB020000000004595A29001454
:10034000001A000800150017001C0018000C00120D
:100350000013004C00E00004001600070009000A2A
:10036000000B000D000E000F0033002800E1001DFF
:10037000001B0006001900050000001100100036E7
:100380000037003800E300E0000000E2002C4100EC
:10039000000251E600E400E700E5002A0035001EF7
:1003A000001F002000210022002300240025002639
:1003B0000027002D002B00010001000100010001B9
:1003C00000010001000100010031003400010001C2
:1003D0000001000100010001000100010001000115
:1003E00000010001000100010000000100035100B4
:1003F00000010001000100010001002E00010001C8
:100400000001000100010001000100010052000193
:1004100000010001000100010001000100010001D4
:10042000000100500051004F0001000100010001D7
:1004300000010001000100010001002F002F023027
:100440000230000100010001000000010001000075
:100450000003510100010001000100010001003A08
:10046000003B003C003D003E003F00400041004298
:1004700000430044000100010001000100010001EF
:100480000001000100010001000100010001000164
:100490000001000100010001000100010001000154
:1004A0000001000100010001000000010001000046
:1004B00000010001000100010001004500010001F0
:1004C000009803A90CDC0C0000020002009403A9B0
:1004D0000CDC0C0000030001009903A90CDC0C00EB
:1004E00000040002007E03A90CDC0C1A07050001C1
:1004F000009A03A90CDC0C0000060002008003A98E
:100500000CDC0C0000070002009603A90CDC0C00B8
:1005100000080001009B03A90CDC0C000012000283
:10052000009C03A90CDC0C0000130002009E03A930
:100530000CDC0C000014000100A003A90CDC0C0072
:1005400000150000000000A0064B14000009025B2B
:1005500000030100A0FA09040000010301010009E1
:100560002111010001224000070581030800010953
:1005700004010002030000000921110100012222F0
:10058000000705820320000107050303200001097D
:100590000402000103000000092111010001224FA3
:1005A000000705840320000112010002000000087A
:1005B0004D4C244C0002010203011C03760069002B
:1005C00061006C003A0066003600340063003200BF
:1005D000620033006300000016034C0069006200F3
:1005E0007200610020004D0069006E00690000008B
:1005F0000E034B004100490053004500520000002B
:1006000004030904000000000000000000000000D6
:1006100000000000000000000000000000000000DA
:1006200000000000000000007E0F00D4FFFFFFC7A5
:100630000000007800000000000000002A2B2800C5
:100640000000000000000000000000000000002981
:10065000000000002C1E3420212224342627252EC1
:10066000362D3738271E1F202122232425263333F9
:10067000362E37381F0405060708090A0B0C0D0E25
:100680000F101112131415161718191A1B1C1D2FF1
:100690003130232D350405060708090A0B0C0D0E11
:1006A0000F101112131415161718191A1B1C1D2FD1
:1006B0003130354C11241FBECFEFDAE0DEBFCDBFA5
:1006C00011E0A0E0B1E0ECEDF8E602C005900D927B
:1006D000AA33B107D9F724E0AAE3B1E001C01D9223
:1006E000A638B207E1F70E94FD2A0C9441340C941D
:1006F0000000873901F178F48633F9F030F484335F
:10070000F1F08533F1F08FE108958439E1F0863915
:10071000D1F781E20895843FC1F030F4803FB9F011
:10072000813F89F781E00895863F99F0A0F0873FE7
:1007300051F787E0089582E2089585E2089583E203
:10074000089584E2089580E2089584E0089580E0A9
:10075000089586E0089585E0089596E890937A00DC
:10076000982F9072906890937B008F719091000108
:10077000892B80937C0080917A00806480937A003A
:1007800080917A0086FDFCCF8091780020917900DD
:1007900090917A009F7790937A00922F08950E940B
:1007A00079030E94AD030895E8EDF0E080818E7F2B
:1007B00080831092E2001092DA001092E100A0EE25
:1007C000B0E08C9181608C9380818F77808319BC9D
:1007D000A7EDB0E08C918E7F8C9380818F7E80839B
:1007E00010926D0408952091E4003091E50095E6A3
:1007F000A9012091EC00822F817020FF06C080911A
:10080000E80080FF06C080E008952091E80022FD06
:100810001AC080918304882389F0853089F0809103
:10082000EB0085FD0FC02091E4003091E5004217F8
:100830005307F9F29150E1F684E0089582E00895BB
:1008400083E0089581E00895EF92FF920F931F9344
:10085000CF937C018B010E94F303C82F811117C035
:100860008091E80085FD0BC08091E8008E77809331
:10087000E8000E94F303882399F3C82F08C0F7010A
:1008800081917F018093F1000150110949F78C2F6C
:10089000CF911F910F91FF90EF900895CF93FC019E
:1008A00080918304843001F5C091E900CF702091DC
:1008B000EC00922F917020FD90E8C92B82E080938C
:1008C000E9008091E80080FF0CC050E040E060E269
:1008D00070E0CF010E9424048091E8008E7780931D
:1008E000E800CF70C093E900CF91089580917B0418
:1008F00087FF13C08091E80082FF06C08091E80066
:100900008B778093E80004C0809183048111F2CF3B
:100910000895809183048823D9F38091E80080FFB3
:10092000F8CF8091E8008E77ECCF982F9093E90074
:10093000242F762F50E0891731F07091EC00209130
:10094000ED005091F00021FD07C09F5F973071F7D7
:100950008093E90081E008953091EB003E7F309371
:10096000EB003091ED003D7F3093ED003091EB00D6
:1009700031603093EB007093EC002093ED005093C6
:10098000F0002091EE0027FDE0CF80E00895B0E078
:10099000A0E0EDECF4E00C94DD31C8EDD0E088810E
:1009A0008F7E8883E7EDF0E080818160808384E042
:1009B00082BF81E080936D0488818E7F888302EE00
:1009C00010E0F80110821092DA0081EEC82ED12CCE
:1009D000F601108288818F77888388818068888378
:1009E00088818F7D888319BC1092830410927A04C9
:1009F000109279041092780490EEE92EF12CF70110
:100A000080818B7F808388818160888342E060E081
:100A100080E00E949504F60180818E7F8083F8013A
:100A2000808181608083808188608083F7018081FC
:100A30008E7F8083888180618883CDB7DEB7E8E0D0
:100A40000C94F931FC018091810490918204861705
:100A50009707A0F06115710529F49091E8009E7741
:100A60009093E80090E06115710551F4911108C070
:100A70008091E80082FF34C080E00895BC01F2CF8D
:100A8000809183048823C1F18530C1F18091E80011
:100A900083FD30C08091E80082FDEACF8091E800BC
:100AA00080FFE1CF8091F3002091F200382F611593
:100AB000710519F02830310558F091E028303105E2
:100AC00009F090E02091E8002E772093E800CBCF4A
:100AD00081918093F100615071092F5F3F4FE7CF03
:100AE00080918304882341F0853041F08091E800B3
:100AF00083FFBECF81E0089582E0089583E00895EA
:100B000008950895089580916F04089587E797E701
:100B1000909301088093000888E19AE00FB6F8945A
:100B2000A895809360000FBE90936000FFCF9C015A
:100B30004FB7F8948091690490916A04A0916B0476
:100B4000B0916C044FBF821B930B08952FB7F8949C
:100B50006091690470916A0480916B0490916C04B7
:100B60002FBF08952FB7F8948091690490916A047B
:100B7000A0916B04B0916C042FBF08959C01FC01FF
:100B800032969FEF80E04191461751F09F3F19F454
:100B9000411101C0982F8F5F8630A9F79F3F09F45C
:100BA0000895290F311D97FD3A95F9016283089543
:100BB000E0916604F0916704309729F00190F0818C
:100BC000E02D0995089580E00895CF93DF93EC011F
:100BD0004091560450915704609158047091590403
:100BE0002FB7F8948091690490916A04A0916B04E6
:100BF000B0916C042FBF841B950BA60BB70B843FE1
:100C00009140A105B10518F58091560490915704C3
:100C1000A0915804B09159048093520490935304C6
:100C2000A0935404B093550484EF91E0A0E0B0E0A9
:100C300080934E0490934F04A0935004B0935104BA
:100C4000D0935E04C0935D04DF91CF9108950E941C
:100C5000A6056093520470935304809354049093B8
:100C6000550482E390E0A0E0B0E0E2CFFC01848193
:100C7000862351F492819923B9F06923808583FFFB
:100C800005C081E061110FC080E00895892F8F7049
:100C900092959F70982B862F8F7062956F70682B3E
:100CA00081E09613F1CF089581E0FDCF452B39F017
:100CB000682381E06F3F09F080E08170089581E052
:100CC000FCCFDC0160914A0480914B04962F89137C
:100CD00001C00895292F30E0F901EE0FFF1FEE5BF0
:100CE000FB4F408151814A175B07A1F487E08A9F3F
:100CF000A0018B9F500D1124465F5B4F81E0FA01EC
:100D000084839613E6CF2F5F3F4F237033272093C2
:100D10004A0408952F5F3F4F922F9370D8CF1092BF
:100D2000A7031092A603EAE0F4E08581811102C0D6
:100D300014821682379684E0E234F807B1F70895FA
:100D4000B0E0A0E0E6EAF6E00C94DB318FEF9FEF35
:100D50004430510508F469C040915B0341FB88278A
:100D600080F990E0880F991F42FB002700F910E0FE
:100D7000000F111F000F111F802B912B40FBCC2463
:100D8000C0F8D12C8C299D2943FB222720F9C22FA2
:100D9000E0E0DE2F53E0CC0FDD1F5A95E1F78C2BFE
:100DA0009D2B44FBAA27A0F9B0E0E4E0AA0FBB1FEB
:100DB000EA95E1F78A2B9B2B45FBEE27E0F9F0E063
:100DC000A5E0EE0FFF1FAA95E1F78E2B9F2B46FBA8
:100DD000222720F930E0B6E0220F331FBA95E1F761
:100DE000822B932B47FB222720F930E03695322FB8
:100DF000222737952795822B932B20915C03322F46
:100E00003170F32EE82EF92A26952170B22EBB0CF4
:100E1000A82EBF28C501BB0CAA0BBB0BFB0180830E
:100E20009183A283B38390E080E0CDB7DEB7EAE0A0
:100E30000C94F73180917E0390917F0390930F0182
:100E400080930E010895EAE0F2E090E080E06AEF1E
:100E500078E241E259E22FE638E2778366835187F0
:100E60004087338722879587848701963E9688300E
:100E7000910599F7089581152CE5920741F4209189
:100E8000550330915603232B11F490E080E0089530
:100E900080E00895F894E82FE295EF70F0E031A13A
:100EA000282F2F7081E090E001C0880F2A95EAF783
:100EB000982F9095932391A392A1892B82A3789444
:100EC000089590915B0392FF06C0282F2871283067
:100ED000F9F4877F846093FF06C0282F287128319A
:100EE000F1F4877E846120915C0320FF06C0382FD7
:100EF00038713830D9F4877F816021FF06C0282FF0
:100F000028712831D1F4877E816194FD877E089510
:100F1000282F24712430F9F68B7F8860DCCF282FAE
:100F20002471243101F78B7E8861DDCF382F317138
:100F3000313019F78E7F8860E0CF282F2171213161
:100F400021F78E7E8861E1CFCF93DF93EC01823869
:100F5000910589F1E0F58133910509F499C028F5EF
:100F60008932910509F489C08A9709F498C0C1159E
:100F700023E5D20708F0B3C0C11532E5D30708F066
:100F800010C1C11540E2D40708F097C0C11581E037
:100F9000D80758F5C53AD10508F088C0C430D10546
:100FA00020F5C130D10509F145C08533910509F41B
:100FB0005FC0C997E1F680915B03837009F026C199
:100FC00080915C0383FF11C0C9E2D0E00EC0833E74
:100FD000910599F170F4803E910501F1823E9105F1
:100FE00031F680915B0382FD21C0CE01DF91CF916C
:100FF0000895863E910561F1873E910571F1843E29
:10100000910509F0B4CF80915C0381FFEECF809110
:101010005B03C7EED0E084FD0DC0E7CF80915B039A
:1010200080FD33C090915C0390FFDFCFC3EED0E032
:1010300084FFDBCFD0E0C0E0D8CF80915B0382FD9E
:10104000E2C090915C0390FDE1C084FFCECFF2CF6F
:1010500080915B0383FDDDCFC8CF80915B0383FD6F
:10106000D8C090915C0391FFF0CFC4EED0E0BDCF2B
:1010700080915B0385FFB9CFA7CF80915B0385FD8E
:10108000CBC080915C0383FFB0CFC9E3D0E0ADCF8C
:1010900080915B0386FFA9CFCAE2D0E0A6CF809102
:1010A0005B0386FFA2CFC1E3D0E09FCFCE01815E7C
:1010B0009109079708F499CFBDCFC11521E5D20753
:1010C00008F06AC0C11530E5D30708F050C0C1155B
:1010D00040E4D40708F4AECFDF70D06A86CFC115E4
:1010E00086E5D807F0F4C11525E5D20708F072C0EF
:1010F000C11534E5D30708F068C0CE018370992785
:1011000021E030E002C0220F331F8A95E2F7C69536
:10111000C69540E2C49FE0011124C22BD32BDA68AC
:1011200064CFC1154AE5D40778F4C11589E5D8071D
:1011300008F05BC0C11528E5D20708F47BCFDC2F8F
:10114000CC27C06FD06A51CFCE0190568115904206
:1011500008F070CF8D2F8F710E94610790E0982F5B
:10116000882788279F719C012C2BE9013CC02C2FDC
:1011700026952695237040E2249F900111248C2F00
:101180008370C1E0D0E002C0CC0FDD1F8A95E2F78A
:10119000C22BD32BDD6829CFDC2FCC27C16FD06ABF
:1011A00024CFCE018370992721E030E002C0220FC6
:1011B000331F8A95E2F7C695C69580E2C89FE00185
:1011C0001124C22BD32BDC6810CFDC2FCC27C46FAB
:1011D000D06A0BCF8C2F0E946107C82FD0E0DC2F84
:1011E000CC27CC27DF71D06200CF8C2F8F700E946C
:1011F000610734E0D695C7953A95E1F7CF709C2FFB
:10120000EC01D069F2CEC2EED0E0EFCEC0EED0E07D
:10121000ECCEC6EED0E0E9CEC5E3D0E0E6CE8091DC
:10122000B701882331F01092B7011092B6011092E5
:10123000B5010895CF93C82F80915C0382FF0CC045
:101240008091B7018C1741F00E94B2059093B601CE
:101250008093B501C093B701CF9108958095909187
:1012600085049823909385040895809590915D035B
:10127000982390935D03089590915D03892B80934B
:101280005D0308951092AC011092AB011092AA0177
:1012900008958091800390918103892B89F00E94A9
:1012A000B2052091B5013091B601AC01421B530B40
:1012B00081E020918003309181034217530708F4A5
:1012C00080E081700895EEE3F1E09191891303C00D
:1012D000DF0111971C9291E0E434F907B1F708950A
:1012E0002091A90190916801291302C080E008951E
:1012F00030E0F90153E0EE0FFF1F5A95E1F7E7598F
:10130000FE4F5181561306C05081581303C05281BD
:10131000541304C02F5F3F4F2770E6CF81E008953C
:101320008091A90190916801981301C008958F5F81
:101330008770FACF292F943078F58C3068F590E0DB
:101340003CE0239F800D911D1124682F677023E0DE
:10135000969587952A95E1F7FC01EE0FFF1FE80FA0
:10136000F91FE25BFE4F50E040E080E0219130E069
:10137000062E02C0369527950A94E2F7217033278E
:10138000042E01C0220F0A94EAF7822B4F5F5F4FB1
:101390004330510559F7089580E00895292F94307E
:1013A00098F58C3088F590E03CE0239F800D911DEE
:1013B0001124282F277041E001C0440F2A95EAF735
:1013C00023E0969587952A95E1F7FC01EE0FFF1F24
:1013D000E80FF91FE25BFE4F30E020E070E0519132
:1013E000DF011197CB01022E02C0969587950A94D2
:1013F000E2F7817081958527842385278C932F5F61
:101400003F4F2330310559F7089592959F709630DC
:1014100091F058F4925F9F70923058F4803F19F029
:1014200030F4883E30F481E008959A5FF4CF843F31
:10143000D1F380E00895883EB0F3813FD1F7F3CF38
:101440009C013A9521153F4150F5FC01EE27F170C2
:10145000BC0166277270AC01442754709C0122279E
:10146000387094FF0EC080E1EF2B09F480E0672B09
:1014700009F08062452B09F08064232B89F0806895
:10148000089581E0EF2B09F480E0672B09F082607A
:10149000452B09F08460232B19F08860089580E0C3
:1014A00008959C0184E08093E9009FEF8091E8001B
:1014B000915085FD06C085ED8A95F1F700009111E8
:1014C000F5CF8091E80085FF0CC050E040E066E079
:1014D00070E0C9010E9424048091E8008E77809317
:1014E000E8000895CF93DF93EC0181E08093E90059
:1014F0008FEF9091E800815095FD06C095ED9A958B
:10150000F1F700008111F5CF8091E80085FF14C04C
:1015100050E040E068E070E0CE010E942404809139
:10152000E8008E778093E80088E0FE01A0E7B4E051
:1015300001900D928A95E1F7DF91CF91089501977F
:1015400008F40895EFE9FFE03197F1F700C00000DB
:10155000F6CFB0E0A0E0EFEAFAE00C94DD318B01C9
:101560000E94CF030817190709F47CC08017910760
:1015700008F065C0B801681B790BCFEF072E000C8F
:10158000880B990B0E9448336B017C01B801012E36
:10159000000C880B990B0E9448339B01AC01C701DA
:1015A000B6010E949E3220E030E048EC52E40E94F6
:1015B000D4330E94103377FD55C04C2F0C2E000CF5
:1015C000550B653671050CF445C034E6C302E001E5
:1015D0001124209709F446C0BE010D2E000C880B83
:1015E000990B0E94483320E030E048EC52E40E941E
:1015F0009E3220E030E040EA50E40E94D4336B0198
:101600007C01CE01D7FF03C09195819591096AE0D5
:1016100070E00E94B231072E000C880B990B0E94DB
:1016200048339B01AC01C701B6010E94D4330E942C
:101630001033862FCDB7DEB7E8E00C94F931BC014A
:10164000601B710B8FEF93E09C01201B310B890114
:10165000C1E094CF469FE001479FD00D569FD00D2B
:101660001124B7CF80E0E6CFACE0B0E0EAE3FBE0E6
:101670000C94E1314F838B879C87152F8091F20169
:101680009091F3010E9497050B9770F10E94B205AB
:101690009093F3018093F2016091F6017091F7014C
:1016A00087E90E94A90A082F6091F4017091F50161
:1016B00086E30E94A90A1E7F188709878A8786E029
:1016C000FE013796DE01119601900D928A95E1F7A1
:1016D00029813A814B815C816D817E8180E090E03F
:1016E0002C96E4E00C94FD3180E000E0E4CF87E943
:1016F0000E94CF039093F7018093F60186E30E9446
:10170000CF039093F5018093F40108950F931F93F5
:10171000CF93DF930EE713E0C7EAD1E0CE010E943A
:101720005432F80181938F012196CB3CF1E0DF0721
:10173000A9F7C7ECD4E0FE0185919491009711F0D0
:10174000FC0109952C96F5E0C735DF07A1F7DF917D
:10175000CF911F910F9108950F931F93CF93DF9314
:10176000843030F5643020F54C3010F5C42FD0E0D3
:10177000CC0FDD1F28E1629FC00DD11D112430E682
:10178000839FC00DD11D1124CE0187960E94543233
:10179000082F10E0102F0027CE0188960E945432A7
:1017A0009801282BC901DF91CF911F910F910895C6
:1017B00090E080E0F8CF462F2091590330915A03F2
:1017C000232B99F4703F39F4603F79F480915703EB
:1017D000909158030895843040F4743030F46C30A4
:1017E00020F4672F0E94AC0B089590E080E00895EC
:1017F000CF92DF92FF920F931F93CF93DF936C01F1
:10180000009184048091B801082BC7E0D0E010E07B
:10181000FC2EC8010C2E02C0959587950A94E2F71C
:1018200080FD0CC02197A0F7F12C8F2DDF91CF9177
:101830001F910F91FF90DF90CF900895B6018C2FEC
:101840000E94DB0B0E94A407019761F3EECFCF93B8
:10185000DF93EC010E94F80BBE010E94DB0B0E949B
:10186000A407DF91CF910895CF93DF93EC014B81D3
:101870005C81698188810E945606811110C08E8129
:101880009F81009739F00E94A4070E94050ADF910A
:10189000CF910895888199810E94270CF6CF80E02E
:1018A000F6CFA5E0B0E0E7E5FCE00C94E231498337
:1018B0005A8389819A81662399F0222389F00E94B4
:1018C000F80B182F682F89819A810E94CE096981AF
:1018D0007A81812F0E94DB0B2596E3E00C94FE3188
:1018E0000E949A09182FF3CFFC01262F8681978139
:1018F000009739F4408151816281738184810E9413
:10190000510C089583E290E00E945432823D89F4A4
:1019100084E290E00E9454328F3659F485E290E0E0
:101920000E94543291E08A3C09F090E0892F817046
:10193000089580E0FCCFCF9384E090E00E94543281
:10194000C82F82E290E00E945432982F8C2FCF91C2
:101950000895DB01FC01329625913491421753071B
:1019600058F0FC01349665917491A901CD010E9453
:10197000343290E080E008958FEF9FEF08950F9349
:101980001F93CF93DF930EE713E0C7EAD1E0CE01B8
:101990000E945432F80161918F01681719F0CE014D
:1019A0000E9462322196CB3CF1E0DF0781F7DF91A4
:1019B000CF911F910F910895DA019C012E5F3F4F47
:1019C000F90145915491F90125913491A217B3077A
:1019D00058F0FC013496859194910E9434320E9413
:1019E000BF0C90E080E008958FEF9FEF0895CF93B4
:1019F000DF93CBEBD2E060E0CE010E946232219611
:101A0000C11584E0D807B9F7DF91CF9108951F93EE
:101A1000CF93DF93122F8430E0F46430D0F44C3055
:101A2000C0F4C42FD0E0CC0FDD1F98E1699FC00D3A
:101A3000D11D112490E6899FC00DD11D1124632F63
:101A4000CE0187960E946232612FCE0188960E9455
:101A50006232DF91CF911F910895CF93C82F6FEF1E
:101A6000811162ED83E290E00E9462326FEFC1115A
:101A70006FE684E290E00E9462326FEFC1116AEC7F
:101A800085E290E00E946232CF910895CF93C92FF2
:101A9000682F84E090E00E9462326C2F82E290E036
:101AA0000E946232CF9108959B01883070F49AE0D1
:101AB000899FB001112465537E4F4AE050E0C9016F
:101AC0000E94443290E080E008958FEF9FEF0895E8
:101AD000AAE0B0E0EEE6FDE00C94E3319C0137555E
:101AE0002F3F310509F068F4BE016F5F7F4F0E9400
:101AF000540D892B31F489859A852A96E2E00C945D
:101B0000FF318091960390919703F7CFAAE0B0E060
:101B1000ECE8FDE00C94D9310DED12E08BECC82E11
:101B200082E0D82E9BE6E92E92E0F92E27E0922E55
:101B30003AECA32E32E0B32E88248394D6010D9381
:101B40001D936D014AE050E0B701CE0101960E945D
:101B50004432F8013896DF01892D1D928A95E9F704
:101B600089819A81D80111969C938E938F811296C8
:101B70008C9312978D8113968C9313978885149666
:101B80008C931497898515968C9315978B819C81DE
:101B900017969C938E93169718961C9218978A8581
:101BA00087FF3CC01E961C921E921D9780FF03C0AB
:101BB000D80118968C9281FF04C0F801908592603C
:101BC000908782FF07C0D80118969C91189794605F
:101BD00018969C9383FF04C0F801908598609087C5
:101BE00084FF07C0D80118969C91189790611896A9
:101BF0009C9385FF04C0F801808580628087015F27
:101C00001F4FFAE0EF0EF11C8BEBE81682E0F806AE
:101C100009F094CF2A96ECE00C94F531F801B686E1
:101C2000A586C4CFAAE0B0E0E8E1FEE00C94DD3187
:101C3000EAE7F2E080E5DF011D928A95E9F7EAE044
:101C4000F4E088E3DF011D928A95E9F78AE7C82E60
:101C500082E0D82E7F010BE112E0F701D182C08231
:101C60004AE050E0B801CE0101960E94443288E07B
:101C7000FE013196D60101900D928A95E1F7898592
:101C80009A85D70113969C938E931297BAE0CB0E48
:101C9000D11CE7E0EE0EF11C065F1F4F0B36F2E0A1
:101CA0001F07D9F62A96E8E00C94F931AEE1B0E0CE
:101CB000ECE5FEE00C94E3314091EC015091ED0134
:101CC0006091EE017091EF018091F0019091F1012E
:101CD0000E94340B2093EC013093ED014093EE0110
:101CE0005093EF016093F0017093F10186E0ECEE08
:101CF000F1E0DE01179601900D928A95E1F780914F
:101D0000EF0181959091EE01919599878A8786E000
:101D1000FE013796DE011D9601900D928A95E1F73E
:101D200086E0FE013D96DE01119601900D928A95A6
:101D3000E1F786E0FE013196ACEEB1E001900D9244
:101D40008A95E1F786E0ECEEF1E0DE01599601902C
:101D50000D928A95E1F786E0FE017996DE011796ED
:101D600001900D928A95E1F786E0FE013796DE013B
:101D7000119601900D928A95E1F786E0FE01319669
:101D8000DE01539601900D928A95E1F786E0FE01FF
:101D90007396DE01179601900D928A95E1F786E021
:101DA000FE013796ACEEB1E001900D928A95E1F715
:101DB00046E050E066EE71E08CEE91E00E94273242
:101DC000892B79F0E0916604F0916704309749F02F
:101DD00082E08093EC010480F581E02D8CEE91E0AF
:101DE00009951092EE011092EF011092F0011092FD
:101DF000F10186E0ECEEF1E0A6EEB1E001900D928B
:101E00008A95E1F76E96E2E00C94FF312F923F92B3
:101E10005F926F927F928F929F92AF92BF92CF927A
:101E2000DF92EF92FF920F931F93CF93DF93CDB783
:101E3000DEB728970FB6F894DEBF0FBECDBF8E0178
:101E40000F5F1F4F88E0F80111928A95E9F72BE1A7
:101E5000E22E21E0F22E37E2632E31E0732ECC2405
:101E6000C394D12C88248394912C6BE2A62E61E03C
:101E7000B62EF70181917F018F3F09F44DC0F89490
:101E8000E82FE295EF70F0E021A18F70A40102C06D
:101E9000440F551F8A95E2F7CA01922F982B91A300
:101EA00092A18095892382A3789400C097E2292E7D
:101EB00091E0392ED801B60160957095F1015190ED
:101EC0001F018D919D91AD0142505109FFEF5F16A9
:101ED00009F461C0252D22952F7030E0F90120A171
:101EE00030E0F52DFF7002C035952795FA95E2F7A1
:101EF00020FD51C08C299D29FA0191838083A21471
:101F0000B304E1F6F701319780818F3F11F00E9411
:101F10004A07F0EAFA95F1F7CC0CDD1C6E147F0449
:101F200009F0A7CF48E050E0B8018CEB91E00E94A7
:101F30002732892B99F188E0F801ACEBB1E00190F0
:101F40000D928A95E1F781E08093BB010E94B20572
:101F50009093BA018093B9018091B9019091BA012F
:101F60000E9497050597F0F048E050E06CEB71E0B7
:101F70008EED91E00E942732892B69F188E0ECEB2D
:101F8000F1E0AEEDB1E001900D928A95E1F781E0CC
:101F90001092BB0108C086239723AECF8091BB016E
:101FA0008111DACF80E028960FB6F894DEBF0FBE1D
:101FB000CDBFDF91CF911F910F91FF90EF90DF90F8
:101FC000CF90BF90AF909F908F907F906F905F90D9
:101FD0003F902F90089580E0DBCF80915D0390913A
:101FE0008504892B80933C018091B701882309F1F6
:101FF0008091800390918103892B29F00E944909E7
:1020000081110E940F0980913C019091B701892BA9
:1020100080933C0120E08EE391E0FC013191CF01FF
:1020200031112F5FF1E084349F07B9F721110E942D
:102030000F0980915A04809590913C0189239091D9
:102040005B04892B80933C0148E050E06DEA71E02D
:102050008CE391E00E942732892BA9F088E0ECE321
:10206000F1E0ADEAB1E001900D928A95E1F7E091DF
:102070006604F0916704309731F00280F381E02D1F
:102080008CE391E009950895CF93DF93EC01EA8505
:10209000FB85309719F06C857D8509958B810E94B1
:1020A0002E098C810E9435090E94ED0F86E0FE0109
:1020B00011928A95E9F7DF91CF910895CF93DF933D
:1020C000EC018D8181FD15C082608D838091850436
:1020D0009B81892B809385048C810E943C090E94FE
:1020E000ED0FE885F985309721F06C857D85CE016F
:1020F000099510926504109264048D8180FD03C0DF
:10210000CE010E944410DF91CF910895809110017B
:10211000877F8093100182E00E942E098091100138
:1021200084FF06C08F7E8093100182E00E943C09EC
:102130008091100185FF06C08F7D8093100180E2A1
:102140000E943C090E94ED0F089510925D03EEE39A
:10215000F1E086E0DF011D928A95E9F7109285048F
:102160000E94ED0F0895AAE2B0E0E9EBF0E10C94D3
:10217000E2318BE794E02091F100DC012D93CD0159
:10218000B4E083389B07B9F780917C04833009F46D
:1021900072C0B8F4813009F449C0823009F4B3C088
:1021A0008091E80083FF96C280917B0490917C042B
:1021B0009A3008F08FC2E92FF0E0ED5BFB4C0C94F5
:1021C000C6318A3009F48EC08B3009F471C0893071
:1021D00039F780917B04813219F780917F049091C7
:1021E0008004009711F00297D9F68091E800877F6C
:1021F0008093E8008091E80082FF38C09091F3005E
:102200008091F200029731F48091F100813011F059
:10221000863021F48091F10080936F048091E80072
:102220008B778093E8000E947604BACF80917B047C
:10223000813A09F0B5CF8091E800877F8093E8006C
:1022400080917F0490918004892B61F468E080E79D
:1022500094E070E00E9422058091E8008B778093E3
:10226000E8009ECF60E090E080E0F3CF80918304AF
:102270008111C0CF95CF80917B04813A09F090CF36
:1022800080917F0490918004892B09F089CF8091FF
:10229000E800877F8093E8008091E80080FFFCCF12
:1022A000809112018093F1008091E8008E77B9CF80
:1022B00080917B04813209F073CF80917F049091EB
:1022C0008004892B09F06CCF8091E800877F809390
:1022D000E8000E94760480917D04809312010E94A0
:1022E000A5105ECF80917B04813209F059CF809197
:1022F000E800877F8093E8000E94760480917E0446
:1023000080936E044DCF80917B04813A09F048CFD1
:102310008091E800877F8093E8008091E80080FF4B
:10232000FCCF80916E04BECF803899F0823809F0DE
:10233000D1C180917F048F70873008F0CBC180932A
:10234000E9008091EB0085FB882780F91092E90075
:1023500006C08091780490917904911182609091E7
:10236000E800977F9093E8008093F1001092F100CD
:102370008091E8008E77AAC1882309F498C1823041
:1023800009F0A8C180917D0481119BC180917F04D7
:102390008F702FEF280F263008F09CC18093E90042
:1023A0002091EB0020FF8DC1933031F48091EB0040
:1023B00080628093EB0085C19091EB0090619093D7
:1023C000EB0021E030E001C0220F8A95EAF720936C
:1023D000EA001092EA008091EB008860EACF811158
:1023E00079C110917D041F778091E3008078812B63
:1023F0008093E3008091E800877F8093E8000E944B
:1024000076048091E80080FFFCCF8091E300806833
:102410008093E30082E0111183E0809383045AC12A
:102420008058823008F056C120917D0430917E049E
:102430002C3DE3E03E07A1F583E08A838AE28983AD
:102440004FB7F894DE01139620E03EE051E2E32F0F
:10245000F0E050935700E49120FF03C0E295EF7045
:102460003F5FEF708E2F90E0EA30C0F0C7968D93FB
:102470009D932F5F243159F74FBF8091E800877FEC
:102480008093E8006AE270E0CE0101960E94220586
:102490008091E8008B778093E8001CC1C096E7CF5D
:1024A00080917F0490918004432F5527433051053C
:1024B00009F44AC078F54130510509F485C08BE52F
:1024C00090E0EDE4F5E04230510509F003C12091C0
:1024D000E800277F2093E800209181043091820456
:1024E0008217930708F49C0140E02115310509F09B
:1024F00070C041116EC08091E80082FDC9CF80910B
:102500008304882329F2853019F28091E80083FF43
:10251000F2CFBECF4132510509F447C042325105D6
:1025200009F0D8C08330910508F0D4C0FC01EE0F4B
:10253000FF1FE25DFE4F0190F081E02D855D9E4F13
:10254000DC018C9190E01DC0332721303105E9F08A
:102550002115310579F022303105F9F023303105AC
:1025600009F0B8C0EAEBF5E0E4918E2F90E0EAEBD9
:10257000F5E007C0E0E0F6E0E4918E2F90E0E0E0C7
:10258000F6E0009709F4A6C0A2CFE0EFF5E0E491F1
:102590008E2F90E0E0EFF5E0F4CFE8EDF5E0E49188
:1025A0008E2F90E0E8EDF5E0ECCF8330910508F058
:1025B00091C0880F991FFC01EC5CFE4F0190F081E7
:1025C000E02D89E090E083CF82E190E0E8EAF5E059
:1025D0007ECF80918304882309F45ACF853009F493
:1025E00057CF8091E80083FD53CF8091E80082FDB2
:1025F00082CF8091E80080FF78CF9091F3008091A6
:10260000F2002115310519F08830910550F041E0B4
:10261000089709F040E08091E8008E778093E80009
:1026200064CF44914093F1003196215031090196D5
:10263000E8CF803809F04EC08091E800877F809312
:10264000E80080917A048093F10092CE811142C01B
:1026500010917D041230F0F58091E800877F80931F
:10266000E80010937A040E947604112311F084E0AC
:1026700005C08091E30087FDFACF81E08093830459
:1026800042E061EC81E00E94950442E261EC84E06A
:102690000E94950442E261EC82E00E94950442E2CD
:1026A00060EC83E00E9495048091830413C08091C4
:1026B0007D04813079F481E0933009F080E08093EB
:1026C00079041092E9008091E800877F8093E80008
:1026D0000E9476048091E80083FF0AC08091E800A0
:1026E000877F8093E8008091EB0080628093EB000D
:1026F000AA96E3E00C94FE31EEE7F3E0128E138E1F
:102700008FEA90E09183808385E0848F28E833E12D
:102710003383228322E330E0378B268B28EC30E0B2
:10272000318F208F158E178E168E20E530E031A365
:1027300020A382A30E94BF0C0E94A51010925C03EC
:1027400010925B03ECE5F3E08081846080838091EC
:102750005B0390915C030E94460D0E94860B0895D6
:10276000AEE1B0E0E6EBF3E10C94D831A090550374
:10277000B090560381E090E0909356038093550308
:102780008DE3C82E83E0D82E00E0760110E015C05E
:10279000F40125913491472D612F802F0E94070D60
:1027A00082E0880E911C7394ECE07E12F1CFF8E188
:1027B000EF0EF11C1F5F143019F04701712CE8CFA8
:1027C0000F5F80E6C80ED11C0430F9F60E947C131E
:1027D0001A8219821C821B821E821D8218861F8209
:1027E00088EC90E09A8789870BEC11E04AE050E092
:1027F000B801CE0101960E948632065F1F4F0B3151
:10280000E2E01E0799F77E01FBE0EF0EF11C8AE083
:10281000F70111928A95E9F74AE050E0B801C70143
:102820000E948632065F1F4F0B36F2E01F07A1F7AA
:102830007E0185E1E80EF11C8AE0F70111928A958C
:10284000E9F78FEF9FEF9A8F898F87E08E8F4AE0AD
:1028500050E0B801C7010E948632065F1F4F0B3B54
:10286000F2E01F07A1F7B0925603A09255036E96AF
:10287000EDE00C94F43180E00E942D0D60E086E2E2
:1028800090E00E9462320E94B0130E94F70C81E037
:102890000E942D0D0895CF92DF92EF92FF928FEF5D
:1028A0009FEF4430510508F46AC0FB01C080D1801D
:1028B000E280F3800E94A51080915B03C0FA80F94A
:1028C000B701A601769567955795479540FB81F925
:1028D000B701A60122E076956795579547952A9509
:1028E000D1F740FB82F9B701A60133E076956795F1
:1028F000579547953A95D1F740FB83F9B701A60163
:10290000E4E07695679557954795EA95D1F740FBB2
:1029100084F9B701A601F5E0769567955795479537
:10292000FA95D1F740FB85F9B701A601A6E07695A7
:10293000679557954795AA95D1F740FB86F9B7015A
:10294000A601B7E07695679557954795BA95D1F763
:1029500040FB87F980935B0380915C03D0FA80F998
:10296000D1FACC24C0F8C0FA81F980935C0380913D
:102970005B0390915C030E94460D90E080E0FF9025
:10298000EF90DF90CF9008950E94A5102FEF84E381
:102990009CE0215080409040E1F700C0000088E1B9
:1029A0009AE00FB6F894A895809360000FBE9093BC
:1029B0006000FFCF80938404109285040E94ED0F85
:1029C000089580918404982F9670963021F4886041
:1029D0000E94DA140895877FFBCF21E030E001C028
:1029E000220F8A95EAF720958091840482230E9421
:1029F000DA1408959091AC01809589238093AC01FD
:102A0000282F277091F4282F082E000C330B9217D3
:102A1000130659F090915C0392FF07C08595859548
:102A200085950E94ED140E944209089590915C03DF
:102A300092FB222720F9281769F080FB92F99093E6
:102A40005C0380915B0390915C030E94460D82E0E1
:102A50000E94FA14089521E030E001C0220F8A9507
:102A6000EAF780918404822B0E94DA1408959091F1
:102A70005C0392FF10C098E0899F90011124622BA3
:102A80006093AC010E942B150E94B2059093AB019C
:102A90008093AA0108950E942B1508958093B80190
:102AA000109285040E94ED0F0895882321F00E9462
:102AB0002E090E94ED0F0895882339F09091850426
:102AC000982B909385040E94ED0F0895882321F0A0
:102AD0000E9435090E94ED0F0895882321F00E947D
:102AE0003C090E94ED0F0895882389F19CEF980F0F
:102AF000913A28F40E9463090E94ED0F089590E234
:102B0000980F983050F4877091E001C0990F8A9522
:102B1000EAF7892F0E943509EFCF9BE5980F933094
:102B2000B8F480914A0190914B01892B81F0109269
:102B30004B0110924A01E0916604F09167043097CE
:102B400031F00680F781E02D90E080E0099508954E
:102B5000885A8731E0F780914C0190914D01892B83
:102B6000B1F310924D0110924C01E0916604F09186
:102B70006704309761F30084F185E02DE5CFFF9283
:102B80000F931F93CF93DF93F82E00915F04109162
:102B900060040115110509F449C010925E041092F9
:102BA0005D0410925A0410925B04D8011696CD91E0
:102BB000DC919E013A9521153F4108F4D07ED1E089
:102BC000C11101C0D0E0D8011996ED91FC911A977E
:102BD000309731F01B966D917C9180E00995D82358
:102BE000DD2339F08CEF8C0F813A30F58C2F0E9469
:102BF0006309FF2099F0E0915F04F0916004808503
:102C000084FD0CC080915C04882341F08081918117
:102C10009C0121503109203B3D45A0F00E94ED0F61
:102C20001092600410925F0410925C04C801CDB74A
:102C3000DEB7E5E00C94FC310E94ED0F8C2F0E9472
:102C40007415D7CF0E94E505E9CFCF93DF93EC0150
:102C50000E947415CE010E94200A9E01205E310957
:102C60002830310510F0CD2B29F40E946615DF9134
:102C7000CF9108950E945515FACFCF93C82F88237E
:102C8000A1F08CEF8C0F813A90F4EEE3F1E08191AA
:102C9000C817D1F081E0E434F807C9F76C2F8CE352
:102CA00091E00E94BE050E94ED0FCF91089580E251
:102CB0008C0F8830D0F7C77081E001C0880FCA95AB
:102CC000EAF70E943C09EFCF8C2F0E9463090E9413
:102CD000ED0FE4CF1F93CF93DF93182FC0919E0386
:102CE000D0919F03893321F0C0919C03D0919D0323
:102CF000812F0E943D16209739F4812F0E94741570
:102D0000DF91CF911F9108958FE99FE00197F1F72F
:102D100000C000002197EFCFB0E0A0E0E2E9F6E1CB
:102D20000C94DB31EC018AE0A82E2881222309F4DF
:102D30008FC02130C9F599818A81913021F4229682
:102D40000E946A1605C0923029F422960E943D1610
:102D50002196EBCF933021F422960E947415F8CF80
:102D6000943011F02196F4CF229630E020E0AE01AD
:102D70004F5F5F4F8053990B8A30910550F021507F
:102D8000310930F38FE99FE00197F1F700C00000AF
:102D9000F6CFA29EB001A39E700D11249C01260FB8
:102DA000371F8981EA01E3CFE22FF0E0EC5CF94FB5
:102DB000B490822F86958695869590E0FC01EC5D17
:102DC000F94FE4902770F12C022E02C0F594E7949D
:102DD0000A94E2F731E0E322FF24FC01EC5EF94FB4
:102DE000C490D12C022E02C0D594C7940A94E2F765
:102DF00031E0C322DD24FC01EC5FF94F049110E0C7
:102E000002C0159507952A95E2F701701127E11484
:102E1000F10419F081EE0E943D16C114D10419F09D
:102E200086EE0E943D168B2D0E946A16C114D104B5
:102E300019F086EE0E947415E114F10419F081EE88
:102E40000E9474150115110509F482CF8CE278CF28
:102E5000CDB7DEB7EAE00C94F731B0E0A0E0E3E3F1
:102E6000F7E10C94DB317C015B01C42FD22FFC0114
:102E700082818823A9F0409363040E94B205909355
:102E8000620480936104C77081E001C0880FCA9515
:102E9000EAF70E946D15CDB7DEB7EAE00C94F73182
:102EA00010916304141338C08091610490916204FE
:102EB0000E9497056C01B701C5010E94680DC816F4
:102EC000D90650F5C0E2CD0F1D17C1F080E2810F89
:102ED000883048F4177081E0012E01C0880F0A94F1
:102EE000EAF70E946615C83048F481E09D2F97707C
:102EF00001C0880F9A95EAF70E946D15802F0E94F5
:102F00006A16C83040F6D77081E001C0880FDA95A4
:102F1000EAF70E946615BFCFC77081E001C0880F35
:102F2000CA95EAF7F6CFCF93DF93EC010E94200A0F
:102F30009E01205E31092830310510F0209741F4C0
:102F40000E946D158C2F0E943D16DF91CF91089540
:102F50000E945C15F7CF662329F02091850422603A
:102F6000209385049C013056211540E2340720F05F
:102F7000305E2115304108F499270E949317089577
:102F8000B0E0A0E0E6ECF7E10C94DE317C018B01CF
:102F9000D42E8091100182FF8CC0C091A403D091E7
:102FA000A503CE15DF0521F0E114F10409F081C07D
:102FB000809110018B7F8093100181FD73C08091FF
:102FC000A2039091A303A801481B590B81E0209113
:102FD0000E0130910F014217530708F480E0817011
:102FE000F82E80911001F0FA81F980931001FE0112
:102FF00083E0F695E7958A95E1F7EE71FF27E25AAF
:10300000FC4F20813181AE014F70552781E090E067
:1030100002C0880F991F4A95E2F7FF2009F444C0C7
:10302000822B932B9183808380915D0381FF08C065
:103030008091100180618093100182E00E94350927
:1030400080915D0385FF08C08091100180628093AC
:10305000100180E20E9435096F2DCE010E94AB174E
:10306000DD2031F08091990385FF02C086FF3BC0CF
:1030700080919C0390919D030E949F0A8091A403DC
:103080009091A5039C013056211540E2340720F0B1
:10309000305E2115304108F499270E9425160E94C0
:1030A00086101DC081E09BCF80959095822393234D
:1030B000B9CFC701992797013056211540E234074F
:1030C00028F0305E2115304108F0C7010E94251616
:1030D0008091A4039091A5038E159F0501F3109391
:1030E000A3030093A203CDB7DEB7E7E00C94FA3157
:1030F00068EE7EEF90E080E00E94803260E082E047
:1031000090E00E94623260E083E090E00E946232D0
:103110001092B80160E084E090E00E94623264E0C6
:1031200082E290E00E94623260E085E090E00E94DE
:10313000623260E086E090E00E9462326FEF87E0EA
:1031400090E00E94623240E050E0BA0188E090E0F6
:103150000E94743260E08DE090E00E94623240E0B4
:1031600050E0BA0188E190E00E94743260E087E1AB
:1031700090E00E94623240E050E0BA018CE190E0C1
:103180000E94743270E060E080E290E00E94803241
:1031900040E050E0BA0188E190E00E94743280E0A3
:1031A0000E942D0D0E943B1440E050E0BA018FE0D8
:1031B00090E00E94743240E050E0BA0183E190E078
:1031C0000E9474320895A7E0B0E0E9EEF8E10C94B3
:1031D000D3317C01DC0113964D915C9114971196CB
:1031E0006C9111978C910E9456068111EEC061E09E
:1031F000C7010E94740C8C01F70182818823E1F0E1
:1032000080916404909165040097B1F00817190744
:1032100099F0FEE08F9FC0011124FC01E15FFD4F9A
:10322000208124602083865F9D4FDC010D931C93D9
:103230000E945E1010928504F7018281882311F4A8
:103240000C947B21C80182519F45409710F00C944B
:103250006F218FEF93E00E9454328111A6C07EEE61
:10326000D72ED00E0BEB12E0D11036C019821A8285
:103270001B821C8299249A9468012FEFC21AD20AE9
:10328000C8010E94543289831A82882309F48DC0B0
:10329000813009F07FC0580132E0A30EB11CC60195
:1032A0000E945432C82E8A83882309F47EC0C50147
:1032B0000E945432D82E8FEF8C0D8330D8F45801F1
:1032C00043E0A40EB11CDB82DD2021F0CE0101968B
:1032D0000E948C168501D0CF0115F4E01F0709F478
:1032E00064C0C8010E945432811101C0DA940F5F9A
:1032F0001F4FBACF8BEF8C0D833030F5C80103968A
:10330000DB825C01DD2031F3580154E0A50EB11CD5
:103310000E9454328C838823E9F28B819C81813016
:10332000AFEF9A0710F0982F8827B6E0CB1631F050
:10333000E7E0CE1631F00E94E928CCCF0E94C328E6
:10334000C9CF0E944A28C6CFF4E0CF12C3CF58019C
:1033500024E0A20EB11CC80103960E945432DD2065
:1033600021F1882311F18150990B989E9001999E2B
:10337000300D11244D2D4150550BCA01820F931F62
:10338000019708F4A7CFAFE9BFE01197F1F700C0AC
:103390000000F6CFCE0101960E948C1656019ACFFE
:1033A00081E00E942B150E94E1148091AC0187708E
:1033B00061F0D70112968C91882339F080915C03DB
:1033C00082FF03C082E00E94FA142796E2E10C9487
:1033D000EF3181E00E94ED14E6CF82E0FBCF823036
:1033E00009F0C7C78091040290910502892B09F466
:1033F000C0C72EE02C9DC0012D9D900D1124FC0115
:10340000E15FFD4F20812E7F2083865F9D4F0E94CC
:103410005E10AFC781E080930101C7CF80910101A9
:10342000882309F488C6480120EE821A910840904A
:10343000B70180914701482A80915D03482A38E00E
:103440008316910408F086C098012770332781E025
:1034500090E001C0880F2A95EAF7552009F477C05B
:10346000482AD7018D919C910E949A0921E030E071
:10347000F90102C0EE0FFF1F8A95E2F7FF83EE838A
:1034800020905F043090600460904401709045018A
:103490001D822D81E22FF0E0EE0FFF1FE553FD4F5F
:1034A000C080D180C114D10409F4A9C6411005C05F
:1034B000D60112968C91811189C0F601838190E02A
:1034C0002E813F8182239323892B09F47FC080853D
:1034D000982F977009F487E038E08316910408F07C
:1034E00053C0552009F44CC086958170882309F497
:1034F0006DC0D601AD90BC900A151B0519F455207E
:1035000009F464C0C214D30409F460C0D6011D9646
:10351000ED91FC91309721F08081882309F456C009
:10352000642DC6010E943606882309F44FC00A158F
:103530001B0509F071C70115110509F472C7511077
:1035400072C7A614B70409F041C0512C6CC780950E
:10355000482287CF552009F43BC6109345010093BC
:1035600044010E94A605609356047093570480930B
:1035700058049093590410925E0410925D0471CF28
:1035800082FB882780F9B2CF552001F18170AECF40
:103590000E94741566C70497813A910558F46A2D04
:1035A0008CE391E00E94BE05552009F4C4C50E9439
:1035B000ED0FFBCE0E94ED0F8FE39CE90197F1F731
:1035C00000C000008A2D0E943D16EECF9D819F5FB6
:1035D0009D835FCFFC01208131810217130709F021
:1035E000A3C55110A3C510925C0480E00E94BF15D2
:1035F000A2C5902F812FE7C5F901858181FF13C6F0
:10360000C9010E9444100FC680911001816080930F
:10361000100137C6809110018E7F809310010E94A7
:1036200086102FC6809110018F7E013E110531F06A
:10363000053E1105C9F4809110018F7D8093100122
:103640008091100180FF2CC6D70112968C91083210
:10365000110528F50E31110508F072C0043011056E
:1036600080F5811119C61CC6C8019056811540E22B
:10367000940720F0905E8115904110F78091100121
:1036800082FF0EC680919B0381FD0AC621ED31E0C9
:1036900040E0B60190E080E00E94C01701C6093307
:1036A000110558F40D32110518F40B321105C9F645
:1036B0009091990392FDD5CF08C004361105C1F34E
:1036C000D0CF9091990394FDCCCF882309F4A8C062
:1036D0008091B70190915D03892B8D7FB1F110929C
:1036E000A5031092A4038091990381FD2EC0F801D7
:1036F00043E0F695E7954A95E1F7EE71FF27E25A28
:10370000FC4F98012F70332781E090E002C0880FB2
:10371000991F2A95E2F78095909520813181822327
:1037200093239183808360E0C8010E94AB1780914E
:10373000B7018D7F0E941A0982E00E94FA1435CEEB
:103740009091990393FD8DCFC0CF88E0F701A1ED53
:10375000B1E001900D928A95E1F71092D301109299
:10376000D5011092D4018091A4039091A50308176C
:103770001907D1F52091990325FF36C0309110012A
:1037800031FF02C026FF30C02091A2033091A30375
:103790005601A21AB30AB7010E94680DA816B9060D
:1037A00018F580915D0381FF08C080911001806150
:1037B0008093100182E00E94350980915D0385FFAE
:1037C00008C08091100180628093100180E20E9405
:1037D000350960911001669561708091A403909104
:1037E000A5030E94AB17E1CD8091B70190915D03D5
:1037F000982B2091100191FB21F9209310018D7FCE
:103800000E941A091093A5030093A403D092A30366
:10381000C092A203809110018460809310018CCF2C
:10382000970140E0B601C8010E94C017BECD053F18
:103830004CE5140709F463C008F45BC0063F8CE54F
:10384000180709F462C0D70112963C91332309F49A
:10385000B0C5109263040330BDE51B0708F061C0DA
:103860000A3FECE51E0730F4C80182509C4544979E
:1038700008F063C00E949B0C90935C0380935B03F1
:1038800002315CE5150709F49EC108F0EEC009306D
:103890009CE5190709F475C108F0B8C00530BCE50E
:1038A0001B0709F462C108F09FC00330FCE51F0745
:1038B00009F453C108F055C180915B038160023067
:1038C0003CE5130709F4CEC080915B0390915C0343
:1038D0000E94460D0E94A51068CD07E225EE45EE38
:1038E00068ED7CE5F8C406E221EE40EE63EF7CE58E
:1038F000F2C407E225EE44EE64EF7CE5ECC406E298
:1039000021EE42EE65EF7CE5E6C407E225EE46EEE9
:1039100066EF7CE5E0C408E221E045EE69ED7CE578
:10392000DAC4053AFDE51F0709F4A4CF08F055C035
:1039300001364DE5140709F49DCF06318CE51807D3
:1039400009F43CC50A355DE5150709F495C108F091
:103950006EC101159CE5190709F474C10E3D1C45A3
:1039600009F47DC1F70186819781009709F488C128
:103970000E94A407182F092FF701B280D580D29496
:103980003FE0D3228091AC018770C1F0AB2CBB200B
:10399000B1F0892F807F803421F080E2810F883060
:1039A00068F080915C0382FF09C082E00E94FA14F3
:1039B0008091AC018770AA24A3948111A12C902E30
:1039C00092942FE09222FBE0F91508F4E6C1E92D6C
:1039D000F0E0E35BFB4C0C94C631C8018D5A9D4569
:1039E000039708F0AACF46CF80915B03806207302F
:1039F0004CE51407B9F180915B03806108305CE508
:103A0000150780F180915B0380642CC00D308CE53C
:103A1000180709F4C0C090F480915B038E7F0B30CF
:103A2000ACE51A07F9F080915B038C600C30BCE5C3
:103A30001B07C0F080915B038D7F14C00F30ECE555
:103A40001E0709F4B8C008F4AAC000312CE512071B
:103A500009F4B5C080915B038F7B01313CE513070E
:103A600009F032CF80935B032FCF0F3F4CE5140753
:103A700009F4B3C0A8F50A3F8CE5180709F479C02A
:103A8000C0F40431ACE51A0709F4B5C008F4A1C0CC
:103A90000531ECE51E0709F017CF80915B0382FB2F
:103AA000992790F921E0922790FB82F990FB83F906
:103AB000D9CF0C3FFCE51F0709F475C008F45DC0C1
:103AC0000D3F3CE5130709F472C080915C038360ED
:103AD0000E3F4CE5140709F0F7CE80935C03F4CE5B
:103AE00001365DE5150709F491C090F401309DE5BC
:103AF000190709F489C008F474C060E00230BDE51C
:103B00001B0709F0E1CE8EE090E00E946232DCCE2D
:103B10000D3AEDE51E07E9F060F490915B03892F03
:103B20008E7F90FF8160053A2DE5120709F49ACF48
:103B3000CBCE0E3A3DE5130751F10F3A4DE5140790
:103B400009F0C2CE90915C03892F877F93FF886034
:103B5000C4CF80915C038860C0CF80915B0382609A
:103B600081CF80915B0384607DCF80915B0388600F
:103B700079CF80915C038160B0CF80915C038260DB
:103B8000ACCF0E94A51080915B0380686BCF8091C1
:103B90005C03877FA2CF80915B038B7F63CF809193
:103BA0005B03877F5FCF80915C038E7F96CF809190
:103BB0005C038D7F92CF80915B038F7E53CF80918A
:103BC0005B038F7D4FCF0E94A51080915B038F77A1
:103BD00049CF80915B03837F45CF80915C038C7FCD
:103BE0007CCF80915C03982F909591708E7F892B6C
:103BF00090FB81F972CF0E94A51090915B03892FF1
:103C000097FB87F980582ECF61E07DCF90915B03C1
:103C1000892F8F7E94FF806125CF8091460181118D
:103C200004C089E20E946309C2CC85E3FBCF0C3556
:103C3000BDE51B07B9F010F1073A1D4509F092CE1A
:103C40000E94C4140E94A5102FEF34E34CE02150D1
:103C500030404040E1F700C000000E9486050E940D
:103C60007818EECF80915C0382FB882780F991E081
:103C700089270E94161576CE81E0FBCF80E0F9CF30
:103C8000828100811181882369F0C8010E94F80BAC
:103C9000D82E682FC8010E94CE09B8018D2D0E9430
:103CA000DB0B66CEC8010E949A09D82EF6CF202FD2
:103CB0002F70C22E802F807F19F0C29490EFC922FE
:103CC000BB20A9F0CC2059F080E2810F883010F0A1
:103CD000111107C08C2D0E943C090E94ED0F812F0D
:103CE0005AC080918504C82AC0928504F6CF812FDE
:103CF0000E947415CC2009F450C080E2810F8830F6
:103D000010F0111104C08C2D0E94350903C08C2DB8
:103D10000E942E090E94ED0F40C0302F3F70C32E2D
:103D2000802F807F803219F0C29480EFC822112347
:103D300021F1113009F4AEC0BB2009F4B7C0DD2079
:103D400009F47FC020E0D7014C9111965C91119746
:103D500012966C91129713967C91139714968C91EE
:103D60000E94510C80919B0381FDB9CFF7018581A1
:103D700080FFB5CF8F70858364C080915C0382FD26
:103D800040C0BB20C1F1CC2029F08C2D0E943C0901
:103D90000E94ED0F80E00E943D16A92DA850BB0B9C
:103DA000149710F40E94D805812F902F0E94050AC5
:103DB00081119BC11092490110924801AA20B1F0D3
:103DC0008091AC0180FD12C0D70112961C9285959E
:103DD000859585950E942B15C7010E94E318809157
:103DE000AC018595859585950E94ED1460E0C7012D
:103DF0000E94740CEACA80E00E947415CC2069F21B
:103E000082CFBB2011F1D11004C08091B7018C2961
:103E100019C041E0D41206C08091B7018C290E94DC
:103E20001A09BBCF80919A03823078F3D812EDCF74
:103E30000E940F09909147018C2D892B8913809343
:103E400047018C2D0E946D15A8CFD11003C00E9490
:103E50000F0917C080919A0351E0D51216C0823025
:103E600008F49BCF80915D038C2109F496CF0E94CA
:103E70000F09909147018C2D809589238913809398
:103E800047018C2D0E94661588CF823000F3D8122E
:103E9000DECF83CF8091A003BB2021F08D1508F4E5
:103EA0007CCFCFCFD81608F078CFEBCFDD2049F309
:103EB00080919E0390919F03193321F080919C0380
:103EC00090919D030E949F0A812F0E94741565CFD7
:103ED000802F837091F5B11060CF412F42954695A8
:103EE0004770440F440F812F8F70042E01C0880F3C
:103EF0000A94EAF7212F207114FF07C02FE030E069
:103F000001C0220F4A95EAF72095302F3695369555
:103F10003370323069F050F44091B801313029F0FB
:103F2000822B84230E944E1538CF842B822BFACF0C
:103F3000282B8091B8018227F5CF8695BB2011F000
:103F4000802F8170882309F428CF412F4295469510
:103F50004770440F440F812F8F70042E01C0880FCB
:103F60000A94EAF7212F207114FF07C02FE030E0F8
:103F700001C0220F4A95EAF72095302F36953695E5
:103F80003370323069F050F440918404313029F0BC
:103F9000822B84230E94DA1400CF842B822BFACF49
:103FA000282B809184048227F5CFF02FFF70CF2E2D
:103FB000BB2029F08F2F0E942B15812F43CF812FFB
:103FC0000E9466158C2D0E94ED14E7CE123F89F1F8
:103FD00060F4103FB9F0113F81F0BB2009F480C0BC
:103FE000D1107DCE802F8F7128C0133F49F1143F2F
:103FF000A1F780915C0382FD2FC0802F8F71BB20C1
:1040000011F31BC08091A003BB2079F0D81608F0F3
:10401000C4CE202F2F7181E090E001C0880F2A9537
:10402000EAF7909184048927B5CF8D1508F4B5CEB1
:10403000F0CF802F8F71B110C6CF0E942B15ADCE5F
:1040400080E0BB2009F4A6CF81E0902F9F7101C0D2
:10405000880F9A95EAF79ECF80919A03823040F1BB
:10406000BB20D1F09091AC019770943041F40E9444
:104070004209802F8F710E94ED14A12C8ECED8168C
:10408000E0F7202F2F71C22E822F0E942B1563E0A4
:104090008C2D0E943715F1CFD81630F00E944209BE
:1040A00064E0802F8F71F5CF81E00E94FA14E5CF94
:1040B000BB2059F0302F3F71C32E832F0E942B1548
:1040C00063E08C2D0E94371568CE81E00E94FA14BF
:1040D00041E04D1508F061CE82E00E94FA145DCEF9
:1040E000D110E6CE802F8F716ECFBB2019F0D1108A
:1040F00061CE64CED1105ECE20E0F70140815181C7
:104100006281738184810E94510C80919B0383FFA3
:1041100051CE8091480190914901029709F04ACE11
:10412000812F0E946A1646CE552029F0DC01189690
:104130008C9185FF5ACAC80197558F3F910511F0A0
:1041400008F071C05801BB24BEE00B9FF0011124A0
:104150009F01265F3D4F6901D70112968C91E15F67
:10416000FD4F908180FB90F99083882309F444CA25
:104170000E94B2059093D0018093CF01F601828115
:104180008F5F82838091850490915D03892B838367
:104190008091B70184830680F781E02D309731F05C
:1041A000D6011C966D917C91C60109958EE08A9D81
:1041B000F0018B9DF00D1124E65FFD4F858181FF9D
:1041C00018CA90E080E090936404809365042BC04B
:1041D00080914401909145010817190781F41092CC
:1041E0004501109244011092560410925704109207
:1041F00058041092590410925E0410925D0480914C
:104200005F0490916004009709F495CFA8E08A16A6
:10421000910408F0DFC9642D0E943606811103C0A5
:1042200081E00E94BF158091990380FF39C00E94F0
:10423000B2056C01D70112968C91882309F4F2C95A
:104240008091100182FF08C021ED31E040E0B6010D
:1042500090E080E00E94C0170B31BCE51B0709F419
:10426000D3C90C31ECE51E0709F4D4C990911001B3
:10427000892F8E7F90FF81600A31FCE51F0709F4CA
:10428000CCC9C8019056811520E2920728F0905EB3
:104290008115904108F0D4C91092A5031092A4038F
:1042A000033FBCE51B0709F41ECB08F0C0CA083D5C
:1042B000FCE51F0709F411CB093D2CE5120709F4B1
:1042C0002ACB073D3CE5130709F0BDCA06E221EE03
:1042D00041EE67ED7CE5C7010E942D1766C80031ED
:1042E000FFE51F0709F45CC801312FE5120709F04B
:1042F00040C082E056C800313FE5130709F469C8A1
:1043000001314FE5140709F468C86801E7E5DE1AD2
:10431000FFEFCF16D10409F060F560E072E08C2D5C
:104320000E94540D892B29F58EE08C9DF0018D9D06
:10433000F00D1124E65FFD4F8281813009F04FC8F6
:104340008091000290910102892B99F080910202E4
:1043500090910302892B69F08091040290910502EB
:104360002091060230910702822B932B892B09F4AE
:1043700040C8D70112965C90552009F44FC80F35FC
:10438000BDE51B0709F446C80036EDE51E0751F0F0
:104390000E35FDE51F0709F041C880910101882312
:1043A00009F438C81092010180E00E94BF150C94F6
:1043B000D51906315CE5150709F0D4CA80915D0373
:1043C000982F9A7A2091980320FF04C0482F4474B4
:1043D00009F090E021FF04C0482F417109F090E0FE
:1043E00022FF04C0482F487809F090E023FF03C063
:1043F000827209F090E0332309F40FCC81E091112F
:1044000001C080E08093460169E2911165E38CE38D
:1044100091E00E94BE05CBC8A114B10409F091C877
:10442000512CB12CA12C80E00E94BF15D0926004C9
:10443000C0925F0481E080935C04F60185818093E3
:104440005A0451100EC0AB2861F0F60180819181B1
:104450009C0124503109213A310508F099C80E9485
:104460006309D6011696AD90BC90C5019A95811549
:104470009F4110F4E0EEBE2277247394C5010197AA
:10448000803B9D4508F0712CD6011996ED91FC9169
:104490001A97309731F01B966D917C9181E00995C8
:1044A0007822772079F0F601868197810E94200A90
:1044B00080935B04C501F8E08F16910408F06BC887
:1044C0000E94E5050E94ED0F6FC8B0E0A0E0EBE6AA
:1044D000F2E20C94DD3180916501807F31F48091AE
:1044E0006201C091A901811107C0CDB7DEB7E8E034
:1044F0000C94F9312196C770809168018C17A9F34B
:10450000F0906001E0906101C0906301D09064017F
:10451000A6016E2D8F2D0E945606D0E08111EACFA4
:104520008E0183E0000F111F8A95E1F7F801E7592A
:10453000FE4F81818E11DECF80818F11DBCF828192
:104540008111D8CFE380F480EC18FD0860E080E6AC
:1045500091E00E94740C60E671E00E94680DE8161C
:10456000F90640F6809165018F7080618093650146
:10457000F801E259FE4F80818F708061808380E670
:1045800091E00E94E3180E949009AFCFA5E1B0E04E
:10459000ECECF2E20C94D6318C0185E0F801DE01FE
:1045A000519601900D928A95E1F7D8015C90119691
:1045B0006C9011971296EC9012971396CD90DC9018
:1045C00060E080E691E00E94740C80E6A82E81E015
:1045D000B82E8090630190906401A4016091610104
:1045E000809160010E9456068111A8C1F09062017D
:1045F000F601E819F9094F0160E0FF2009F44BC109
:10460000C5010E94740CB5010E94680D709065018F
:104610008816990608F0F2C0409163015091640138
:10462000B0906001A0906101872D807F6A2D09F014
:104630008CC08B2D0E945606FE2C811127C0D801FC
:1046400011968C9111978A1121C08C918B111EC0EB
:10465000209166013091670116968D919C912817E3
:104660003907A1F4E11012C0872D8F70806180930B
:10467000650180E691E00E94E31880916501F801F0
:1046800085838F2D6596EFE00C94F231A601662D9F
:10469000852D0E945606D82E81E08E25D11080E00F
:1046A00080FF18C04E2D662D852D0E94700988232D
:1046B00089F080919B0380FF0DC080E691E00E940D
:1046C000E31888E0E0E6F1E0DF011D928A95E9F762
:1046D000F12CD7CF81E08E25D11080E0B82FB170BA
:1046E000CB2E80FF29C04E2D662D852D0E9470098E
:1046F000D82E811121C0598A6A8A89899A890E9493
:10470000270C292F22952F70223050F0243078F476
:104710009F7051F0F8019581907F31F4FD2CB1CF5D
:104720009F7011F08823D1F3805E8830B8F3C80100
:104730000E94E318DC2CF2CFEE2009F4A2CF809186
:104740006501816080936501C3CF8B2D0E94560661
:10475000811124C0D80111968C9111978A111EC025
:104760008C918B111BC020916601309167011696C8
:104770008D919C9117972817390781F4E1100EC08D
:1047800015967C92C8010E94E31888E0F801A0E623
:10479000B1E001900D928A95E1F773CFC8010E94B4
:1047A000340C882339F1EE2029F1809165018032A3
:1047B000A0F020916001309161013A8729871B8622
:1047C000DD86CC868E878091660190916701988BFB
:1047D0008F87CE0109960E94E31888E0F801A0E6D1
:1047E000B1E001900D928A95E1F70E946522FF24C5
:1047F000F39447CFC8010E94E318F9CF872D807F3B
:1048000009F45BCF90906001809061014091630159
:1048100050916401682D892D0E94560681111CC09B
:10482000F8018181881118C08081891115C02091FB
:10483000660130916701868197812817390761F4F5
:10484000E1100AC07582C8010E94E31888E0D50112
:104850001D928A95E9F715CFC8010E94340C882370
:1048600049F2EE2039F280916501803208F4B5CF2B
:1048700020916001309161013A8329831B82DD829E
:10488000CC828E83809166019091670198878F8397
:10489000CE010196A0CF80E691E00E94740C60E604
:1048A00071E00E94680D8816990680F6FE2CEE20B5
:1048B00009F4A0CFE0906001D090610140916301C4
:1048C000509164016D2D8E2D0E945606811128C0D5
:1048D000F80181818D1124C080818E1121C0209129
:1048E0006601309167018681978128173907C1F4E5
:1048F00080919B0382FD49CF9091650190FD45CF4A
:10490000907F09F442CF809165018583903F09F43F
:1049100039CF982F907F905F8F70892B858332CF0E
:10492000C8010E94340C811158CF809165018160CB
:1049300080936501C8010E94E318A3CEEE2009F41C
:1049400059CFC8010E94340CF82E882309F452CFA5
:1049500088E0F801A0E6B1E001900D928A95E1F7B8
:1049600080916001909161010E94270C0E94652254
:1049700088CEA0E1B0E0EFEBF4E20C94E3312987BC
:104980003A874B875C876D877E878F87988BCE01B0
:1049900009960E94C62281112FC088E0FE01399637
:1049A000DE01119601900D928A95E1F74C855D85A7
:1049B0006A8589850E94560681111EC0A0916801F2
:1049C000B0E0CD010196877099272091A9012817A1
:1049D0001906E1F093E0AA0FBB1F9A95E1F7A759DA
:1049E000BE4F98E0FE01319601900D929A95E1F745
:1049F000809368010E9490098091A90190916801BB
:104A0000891312C06096E2E00C94FF310E94A51059
:104A1000109268011092A90188E0E0E6F1E0DF0160
:104A20001D928A95E9F7E8CFB8E08B9FC001112469
:104A300087599E4F0E94C622882321F38091A901A5
:104A400090E00196877099278093A901D5CFEF92C6
:104A5000FF920F931F93CF93DF938091A903882335
:104A600061F0C091A8038CE0F82E8091A903C817CB
:104A700048F01092A9031092A803CDB7DEB7E6E084
:104A80000C94FB31EE24E394EC0EE092A8030C2F7F
:104A900010E0CF9DE0011124C655DC4F4B815C81B5
:104AA000698188810E94560681111DC08E819F8177
:104AB000892B21F488859985019651F428813981C3
:104AC0004A815B816C817D818E819F810E94B924A6
:104AD000F09EF001F19EF00D1124E655FC4F14827A
:104AE000138210928504CE2DC0CF10924D041092E7
:104AF0004C041092110180914B0480934A040E944F
:104B00008F060E9427250895B0E0A0E0EAE8F5E2CC
:104B10000C94D431C0914A0497E0892E01E010E052
:104B20002CE0322E3EEF932E4424439480914B048C
:104B30008C1309C00E9427250E948F06CDB7DEB7CF
:104B4000E1E10C94F031D0E0FE01EE0FFF1FEE5BCF
:104B5000FB4F80819181889ED001899EB00D1124E8
:104B6000A65FBB4F14962C911497211158C05090FA
:104B7000A903EAEAF3E030E020E0712C5D0125159D
:104B800008F04BC0E284F384D501CD90DC906FEF48
:104B90007FEF612C462D50E0DA01AA0FBB1FAC0D50
:104BA000BD1D0D90BC91A02D109731F0EA16FB06AB
:104BB00009F4BA016394EECF6F3F7607A9F1D801EB
:104BC00002C0AA0FBB1F6A95E2F77A2AB801062C29
:104BD00002C0660F771F0A94E2F7AB0141505109FA
:104BE00074161506F9F4329EF001339EF00D11246F
:104BF000E655FC4F889ED001899EB00D1124A65F1A
:104C0000BB4F12962D913C91139737832683908248
:104C100091829187808715964C920E946106219619
:104C2000C37084CF148213822F5F3F4F3C96A7CF6F
:104C3000A9E1B0E0EEE1F6E20C94D331942F498B78
:104C4000252F5A8B6B8B7C8B8D8B4C895D89622FCA
:104C5000892F0E945606811109C0809148019091C8
:104C60004901019690934901809348018B898111F4
:104C7000109285041D861E861F86188A85E0FE0117
:104C80007196DE01199601900D928A95E1F7809157
:104C90005C0382FF1EC08091800390918103892B69
:104CA000C1F00E94B2052091AA013091AB01821B94
:104CB000930B20918003309181038217930720F09A
:104CC0008091AC0182FFE2C10E94490981110E94DA
:104CD0000F094C855D856A8589850E94560681117C
:104CE00011C061E0CE0109960E94740C6C018B85A5
:104CF00027EFC2162CE5D20681F4882321F181E04A
:104D00008093110129853A854B855C856D857E856B
:104D10008F8598890E94B924C6C038EFC3163CE538
:104D2000D30629F4882379F00E947525EBCF49EF4B
:104D3000C4164CE5D40639F4882329F0809111017A
:104D40008111F2CFDCCF0AE014E0512CB12CA12C60
:104D500022242394312C2EEF422EF80140815181E0
:104D600088248A94982C20E0822F90E0FC01EE0F9A
:104D7000FF1FE40FF51F608171816115710531F02E
:104D8000C616D70609F44C012F5FEECFF12CFFEFCA
:104D90008F169F0609F449C0F8014481F090110173
:104DA0008F2D411180E0F82FF170FF2EF801E58082
:104DB00086819B85992309F4F8C0FF2009F4F5C08A
:104DC0006090940370909503E11013C0A101082C2A
:104DD00001C0440F0A94EAF7842B86838091A603CE
:104DE0009091A7038615970520F47092A70360920F
:104DF000A603C10102C0880F991F2A95E2F7019707
:104E0000F80126812817190681F480914C049091AD
:104E10004D04009709F44BC00E9497056816790667
:104E200008F045C021E0F80124835F28FFEFAF1AA6
:104E3000BF0A095F1F4F28E0A216B10409F08DCF09
:104E40008B85882309F40DC1552009F40AC10E94FD
:104E5000B20590934D0480934C048091A90388304F
:104E600010F591E0980F9093A90398E0FE01399610
:104E7000DE01119601900D929A95E1F73CE0839F37
:104E8000C001112486559C4F28E0FE013196DC01BB
:104E900001900D922A95E1F72FEF3FEFFC0131874A
:104EA0002087D386C2866996E2E10C94EF31809127
:104EB0004A0450914B04982FF0E0E0E0851314C0B1
:104EC00090934A04E017F10709F4AFCF90E0FC019A
:104ED000EE0FFF1FEE5BFB4FB182A0820196837045
:104EE000992780934B04A1CF682E712CF301EE0F0C
:104EF000FF1FEE5BFB4F2081318147E0429FD001D5
:104F0000439FB00D1124A65FBB4F6D917C9111970B
:104F1000798F688F40E020E030E0E32FF0E0EE0F83
:104F2000FF1F688D798DE60FF71F808091808114B7
:104F30009104E1F0F8010190F081E02DFF8BEE8B00
:104F400020E005C08616970609F44F2D2F5FE22F4B
:104F5000F0E0EE0FFF1F6E897F89E60FF71F60817B
:104F600071816115710571F73F5FD7CF4423D1F08F
:104F7000F801231708F0FD0121E024830E171F0715
:104F800021F490934A04F42E50CF981305C0AE1725
:104F9000BF0711F49F5F937093012F5F3F4F822FE4
:104FA00083708CCFF0E0E0E0F7CF90E0E11020C01C
:104FB000B10102C0660F771F2A95E2F79B012150CD
:104FC00031098217930731F4442309F448C0C5011D
:104FD0000E946106C101082C01C0880F0A94EAF7FB
:104FE000982F9095F801868189238683FE2C1DCF0A
:104FF0009C01082C02C0359527950A94E2F7A90177
:1050000041705527BC016150710986239723892B74
:1050100011F5452B01F1F80182819381892BC1F0B3
:105020001B821C821D821E8249824A820E94B20516
:105030008160582F9D838C83F801828193818F83B7
:10504000988729813A814B816D817E810E94B924A4
:10505000F8011582BFCFF22FF170EF2EBBCFEF2CEE
:10506000B9CF90914A0480914B04981731F00E9477
:105070008425552009F446CE16CF0E94272510928C
:105080004D0410924C040E948F06F3CF82E00E94E0
:10509000FA141ACEA5E0B0E0E0E5F8E20C94E331B2
:1050A0009093580380935703811520E2920730F4C0
:1050B0000E9425162596E2E00C94FF3180EF89834B
:1050C0008A831B820E94B2058160782F9D838C8326
:1050D00049815A816B818D810E941826EBCF0F93F5
:1050E0001F93CF93DF938C01EB0160E072E08C2F74
:1050F0000E94540D892BA1F480919C0390919D03F3
:105100000E949F0ADD27C850DE4F8881F801128275
:1051100018828330F1F048F4813059F0823081F008
:10512000DF91CF911F910F9108958430B9F08530B0
:10513000B9F78091000290910102009789F306C0AF
:105140008091020290910302009799F30E944A28ED
:10515000E7CF8091040290910502F6CF809106027C
:1051600090910702009791F720910002309101027F
:10517000809102029091030221153105F1F200970E
:1051800029F7C901E3CFA5E0B0E0E9ECF8E20C941F
:10519000E3319093580380935703811520E29207DF
:1051A00030F40E9493172596E2E00C94FF3180EFD3
:1051B00089838A8381E08B830E94B2058160782F86
:1051C0009D838C8349815A816B818D810E94182631
:1051D000EACFCF93DF93EC010E94C32880919C0318
:1051E00090919D030E949F0ACE010E944A28DF9160
:1051F000CF9108950F931F93CF93DF938C01862F48
:1052000060E072E00E94540D892BB1F4C09100025D
:10521000D0910102209781F0F8018281833051F40E
:10522000CE010E94E928CE010E94E928CE010E9409
:10523000E92802C08430D0F7DF91CF911F910F9100
:1052400008950F931F93CF93DF938C01EB0160E0E0
:1052500072E08C2F0E94540D892B09F05CC0FE0176
:10526000FF27D80112968C911297E850FE4F81309B
:10527000B9F415969C9192FF02C080830AC090FFFA
:10528000FCCF82E08083809102029091030200971C
:10529000B9F480910002909101020097E1F110C0F1
:1052A0008230B9F515968C9182FD28C080FD0BC027
:1052B00083E080838091040290910502009701F1C0
:1052C0000E94C32828C084E08083809106029091C8
:1052D00007020097A9F780910002909101020097C0
:1052E000F9F00E94E9288091020290910302009750
:1052F00039F78091000290910102E2CF85E080832E
:105300008091000290910102009729F00E94E92803
:10531000F0CF86E08083DF91CF911F910F910895A8
:105320008091020290910302B8CF1F920F920FB6A4
:105330000F9211242F933F934F935F936F937F931B
:105340008F939F93AF93BF93CF93DF93EF93FF938D
:10535000D091E900DF708091EC00C82FC17080FD12
:10536000C0E81092E9008091F000877F8093F00000
:1053700078940E94B3101092E9008091F000886048
:105380008093F000CD2BCF70C093E900FF91EF9197
:10539000DF91CF91BF91AF919F918F917F916F914D
:1053A0005F914F913F912F910F900FBE0F901F90E3
:1053B00018951F920F920FB60F9211242F933F93BF
:1053C0004F935F936F937F938F939F93AF93BF930D
:1053D000EF93FF938091E10082FF09C08091E2008A
:1053E00082FF05C08091E1008B7F8093E100809176
:1053F000DA0080FF24C08091D80080FF20C0809117
:10540000DA008E7F8093DA008091D90080FF9DC002
:1054100080E189BD82E189BD09B400FEFDCF81E054
:105420008093830480916D04811109C00E94D4038C
:105430000E94C7048091E20084608093E200809122
:10544000E10080FF17C08091E20080FF13C08091CF
:10545000E2008E7F8093E2008091E2008061809381
:10546000E2008091D80080628093D80019BC85E06A
:10547000809383048091E10084FF2BC08091E2003F
:1054800084FF27C080E189BD82E189BD89B5982F5D
:10549000917080FFFBCF8091D8008F7D8093D800E2
:1054A0008091E1008F7E8093E1008091E2008F7E09
:1054B0008093E2008091E20081608093E20080911D
:1054C0007A04882309F447C084E0809383048091A0
:1054D00083048091E10083FF27C08091E20083FF75
:1054E00023C08091E100877F8093E10082E0809378
:1054F000830410927A048091E1008E7F8093E10012
:105500008091E2008E7F8093E2008091E2008061D2
:105510008093E20042E060E080E00E949504809188
:10552000F00088608093F000FF91EF91BF91AF9100
:105530009F918F917F916F915F914F913F912F91AB
:105540000F900FBE0F901F90189519BC10928304F6
:1055500010926D0474CF8091E30087FD93E09093E7
:105560008304B5CF78941F921FB61F9211248F9396
:105570009F93AF93BF938091690490916A04A09127
:105580006B04B0916C040196A11DB11D8093690458
:1055900090936A04A0936B04B0936C04BF91AF9195
:1055A0009F918F911F901FBE1F9018951F921FB63D
:1055B0001F9211248F939F93AF93BF9380916804A0
:1055C000811113C08091690490916A04A0916B04C9
:1055D000B0916C044196A11DB11D80936904909314
:1055E0006A04A0936B04B0936C04BF91AF919F9138
:1055F0008F911F901FBE1F901895CDB7DEB7EC9707
:105600000FB6F894DEBF0FBECDBF85B7806885BFEB
:1056100085B7806885BF84B7877F84BF0FB6F8944D
:10562000A89580916000886180936000109260006E
:105630000FBE80E890E00FB6F894809361009093DD
:1056400061000FBE88E497E090933B0180933A019C
:105650000E9423070E94120E0E94860D0E94860B54
:105660000E94D4030E94C7048091E200846080936A
:10567000E2007894809183048823A1F01091E900DE
:105680001F709091EC00892F817090FD80E8182B9D
:105690001092E9008091E80083FD0E94B3101F7012
:1056A0001093E90082E084BD93E095BD9AEF97BD29
:1056B00080936E000E94820C811102C00E943B14F4
:1056C0000BE111E0E7E2EE2EE1E0FE2ED8018D9134
:1056D0008D018F3F11F00E944A07E016F106B1F7E5
:1056E00086EC0E944A0784E30E944A0785E30E94F1
:1056F0004A0782E30E944A0788E0EEEDF1E0DF010D
:10570000282F1D922A95E9F7ECEBF1E0DF011D92BD
:105710008A95E9F790E080E00E945C32883E9E4FD7
:1057200021F40E94820C811102C00E94781882E04C
:1057300090E00E9454328093C6010E949B0C90938B
:105740005C0380935B030E94060FEFEFF6E721E016
:10575000E150F0402040E1F700C000000E94060F39
:105760008091DE0180FF08C06FEF7FEF90E080E066
:105770000E9480320E94860583E090E00E945432AD
:105780000E944E150E94770B82E091E0909367048F
:10579000809366042E013BE2430E511C80918304EA
:1057A00000E112E1853009F491C00E94060F67EC18
:1057B000A62E61E0B62E7EED872E71E0972ED401E5
:1057C000F501219131918D919D9141E0EF3CF407DC
:1057D00009F486C028173907A1F3712CD4010D9163
:1057E0001D914D01F501C190D1905F01C016D10608
:1057F00059F1C026D126612CEE24E394F12CC60188
:105800008E219F21892BB1F068AE79AE21E0C801CD
:105810008E219F21892B09F420E02AAF0E94B20536
:105820008160782F9CAF8BAF48AD59AD6AAD8CAD20
:105830000E9418266394EE0CFF1CFCE06F12DFCF71
:10584000F501329711830083739424E07212C6CF5E
:105850000E94A60567C080918304843031F10E94C4
:10586000560E1092680488E190E0A0E40FB6F89418
:10587000A895809360000FBEA093600083B7817FDE
:10588000846083BF83B7816083BF7894889583B732
:105890008E7F83BF0FB6F894A895809160008861D1
:1058A00080936000109260000FBE8091790488237D
:1058B00069F00E94060FEEEDF1E081919191892B44
:1058C00009F004C5B1E0E63EFB07B9F78091830417
:1058D000853009F4C0CF0E94A5100E94D80565CF7D
:1058E0002817390709F079CF0E94B2058C01809101
:1058F000C4019091C50108171907A1F08FEF8BAB78
:105900008CAB1DAA0E94B2058160782F9FAB8EAB35
:105910004BA95CA96DA98FA90E9418261093C501F7
:105920000093C40180915D0490915E04892B09F479
:105930003EC04091520450915304609154047091C0
:1059400055042FB7F8948091690490916A04A0914E
:105950006B04B0916C042FBF841B950BA60BB70B87
:1059600040914E0450914F04609150047091510445
:1059700084179507A607B707D0F080915D04909132
:105980005E040E94931710925E0410925D041092C0
:105990005204109253041092540410925504109221
:1059A0004E0410924F041092500410925104009132
:1059B0006404109165040115110519F18091CF015E
:1059C0009091D0010E9497057C0188E0D2011D9240
:1059D0008A95E9F7B201C8010E94680D8E159F05EE
:1059E00080F480916404BEE08B9FC0011124FC010F
:1059F000E15FFD4F208122FD04C0865F9D4F0E9424
:105A00005E1080911101882301F180914C049091E6
:105A10004D040097D1F00E9497052091A603309184
:105A2000A7032817390788F490914A0480914B0402
:105A3000981709F471C00E9484251092A703109250
:105A4000A60310924D0410924C048091990380FF9C
:105A50001EC08091100182FF1AC00E94B2052091E1
:105A6000A2033091A303AC01421B530B20910E0102
:105A700030910F014217530750F021ED31E041E022
:105A8000BC018091A4039091A5030E94C0170E94BD
:105A9000560E0E94D8059091D901891721F0809364
:105AA000D9010E94A60580918304843009F076CE46
:105AB00083E08093E9008091E80082FF6FCE8091BF
:105AC000E80090E085FF05C00E94F303882369F198
:105AD00091E08091E8008B778093E800992309F4A6
